:040000008031912892
:100008007E1480310B1C09280A2833282700931AEC
:100018000E280F2819282000AA01AB0122000C166F
:1000280021008C1E182819281228270013181D28AB
:100038001E281E28131C212822282A2821008C1E4D
:10004800262827282A282000AA01AB01803027006B
:10005800930080308B008B122100911063002000E8
:10006800911C37283828502824082504031D3D28CA
:100078003E284D280130A2060030A306220823049A
:100088000319472848284F280130A6060030A7063C
:100098004F28A601A70191100B1D532854288F281B
:1000A8000F307C02031859285A285F280130F000C5
:1000B8007008FC076A282808290403196428652899
:1000C80069280130A8020030A93BFC012608270452
:1000D800031D6F28702876282A082B040319752811
:1000E80076288B280130FA060030FB067A187D281E
:1000F800802822008C14822822008C107A1C8528E3
:10010800882822000C158A2822000C118E2822002B
:100118008C100C110B117E10090080319328FA0104
:10012800FB01FC012000A001A101A201A301A4017F
:10013800A501A601A7017E10200083310D2BD83020
:10014800F3000030F4000B3083318C238031D83039
:10015800F3000030F4000D3083318C238031B1304E
:10016800F3000130F4000E3083318C238031BC3031
:10017800F3000130F400123083318C2380318B304E
:10018800F3000230F400133083318C2380316B305C
:10019800F3000030F400123083318C2380316B304F
:1001A800F3000030F400103083318C238031643048
:1001B800F3000330F400123083318C238031B130E6
:1001C800F3000130F400003083318C238031D830C3
:1001D800F3000030F4000B3083318C238031D830A9
:1001E800F3000030F4000D3083318C238031B130BE
:1001F800F3000130F4000E3083318C238031B130AC
:10020800F3000130F400123083318C238031B13097
:10021800F3000130F400173083318C238031B13082
:10022800F3000130F400153083318C2380316430C1
:10023800F3000330F400123083318C238031B13065
:10024800F3000130F400003083318C238031D83042
:10025800F3000030F4000B3083318C238031D83028
:10026800F3000030F4000D3083318C238031B1303D
:10027800F3000130F4000E3083318C238031B1302B
:10028800F3000130F400123083318C2380318B303D
:10029800F3000230F400133083318C2380316B304B
:1002A800F3000030F400123083318C2380316B303E
:1002B800F3000030F400103083318C238031643037
:1002C800F3000330F400123083318C238031453041
:1002D800F3000130F400133083318C238031453032
:1002E800F3000130F400123083318C238031D83090
:1002F800F3000030F400133083318C2380318B30CD
:10030800F3000230F400153083318C2380316230E1
:10031800F3000030F400123083318C2380316B30CD
:10032800F3000030F400103083318C238031CA3060
:10033800F3000630F400103083318C238031B13063
:10034800F3000130F400003083318C238031D83041
:10035800F3000030F400143083318C238031D8301E
:10036800F3000030F400163083318C238031B13033
:10037800F3000130F400173083318C238031B13021
:10038800F3000130F4001B3083318C2380318B3033
:10039800F3000230F4001C3083318C2380316B3041
:1003A800F3000030F4001B3083318C2380316B3034
:1003B800F3000030F400193083318C23803164302D
:1003C800F3000330F4001B3083318C238031453037
:1003D800F3000130F4001C3083318C238031453028
:1003E800F3000130F4001B3083318C238031D83086
:1003F800F3000030F4001C3083318C2380318B30C3
:10040800F3000230F4001E3083318C2380316B30CE
:10041800F3000030F400203083318C2380316B30BE
:10042800F3000030F400223083318C238031CA304D
:10043800F3000630F400233083318C238031080028
:100448003E30F3000630F400123083318C238231C1
:100458008E30F3000130F400103083318C23823168
:100468008E30F3000130F4000E3083318C2382315A
:100478008E30F3000130F4000D3083318C2382314B
:100488008E30F3000130F4000B3083318C2382313D
:10049800C430F3000730F400133083318C238231E9
:1004A800C630F3000030F400123083318C238231DF
:1004B800C630F3000030F400103083318C238231D1
:1004C800B930F3000530F4000D3083318C238231CC
:1004D8008530F3000030F400003083318C23823102
:1004E8003E30F3000630F400123083318C23823121
:1004F8008E30F3000130F4000E3083318C238231CA
:100508008E30F3000130F400103083318C238231B7
:100518008E30F3000130F400123083318C238231A5
:100528008E30F3000130F400103083318C23823197
:100538001E30F3000330F400103083318C238231F5
:100548001E30F3000330F400133083318C238231E2
:10055800B930F3000530F400163083318C23823132
:100568008530F3000030F400003083318C23823171
:100578003E30F3000630F4000B3083318C23823197
:100588008E30F3000130F4000B3083318C2382313C
:100598008E30F3000130F4000D3083318C2382312A
:1005A8008E30F3000130F4000E3083318C23823119
:1005B8008E30F3000130F4000B3083318C2382310C
:1005C8001E30F3000330F400103083318C23823165
:1005D8001E30F3000330F400133083318C23823152
:1005E8001E30F3000330F400123083318C23823143
:1005F8001E30F3000330F400163083318C2382312F
:100608003E30F3000630F400173083318C238231FA
:10061800080023008C01FC3021009905190887394E
:100628007038990099179114ED3020009B00033021
:100638009C041C158B1688302100950000308331EE
:10064800AC2383312000AE002E08AD000130833189
:10065800AC2383312000AE002E08AC008B170B179B
:100668008B152700121411149216210091120B12E7
:100678000C148C100C118C110C128C1622008C107E
:100688000C110C1201302000AA000030AB00D03051
:10069800F1000730F2008331C12383312000AA0121
:1006A800AB018231242283312000AA01AB01D03072
:1006B800F1000730F2008331C12383318031A32058
:1006C8008331652B80319128ED34E034D334C7343D
:1006D800BD34B234A8349E3496348D3485347D3498
:1006E800763470346A3463345E34593454344F3455
:1006F8004B34463442343F343B3438343434323467
:100708002F342C342A3427342534233421341F340D
:10071800F50075080319912B922B9F2B2000A4013B
:10072800A5017508683E840083300318013E8500E2
:1007380000089B00A42B01302000A4000030A50075
:100748007408F2007308F1008331C1238331080073
:10075800F400640023009518B22BB32BAD2B74085A
:10076800F100F20171089100720892003F30F30025
:100778007308950515141308080072082000A900CD
:100788007108A80028082904031DCB2BCC2BC62BE5
:02079800080057
:020000040001F9
:04000E00A43FFF3FCD
:10E000000000000000000000000000000000000010
:00000001FF
