:0400000080316428BF
:100008007E1480312000911C0A280B2823282408FC
:100018002504031D1028112820280130A2060030CD
:10002800A3062208230403191A281B2822280130B2
:10003800A6060030A7062228A601A70191100B1DCD
:100048002628272862280F307C0203182C282D2800
:1000580032280130F0007008FC073D2828082904E0
:100068000319372838283C280130A8020030A93B5A
:10007800FC0126082704031D4228432849282A088A
:100088002B040319482849285E280130FA06003055
:10009800FB067A185028532822000C1655282200EF
:1000A8000C127A1C58285B2822008C145D28220028
:1000B8008C10612822000C128C100B117E10090084
:1000C80080316628FA01FB01FC012000A001A10192
:1000D800A201A301A401A501A601A7017E10200089
:1000E8008231E02AD830F3000030F4000B3083313D
:1000F8005D238031D830F3000030F4000D308331B7
:100108005D238031B130F3000130F4000E308331CB
:100118005D238031BC30F3000130F40012308331AC
:100128005D2380318B30F3000230F40013308331CB
:100138005D2380316B30F3000030F40012308331DE
:100148005D2380316B30F3000030F40010308331D0
:100158005D2380316430F3000330F40012308331C2
:100168005D238031B130F3000130F4000030833179
:100178005D238031D830F3000030F4000B30833138
:100188005D238031D830F3000030F4000D30833126
:100198005D238031B130F3000130F4000E3083313B
:1001A8005D238031B130F3000130F4001230833127
:1001B8005D238031B130F3000130F4001730833112
:1001C8005D238031B130F3000130F4001530833104
:1001D8005D2380316430F3000330F4001230833142
:1001E8005D238031B130F3000130F40000308331F9
:1001F8005D238031D830F3000030F4000B308331B8
:100208005D238031D830F3000030F4000D308331A5
:100218005D238031B130F3000130F4000E308331BA
:100228005D238031B130F3000130F40012308331A6
:100238005D2380318B30F3000230F40013308331BA
:100248005D2380316B30F3000030F40012308331CD
:100258005D2380316B30F3000030F40010308331BF
:100268005D2380316430F3000330F40012308331B1
:100278005D2380314530F3000130F40013308331C1
:100288005D2380314530F3000130F40012308331B2
:100298005D238031D830F3000030F400133083310F
:1002A8005D2380318B30F3000230F4001530833148
:1002B8005D2380316230F3000030F4001230833166
:1002C8005D2380316B30F3000030F400103083314F
:1002D8005D238031CA30F3000630F40010308331DA
:1002E8005D238031B130F3000130F40000308331F8
:1002F8005D238031D830F3000030F40014308331AE
:100308005D238031D830F3000030F400163083319B
:100318005D238031B130F3000130F40017308331B0
:100328005D238031B130F3000130F4001B3083319C
:100338005D2380318B30F3000230F4001C308331B0
:100348005D2380316B30F3000030F4001B308331C3
:100358005D2380316B30F3000030F40019308331B5
:100368005D2380316430F3000330F4001B308331A7
:100378005D2380314530F3000130F4001C308331B7
:100388005D2380314530F3000130F4001B308331A8
:100398005D238031D830F3000030F4001C30833105
:1003A8005D2380318B30F3000230F4001E3083313E
:1003B8005D2380316B30F3000030F400203083314E
:1003C8005D2380316B30F3000030F400223083313C
:1003D8005D238031CA30F3000630F40023308331C6
:1003E8005D23803108003E30F3000630F4001230FF
:1003F80083315D2381318E30F3000130F4001030F9
:1004080083315D2381318E30F3000130F4000E30EA
:1004180083315D2381318E30F3000130F4000D30DB
:1004280083315D2381318E30F3000130F4000B30CD
:1004380083315D238131C430F3000730F400133079
:1004480083315D238131C630F3000030F40012306F
:1004580083315D238131C630F3000030F400103061
:1004680083315D238131B930F3000530F4000D305C
:1004780083315D2381318530F3000030F400003092
:1004880083315D2381313E30F3000630F4001230B1
:1004980083315D2381318E30F3000130F4000E305A
:1004A80083315D2381318E30F3000130F400103048
:1004B80083315D2381318E30F3000130F400123036
:1004C80083315D2381318E30F3000130F400103028
:1004D80083315D2381311E30F3000330F400103086
:1004E80083315D2381311E30F3000330F400133073
:1004F80083315D238131B930F3000530F4001630C3
:1005080083315D2381318530F3000030F400003001
:1005180083315D2381313E30F3000630F4000B3027
:1005280083315D2381318E30F3000130F4000B30CC
:1005380083315D2381318E30F3000130F4000D30BA
:1005480083315D2381318E30F3000130F4000E30A9
:1005580083315D2381318E30F3000130F4000B309C
:1005680083315D2381311E30F3000330F4001030F5
:1005780083315D2381311E30F3000330F4001330E2
:1005880083315D2381311E30F3000330F4001230D3
:1005980083315D2381311E30F3000330F4001630BF
:1005A80083315D2381313E30F3000630F40017308B
:1005B80083315D238131080023008C01FC30210048
:1005C8009905190887397038990099179114ED30F1
:1005D80020009B0003309C041C158B1688302100DA
:1005E8009500003083317D2382312000AE002E0833
:1005F800AD00013083317D2382312000AE002E080A
:10060800AC000B17210091120B128B170C148C10D5
:100618000C118C110C1224000C1422000C108C10DC
:100628000C110C128C1201302000AA000030AB0013
:10063800D030F1000730F20083319223823120005C
:10064800AA01AB018131F72182312000AA01AB0157
:10065800D030F1000730F2008331922382318031AB
:1006680076208231362B80316428ED34E034D3345F
:10067800C734BD34B234A8349E3496348D348534AE
:100688007D34763470346A3463345E345934543487
:100698004F344B34463442343F343B3438343434AA
:1006A80032342F342C342A3427342534233421345B
:1006B8001F34F50075080319622B632B702B20007B
:1006C800A401A5017508393E840083300318013E52
:1006D800850000089B00752B01302000A400003025
:1006E800A5007408F2007308F10083319223833166
:1006F8000800F400640023009518832B842B7E2BBC
:100708007408F100F20171089100720892003F30FC
:10071800F3007308950515141308080072082000E3
:10072800A9007108A80028082904031D9C2B9D2BEB
:04073800972B0800F3
:020000040001F9
:04000E00A43FFF3FCD
:10E000000000000000000000000000000000000010
:00000001FF
