:0400000080316228C1
:100008007E1480312000911C0A280B2823282608FA
:100018002704031D1028112820280130A4060030C9
:10002800A5062408250403191A281B2822280130AC
:10003800A8060030A9062228A801A90191100B1DC5
:100048002628272860280F307C0203182C282D2802
:1000580032280130F0007008FC073D2820082104F0
:100068000319372838283C280130A0020030A13B6A
:10007800FC0128082904031D4228432849282A0886
:100088002B040319482849285C280130FB067B18F3
:100098004E28512822000C15532822000C117B1CD5
:1000A8005628592822008C145B2822008C105F28BF
:1000B80022000C118C100B117E100900803164286D
:1000C800FB01FC012000A001A101A201A301A401E0
:1000D800A501A601A701A801A9017E1020008D3164
:1000E800752DFA30F3000030F4000A308D312925DF
:1000F8008031EE30F3000230F40000308D312925D4
:100108008031FA30F3000030F4000A308D312925AF
:100118008031EE30F3000230F40000308D312925B3
:100128008031FA30F3000030F4000A308D3129258F
:100138008031EE30F3000230F40000308D31292593
:100148008031FA30F3000030F4000A308D3129256F
:1001580080314B30F3000030F40000308D31292518
:1001680080317D30F3000030F4000D308D312925C9
:1001780080316430F3000030F40000308D312925DF
:1001880080317D30F3000030F4000D308D312925A9
:1001980080316430F3000030F40000308D312925BF
:1001A80080317D30F3000030F4000D308D31292589
:1001B80080316430F3000030F40000308D3129259F
:1001C8008031FA30F3000030F4000A308D312925EF
:1001D8008031EE30F3000230F40000308D312925F3
:1001E8008031FA30F3000030F4000A308D312925CF
:1001F8008031EE30F3000230F40000308D312925D3
:100208008031FA30F3000030F4000A308D312925AE
:100218008031EE30F3000230F40000308D312925B2
:100228008031FA30F3000030F4000A308D3129258E
:1002380080314B30F3000030F40000308D31292537
:1002480080317D30F3000030F4000D308D312925E8
:1002580080316430F3000030F40000308D312925FE
:1002680080317D30F3000030F4000D308D312925C8
:1002780080316430F3000030F40000308D312925DE
:1002880080317D30F3000030F4000D308D312925A8
:1002980080316430F3000030F40000308D312925BE
:1002A8008031FA30F3000030F4000A308D3129250E
:1002B8008031EE30F3000230F40000308D31292512
:1002C8008031FA30F3000030F4000A308D312925EE
:1002D8008031EE30F3000230F40000308D312925F2
:1002E8008031FA30F3000030F4000A308D312925CE
:1002F8008031EE30F3000230F40000308D312925D2
:100308008031FA30F3000030F4000A308D312925AD
:1003180080314B30F3000030F40000308D31292556
:1003280080317D30F3000030F4000D308D31292507
:1003380080316430F3000030F40000308D3129251D
:1003480080317D30F3000030F4000D308D312925E7
:1003580080316430F3000030F40000308D312925FD
:1003680080317D30F3000030F4000D308D312925C7
:1003780080316430F3000030F40000308D312925DD
:100388008031FA30F3000030F4000A308D3129252D
:100398008031EE30F3000230F40000308D31292531
:1003A8008031FA30F3000030F4000A308D3129250D
:1003B8008031EE30F3000230F40000308D31292511
:1003C8008031FA30F3000030F4000A308D312925ED
:1003D8008031EE30F3000230F40000308D312925F1
:1003E8008031FA30F3000030F4000A308D312925CD
:1003F80080314B30F3000030F40000308D31292576
:1004080080317D30F3000030F40009308D3129252A
:1004180080316430F3000030F40000308D3129253C
:1004280080317D30F3000030F40009308D3129250A
:1004380080316430F3000030F40000308D3129251C
:1004480080317D30F3000030F40009308D312925EA
:1004580080316430F3000030F40000308D312925FC
:100468008031F430F3000130F40016308D31292545
:100478008031F430F3000130F40000308D3129254B
:100488008031F430F3000130F40016308D31292525
:100498008031F430F3000130F40000308D3129252B
:1004A8008031F430F3000130F40016308D31292505
:1004B8008031F430F3000130F40000308D3129250B
:1004C8008031F430F3000130F40012308D312925E9
:1004D8008031FA30F3000030F40000308D312925E6
:1004E8008031FA30F3000030F40019308D312925BD
:1004F8008031F430F3000130F40016308D312925B5
:100508008031F430F3000130F40000308D312925BA
:100518008031F430F3000130F40012308D31292598
:100528008031FA30F3000030F40000308D31292595
:100538008031FA30F3000030F40019308D3129256C
:100548008031EE30F3000230F40016308D31292569
:100558008031E230F3000430F40000308D31292579
:100568008031F430F3000130F4001D308D3129253D
:100578008031F430F3000130F40000308D3129254A
:100588008031F430F3000130F4001D308D3129251D
:100598008031F430F3000130F40000308D3129252A
:1005A8008031F430F3000130F4001D308D312925FD
:1005B8008031F430F3000130F40000308D3129250A
:1005C8008031F430F3000130F4001E308D312925DC
:1005D8008031FA30F3000030F40000308D312925E5
:1005E8008031FA30F3000030F40019308D312925BC
:1005F8008031F430F3000130F40015308D312925B5
:100608008031F430F3000130F40000308D312925B9
:100618008031F430F3000130F40012308D31292597
:100628008031FA30F3000030F40000308D31292594
:100638008031FA30F3000030F40019308D3129256B
:100648008031EE30F3000230F40016308D31292568
:100658008031E830F3000330F40000308D31292573
:100668008031F430F3000130F40022308D31292537
:100678008031F430F3000130F40000308D31292549
:100688008031F430F3000130F40016308D31292523
:100698008031FA30F3000030F40000308D31292524
:1006A8008031FA30F3000030F40016308D312925FE
:1006B8008031F430F3000130F40022308D312925E7
:1006C8008031F430F3000130F40000308D312925F9
:1006D8008031F430F3000130F40021308D312925C8
:1006E8008031FA30F3000030F40000308D312925D4
:1006F8008031FA30F3000030F40020308D312925A4
:100708008031FA30F3000030F4001F308D31292594
:100718008031FA30F3000030F4001E308D31292585
:100728008031F430F3000130F4001F308D31292579
:100738008031F430F3000130F40000308D31292588
:100748008031F430F3000130F4001A308D3129255E
:100758008031EE30F3000230F4001E308D3129254F
:100768008031FA30F3000030F40000308D31292553
:100778008031F430F3000130F4001D308D3129252B
:100788008031FA30F3000030F40000308D31292533
:100798008031FA30F3000030F4001C308D31292507
:1007A8008031FA30F3000030F4001B308D312925F8
:1007B8008031FA30F3000030F4001A308D312925E9
:1007C8008031F430F3000130F4001B308D312925DD
:1007D8008031F430F3000130F40000308D312925E8
:1007E8008031F430F3000130F40016308D312925C2
:1007F8008031F430F3000130F40019308D312925AF
:100808008031F430F3000130F40000308D312925B7
:100818008031F430F3000130F40012308D31292595
:100828008031FA30F3000030F40000308D31292592
:100838008031FA30F3000030F40019308D31292569
:100848008031F430F3000130F40016308D31292561
:100858008031F430F3000130F40000308D31292567
:100868008031F430F3000130F40012308D31292545
:100878008031FA30F3000030F40000308D31292542
:100888008031FA30F3000030F40019308D31292519
:100898008031EE30F3000230F40016308D31292516
:1008A8008031E230F3000430F40000308D31292526
:1008B800803108007C30F3000C30F40012308D31A8
:1008C80029258431CC30F3000230F40010308D310A
:1008D800292584315030F3000030F40000308D3188
:1008E80029258431CC30F3000230F4000E308D31EC
:1008F800292584315030F3000030F40000308D3168
:1009080029258431CC30F3000230F4000D308D31CC
:10091800292584315030F3000030F40000308D3147
:1009280029258431CC30F3000230F4000B308D31AE
:10093800292584315030F3000030F40000308D3127
:10094800292584315C30F3000930F40013308D31EF
:10095800292584318C30F3000130F40012308D31B8
:10096800292584318C30F3000130F40010308D31AA
:1009780029258431D230F3000A30F4000D308D314E
:1009880029258431A030F3000030F40000308D3187
:10099800292584317C30F3000C30F40012308D317D
:1009A80029258431F430F3000230F4000E308D3103
:1009B800292584312830F3000030F40000308D31CF
:1009C80029258431F430F3000230F40010308D31E1
:1009D800292584312830F3000030F40000308D31AF
:1009E80029258431F430F3000230F40012308D31BF
:1009F800292584312830F3000030F40000308D318F
:100A080029258431F430F3000230F40010308D31A0
:100A1800292584312830F3000030F40000308D316E
:100A280029258431EC30F3000530F40010308D3185
:100A3800292584315030F3000030F40000308D3126
:100A480029258431EC30F3000530F40013308D3162
:100A5800292584315030F3000030F40000308D3106
:100A680029258431D230F3000A30F40016308D3154
:100A780029258431A030F3000030F40000308D3196
:100A8800292584311430F3000630F4000E308D31FE
:100A9800292584312830F3000030F40000308D31EE
:100AA80029258431F430F3000230F4000D308D3103
:100AB800292584312830F3000030F40000308D31CE
:100AC80029258431CC30F3000230F4000B308D310D
:100AD800292584315030F3000030F40000308D3186
:100AE800292584313C30F3000630F4000D308D3177
:100AF80029258431EC30F3000530F40010308D31B5
:100B0800292584315030F3000030F40000308D3155
:100B180029258431EC30F3000530F40010308D3194
:100B2800292584315030F3000030F40000308D3135
:100B380029258431CC30F3000230F4000E308D3199
:100B4800292584315030F3000030F40000308D3115
:100B580029258431CC30F3000230F4000D308D317A
:100B6800292584315030F3000030F40000308D31F5
:100B7800292584313C30F3000630F4000E308D31E5
:100B880029258431EC30F3000530F40012308D3122
:100B9800292584315030F3000030F40000308D31C5
:100BA80029258431EC30F3000530F40012308D3102
:100BB800292584315030F3000030F40000308D31A5
:100BC80029258431CC30F3000230F40011308D3106
:100BD800292584315030F3000030F40000308D3185
:100BE80029258431CC30F3000230F4000F308D31E8
:100BF800292584315030F3000030F40000308D3165
:100C0800292584313C30F3000630F40011308D3151
:100C180029258431EC30F3000530F40014308D318F
:100C2800292584315030F3000030F40000308D3134
:100C380029258431EC30F3000530F40014308D316F
:100C4800292584315030F3000030F40000308D3114
:100C580029258431CC30F3000230F40012308D3174
:100C6800292584315030F3000030F40000308D31F4
:100C780029258431CC30F3000230F40011308D3155
:100C8800292584315030F3000030F40000308D31D4
:100C980029258431DC30F3000B30F40016308D3117
:100CA80029258431A030F3000030F40000308D3164
:100CB800292584317C30F3000C30F40012308D315A
:100CC80029258431CC30F3000230F40010308D3106
:100CD800292584315030F3000030F40000308D3184
:100CE80029258431CC30F3000230F4000E308D31E8
:100CF800292584315030F3000030F40000308D3164
:100D080029258431CC30F3000230F4000D308D31C8
:100D1800292584315030F3000030F40000308D3143
:100D280029258431CC30F3000230F4000B308D31AA
:100D3800292584315030F3000030F40000308D3123
:100D4800292584315C30F3000930F40013308D31EB
:100D5800292584318C30F3000130F40012308D31B4
:100D6800292584318C30F3000130F40010308D31A6
:100D780029258431D230F3000A30F4000D308D314A
:100D880029258431A030F3000030F40000308D3183
:100D9800292584317C30F3000C30F40012308D3179
:100DA80029258431F430F3000230F4000E308D31FF
:100DB800292584312830F3000030F40000308D31CB
:100DC80029258431F430F3000230F40010308D31DD
:100DD800292584312830F3000030F40000308D31AB
:100DE80029258431F430F3000230F40012308D31BB
:100DF800292584312830F3000030F40000308D318B
:100E080029258431F430F3000230F40010308D319C
:100E1800292584312830F3000030F40000308D316A
:100E280029258431EC30F3000530F40010308D3181
:100E3800292584315030F3000030F40000308D3122
:100E480029258431EC30F3000530F40013308D315E
:100E5800292584315030F3000030F40000308D3102
:100E6800292584317230F3000B30F40016308D31AF
:100E7800292584315030F3000030F40000308D31E2
:100E8800292584311430F3000630F40017308D31F1
:100E9800292584312830F3000030F40000308D31EA
:100EA80029258431DF30F3000030F40017308D310C
:100EB800292584312830F3000030F40000308D31CA
:100EC80029258431DF30F3000030F40017308D31EC
:100ED800292584312830F3000030F40000308D31AA
:100EE80029258431DF30F3000030F40017308D31CC
:100EF800292584312830F3000030F40000308D318A
:100F0800292584311430F3000630F40017308D3170
:100F1800292584312830F3000030F40000308D3169
:100F280029258431DF30F3000030F40017308D318B
:100F3800292584312830F3000030F40000308D3149
:100F480029258431DF30F3000030F40017308D316B
:100F5800292584312830F3000030F40000308D3129
:100F680029258431DF30F3000030F40017308D314B
:100F7800292584312830F3000030F40000308D3109
:100F880029258431DF30F3000030F40017308D312B
:100F9800292584312830F3000030F40000308D31E9
:100FA800292584313C30F3000630F40017308D31A8
:100FB80029258431D030F3000730F40000308D311A
:100FC800292584310800ED34E034D334C734BD34E6
:100FD800B234A8349E3496348D3485347D347634D6
:100FE80070346A3463345E34593454344F344B3477
:100FF800463442343F343B343834343432342F347A
:0E1008002C342A3427342534233421341F3469
:101A100072082000A1007108A00020082104031D05
:101A2000122D132D0D2D0800F400640023009518CD
:101A30001A2D1B2D152D7408F100F201710891006B
:101A4000720892003F30F3007308950515141308CF
:101A50000800F500750803192E2D2F2D3C2D2000B0
:101A6000A601A7017508E73E840087300318013EF0
:101A7000850000089B00432D01302000A6000030A7
:101A8000A700FF309B007408F2007308F1008D314D
:101A900008258D310800F40023009518502D512D94
:101AA0004C2D7408F200F301720891007308920043
:101AB000710893003F30F200720895052000031072
:101AC0008B1F632D642D652D03148B1323001515B7
:101AD00055309600AA309600951415112000031C6D
:101AE000722D732D742D8B17080023008C01FC3090
:101AF00021009905190887397038990099179114B0
:101B0000FF3020009B0003309C041C158B1688308E
:101B10002100950000308D3114258D312000AD005D
:101B20002D08FA0001308D3114258D312000AD00D3
:101B30002D08AC000B17210091120B128B170C14FF
:101B40008C100C118C110C1224000C1422000C109F
:101B50008C100C110C128C1201302000AA000030E5
:101B6000AB007A08031DB52DB62DBD2DF430F10064
:101B70000130F2008D3108258D3101302000AD009B
:101B80002D08FA0705307A02031CC72DC82DCA2D6F
:101B9000FA01FA0A7A08AD002D08F10000308D3103
:101BA0004B258D317A03031DD62DD72DD82DD72D5A
:101BB00002307A06031DDD2DDE2DEC2DD030F10034
:101BC0000730F2008D3108258D312000AA01AB01CC
:101BD000803175208D31EB2D03307A06031DF12DF8
:101BE000F22D002ED030F1000730F2008D310825A3
:101BF0008D312000AA01AB0184315E248D31FF2D8F
:101C000004307A06031D052E062E142ED030F10066
:101C10000730F2008D3108258D312000AA01AB017B
:101C20008E3117268D31132EAC2D80316228B030C5
:101C3000F3000130F4000B308D3129258E31B030A6
:101C4000F3000130F4000D308D3129258E3138300C
:101C5000F3000330F4000E308D3129258E312B3006
:101C6000F3000030F40000308D3129258E314E30E4
:101C7000F3000330F40012308D3129258E312B30E2
:101C8000F3000030F40000308D3129258E311630FC
:101C9000F3000530F40013308D3129258E31D73013
:101CA000F3000030F40012308D3129258E31D73009
:101CB000F3000030F40010308D3129258E31C93009
:101CC000F3000630F40012308D3129258E31633057
:101CD000F3000330F40000308D3129258E31B0300F
:101CE000F3000130F4000B308D3129258E31B030F6
:101CF000F3000130F4000D308D3129258E31633031
:101D0000F3000330F4000E308D3129258E3163301D
:101D1000F3000330F40012308D3129258E31383034
:101D2000F3000330F40017308D3129258E312B302C
:101D3000F3000030F40000308D3129258E31383029
:101D4000F3000330F40015308D3129258E312B300E
:101D5000F3000030F40000308D3129258E31C93078
:101D6000F3000630F40012308D3129258E316330B6
:101D7000F3000330F40000308D3129258E31B0306E
:101D8000F3000130F4000B308D3129258E31B03055
:101D9000F3000130F4000D308D3129258E31633090
:101DA000F3000330F4000E308D3129258E3163307D
:101DB000F3000330F40012308D3129258E311630B6
:101DC000F3000530F40013308D3129258E31D730E2
:101DD000F3000030F40012308D3129258E31D730D8
:101DE000F3000030F40010308D3129258E31C930D8
:101DF000F3000630F40012308D3129258E315E302B
:101E0000F3000230F40013308D3129258E312B3050
:101E1000F3000030F40000308D3129258E315E3022
:101E2000F3000230F40012308D3129258E312B3031
:101E3000F3000030F40000308D3129258E318530DB
:101E4000F3000130F40013308D3129258E312B3011
:101E5000F3000030F40000308D3129258E3116302A
:101E6000F3000530F40015308D3129258E31C53051
:101E7000F3000030F40012308D3129258E31D73037
:101E8000F3000030F40010308D3129258E3194306C
:101E9000F3000D30F40012308D3129258E3163307E
:101EA000F3000330F40000308D3129258E31B0303D
:101EB000F3000130F40014308D3129258E31B0301B
:101EC000F3000130F40016308D3129258E31633056
:101ED000F3000330F40017308D3129258E31633043
:101EE000F3000330F4001B308D3129258E3116307C
:101EF000F3000530F4001C308D3129258E31D730A8
:101F0000F3000030F4001B308D3129258E31D7309D
:101F1000F3000030F40019308D3129258E319D30C9
:101F2000F3000630F4001B308D3129258E312B3023
:101F3000F3000030F40000308D3129258E315E3001
:101F4000F3000230F4001C308D3129258E312B3006
:101F5000F3000030F40000308D3129258E315E30E1
:101F6000F3000230F4001B308D3129258E312B30E7
:101F7000F3000030F40000308D3129258E3185309A
:101F8000F3000130F4001C308D3129258E312B30C7
:101F9000F3000030F40000308D3129258E31EB3014
:101FA000F3000430F4001E308D3129258E312B30A2
:101FB000F3000030F40000308D3129258E31D73008
:101FC000F3000030F40020308D3129258E31D730D8
:101FD000F3000030F40022308D3129258E31943009
:101FE000F3000D30F40023308D3129258E31D030AF
:101FF000F3000730F40000308D3129258E310800C0
:020000040001F9
:04000E00A43FFF3FCD
:10E000000000000000000000000000000000000010
:00000001FF
