:0400000080316228C1
:100008007E1480312000911C0A280B2823282408FC
:100018002504031D1028112820280130A2060030CD
:10002800A3062208230403191A281B2822280130B2
:10003800A6060030A7062228A601A70191100B1DCD
:100048002628272860280F307C0203182C282D2802
:1000580032280130F0007008FC073D2828082904E0
:100068000319372838283C280130A8020030A93B5A
:10007800FC0126082704031D4228432849282A088A
:100088002B040319482849285C280130FB067B18F3
:100098004E28512822000C16532822000C127B1CD3
:1000A8005628592822008C145B2822008C105F28BF
:1000B80022000C128C100B117E100900803164286C
:1000C800FB01FC012000A001A101A201A301A401E0
:1000D800A501A601A7017E1020008231DD2AD830B3
:1000E800F3000030F4000B3083315A238031D830CC
:1000F800F3000030F4000D3083315A238031B130E1
:10010800F3000130F4000E3083315A238031BC30C3
:10011800F3000130F400123083315A2380318B30E0
:10012800F3000230F400133083315A2380316B30EE
:10013800F3000030F400123083315A2380316B30E1
:10014800F3000030F400103083315A2380316430DA
:10015800F3000330F400123083315A238031B13078
:10016800F3000130F400003083315A238031D83055
:10017800F3000030F4000B3083315A238031D8303B
:10018800F3000030F4000D3083315A238031B13050
:10019800F3000130F4000E3083315A238031B1303E
:1001A800F3000130F400123083315A238031B1302A
:1001B800F3000130F400173083315A238031B13015
:1001C800F3000130F400153083315A238031643054
:1001D800F3000330F400123083315A238031B130F8
:1001E800F3000130F400003083315A238031D830D5
:1001F800F3000030F4000B3083315A238031D830BB
:10020800F3000030F4000D3083315A238031B130CF
:10021800F3000130F4000E3083315A238031B130BD
:10022800F3000130F400123083315A2380318B30CF
:10023800F3000230F400133083315A2380316B30DD
:10024800F3000030F400123083315A2380316B30D0
:10025800F3000030F400103083315A2380316430C9
:10026800F3000330F400123083315A2380314530D3
:10027800F3000130F400133083315A2380314530C4
:10028800F3000130F400123083315A238031D83022
:10029800F3000030F400133083315A2380318B305F
:1002A800F3000230F400153083315A238031623074
:1002B800F3000030F400123083315A2380316B3060
:1002C800F3000030F400103083315A238031CA30F3
:1002D800F3000630F400103083315A238031B130F6
:1002E800F3000130F400003083315A238031D830D4
:1002F800F3000030F400143083315A238031D830B1
:10030800F3000030F400163083315A238031B130C5
:10031800F3000130F400173083315A238031B130B3
:10032800F3000130F4001B3083315A2380318B30C5
:10033800F3000230F4001C3083315A2380316B30D3
:10034800F3000030F4001B3083315A2380316B30C6
:10035800F3000030F400193083315A2380316430BF
:10036800F3000330F4001B3083315A2380314530C9
:10037800F3000130F4001C3083315A2380314530BA
:10038800F3000130F4001B3083315A238031D83018
:10039800F3000030F4001C3083315A2380318B3055
:1003A800F3000230F4001E3083315A2380316B3061
:1003B800F3000030F400203083315A2380316B3051
:1003C800F3000030F400223083315A238031CA30E0
:1003D800F3000630F400233083315A2380310800BB
:1003E8003E30F3000630F400123083315A23813155
:1003F8008E30F3000130F400103083315A238131FC
:100408008E30F3000130F4000E3083315A238131ED
:100418008E30F3000130F4000D3083315A238131DE
:100428008E30F3000130F4000B3083315A238131D0
:10043800C430F3000730F400133083315A2381317C
:10044800C630F3000030F400123083315A23813172
:10045800C630F3000030F400103083315A23813164
:10046800B930F3000530F4000D3083315A2381315F
:100478008530F3000030F400003083315A23813195
:100488003E30F3000630F400123083315A238131B4
:100498008E30F3000130F4000E3083315A2381315D
:1004A8008E30F3000130F400103083315A2381314B
:1004B8008E30F3000130F400123083315A23813139
:1004C8008E30F3000130F400103083315A2381312B
:1004D8001E30F3000330F400103083315A23813189
:1004E8001E30F3000330F400133083315A23813176
:1004F800B930F3000530F400163083315A238131C6
:100508008530F3000030F400003083315A23813104
:100518003E30F3000630F4000B3083315A2381312A
:100528008E30F3000130F4000B3083315A238131CF
:100538008E30F3000130F4000D3083315A238131BD
:100548008E30F3000130F4000E3083315A238131AC
:100558008E30F3000130F4000B3083315A2381319F
:100568001E30F3000330F400103083315A238131F8
:100578001E30F3000330F400133083315A238131E5
:100588001E30F3000330F400123083315A238131D6
:100598001E30F3000330F400163083315A238131C2
:1005A8003E30F3000630F400173083315A2381318E
:1005B800080023008C01FC302100990519088739AF
:1005C8007038990099179114ED3020009B00033082
:1005D8009C041C158B16883021009500003083314F
:1005E8007A2382312000AD002D08FA0001308331D2
:1005F8007A2382312000AD002D08AC000B172100B2
:1006080091120B128B170C148C100C118C110C12EC
:1006180024000C1422000C108C100C110C128C12DB
:1006280001302000AA000030AB00D030F1000730C4
:10063800F20083318F2382312000AA01AB0181317E
:10064800F42182312000AA01AB01D030F10007303B
:10065800F20083318F238231803173208231332B32
:1006680080316228ED34E034D334C734BD34B23439
:10067800A8349E3496348D3485347D347634703481
:100688006A3463345E34593454344F344B3446340A
:1006980042343F343B343834343432342F342C34FD
:1006A8002A3427342534233421341F34F5007508BF
:1006B80003195F2B602B6D2B2000A401A501750881
:1006C800363E840083300318013E850000089B00F5
:1006D800722B01302000A4000030A5007408F2003D
:1006E8007308F10083318F2383310800F40064001C
:1006F80023009518802B812B7B2B7408F100F201C5
:1007080071089100720892003F30F3007308950554
:1007180015141308080072082000A9007108A80021
:0E07280028082904031D992B9A2B942B0800F6
:020000040001F9
:04000E00A43FFF3FCD
:10E000000000000000000000000000000000000010
:00000001FF
