:0400000081315329CE
:100008007E1480314E018D1E0A280B280829FE30E7
:1000180044018D0012308C0040013E083F04031D4E
:10002800162817281D284008410403191C281D28D4
:100038003C282E082F040319222823283C282C08A2
:100048002D040319282829283C280130FC067C188F
:100058002E28312840011A16332840011A127C1C18
:100068003628392840019A163B2840019A123E2822
:100078001A129A12460803194228432847280F30B3
:10008800F0007008C5000F30450203184C284D28B1
:1000980052280130F0007008C507062946080319E0
:1000A800562857285A28B801B9016428380839044D
:1000B80003195F28602864280130B8020030B93B72
:1000C800C5010530440203186A286B2870280130DE
:1000D800F0007008C407F8282C082D04031D7528A3
:1000E8007628B8283608370403197B287C28B828CE
:1000F8004308031D80288128B8288C1D842885285A
:1001080090282808290403198A288B289D2801305B
:10011800A8020030A93B9D28003029026430031949
:1001280028020318982899289D280130A80700302C
:10013800A93D28082904031DA228A328A628AC0144
:10014800AD01B72800302902643003192802031CC6
:10015800AE28AF28B7280130AC000030AD006430BD
:10016800A8000030A900C4010C1CBB28BC28C72863
:10017800260827040319C128C228D4280130A6025A
:100188000030A73BD428003027020F30031926027D
:100198000318CF28D028D4280130A6070030A73D5F
:1001A80026082704031DD928DA28DD28AE01AF0167
:1001B800F828003027020F3003192602031CE5280F
:1001C800E628F8280130AE000030AF0036083704C2
:1001D800031DEF28F028F4280130B0000030B100EA
:1001E8000F30A6000030A7005D085B02031DFE2843
:1001F8005C085A0203180129022906290130DA0786
:100208000030DB3D4E018D128C1E0B290C2926294E
:1002180040015E085F04031D1229132922290130B9
:10022800BC060030BD063C083D0403191C291D29E5
:1002380024290130BE060030BF062429BE01BF01B3
:100248004E018C120C1E29292A2951297E013F1E94
:100258002E292F2940293F1240010C1A342935290B
:100268003E29B601B701B201B3010130AA0000303E
:10027800AB004029AA01AB017E013F1C4429452956
:1002880051293F1040010C184A294B2951290130A6
:10029800AE000030AF00B201B3017E100900813119
:1002A80055291D3084008F3085001200DA001200B5
:1002B800DB001200DC001200DD001200DE0012007C
:1002C800DF00FC01F901FA01FB0120308400003055
:1002D800850027308F31172781317E104001813109
:1002E80075297E013810B81038113812CE01400136
:1002F80012147E01391440019210121192157E01D8
:10030800B915400112167E013916400192161410D3
:1003180094101411941114129412981418151A1494
:100328009A141A159A111A129A1251011308F839C7
:100338000538930011174B011E12F0309E051F0857
:100348001F3940389F001F121F08F03906389F00D8
:100358009E17CF3044018E058E1001309100FE307B
:100368008D0012308C000E140130450190000E08EB
:100378008F3960388E008F178E174E019616971694
:1003880052010C08FC3901388C008C1740014608D2
:10039800031DCF29D029D22950011E1781305001C1
:1003A8009B0018309A001E1440014608031DDD29E1
:1003B800DE29E32950011E18E229E329DE2950012C
:1003C8001D084001A10050011C084001A00046087A
:1003D800031DEF29F029F22950011E1341011E08BF
:1003E8008F3960389E00FC309E051D080339783827
:1003F8009D009E1740014608031D032A042A062A69
:1004080041011D147E013E143E163D164E01161084
:100418000B1716168B1740014608031D142A152AB8
:10042800192AC830DC00AF30DD005D08DB005C084D
:10043800DA001A116430F1000030F2008F312327FE
:10044800813140011A156430F1000030F2008F311B
:100458002327813140011A116430F1000030F20085
:100468008F312327813140011A156430F1000030A3
:10047800F2008F312327813140011A116430F100D5
:100488000030F2008F312327813140011A154001D5
:10049800C001C1012E082F04031D532A542A5E2AC5
:1004A800B401B501B601B701C001C101AC01AD018C
:1004B8009A111A152E082F04031D632A642A842A08
:1004C8005D085B02031D6A2A5C085A02031C6D2A38
:1004D8006E2A842A36083704031D732A742A842A4C
:1004E80030083104031D792A7A2A842A2A082B0421
:1004F800031D7F2A802A842A0130B2000030B3000D
:100508002E082F040319892A8A2AAC2A30083104B4
:1005180003198F2A902AAC2A5D085B02031D962ACC
:100528005C085A02031C992A9A2AAC2A2A082B0426
:10053800031D9F2AA02AAC2A0130B6000030B7005C
:100548000130B4000030B500B001B101C301C30AE5
:100558005D085B02031DB22A5C085A02031CB52A17
:10056800B62AC42A360837040319BB2ABC2AC42A67
:1005780043080319C02AC12AC42A8F319927813117
:10058800400134083504031DCA2ACB2AD12A2A0877
:100598002B040319D02AD12AD42A85316825813120
:1005A8004001360837040319DA2ADB2AED2A5D08E8
:1005B8005B02031DE12A5C085A02031CE42AE52AAF
:1005C800ED2A2A082B04031DEA2AEB2AED2A9A159C
:1005D8001A11360837040319F22AF32A052B5D0885
:1005E8005B02031DF92A5C085A020318FC2AFD2A3B
:1005F800052B4308031D012B022B052B8631DC2616
:10060800813140012E082F0403190B2B0C2B252BAD
:100618002C082D040319112B122B252B5D085B02C6
:10062800031D182B5C085A02031C1B2B1C2B252BA3
:100638002A082B04031D212B222B252B833132233F
:10064800813140013208330403192B2B2C2B4B2A00
:100658008F31342781314B2A81315329FF304B01A7
:100668009D0040012C082D0403193B2B3C2B502BDB
:100678002E082F040319412B422B502B5D085B02D7
:10068800031D482B5C085A02031C4B2B4C2B502B88
:100698000130C0000030C1000130F5007508FB07CB
:1006A80004307B02031C592B5A2B5A2CFB01FB0AE2
:1006B8005A2C981018151A149A14A030B8000F3034
:1006C800B9003808390403196A2B6B2B6D2C2E08D6
:1006D8002F040319702B712B6D2C2C082D04031972
:1006E800762B772B6D2C5D085B02031D7D2B5C0838
:1006F8005A020318802B812B652B6D2C9814181126
:100708001A149A14E830B8000330B90038083904CC
:1007180003198F2B902BA62B2E082F040319952B2A
:10072800962BA62B2C082D0403199B2B9C2BA62B50
:100738005D085B02031DA22B5C085A020318A52B57
:10074800A62B8A2BC001C101F901FA01D22B7A0824
:100758008500790884008435850D8435850D7430CD
:1007680084078430853D003FF100013FF2007A089C
:100778008500790884008435850D8435850D7630AB
:1007880084078430853D003FF300013FF4008F313A
:10079800622783310130F9070030FA3D00307A02D0
:1007A800F430031979020318DA2BDB2BF22B400102
:1007B8002C082D040319E12BE22BF22B2E082F0411
:1007C8000319E72BE82BF22B5D085B02031DEE2BC8
:1007D8005C085A020318F12BF22BAB2B4001C00125
:1007E800C101DA01DB016D2C981418151A109A143E
:1007F800E830B8000330B900380839040319052C6B
:10080800062C122C2E082F0403190B2C0C2C122C3E
:100818002C082D04031D112C122C002CC001C10121
:10082800F901FA013E2C7A0885007908840084359C
:10083800850D8435850D6B3084078730853D003FF5
:10084800F100013FF2007A088500790884008435B8
:10085800850D8435850D6D3084078730853D003FD3
:10086800F300013FF4008F31622783310130F9072B
:100878000030FA3D00307A028C30031979020318EF
:10088800462C472CF22B40012C082D0403194D2C23
:100898004E2CF22B2E082F04031D532C542C172CEE
:1008A800F22BDA01DB01C001C1016D2C7B08F500D8
:1008B800F6017608003A0319622C552C7508013A9E
:1008C80003195D2B033A0319822B013A0319F82BFC
:1008D800552CAC01AD01981418151A149A14080077
:1008E8000B340034D83400340D340034D834003498
:1008F8000E3400349C340134003400341534003490
:1009080012340034A7340134003400341534003470
:10091800133400348B340234123400346B34003412
:10092800103400346B34003412340034643403342B
:1009380000340034B13401340B340034D83400347A
:100948000D340034D83400340E340034B13401345A
:1009580012340034B1340134173400349C34013477
:100968000034003415340034153400349C34013418
:100978000034003415340034123400346434033441
:1009880000340034B13401340B340034D83400342A
:100998000D340034D83400340E340034B13401340A
:1009A80012340034B1340134133400348B3402343B
:1009B800123400346B340034103400346B34003497
:1009C8001234003464340334133400342F340134C3
:1009D8000034003415340034123400342F34013418
:1009E800003400341534003413340034C234003475
:1009F8000034003415340034153400348B34023498
:100A08001234003462340034103400346B3400344F
:100A180012340034CA34063400340034B13401349A
:100A280014340034D834003416340034D834003444
:100A380017340034B13401341B340034B134013478
:100A48001C3400348B3402341B3400346B340034CF
:100A5800193400346B3400341B3400344E340334FE
:100A680000340034153400341C3400342F3401347D
:100A780000340034153400341B3400342F3401346E
:100A880000340034153400341C340034C2340034CB
:100A980000340034153400341E3400347534023404
:100AA8000034003415340034203400346B340034FE
:100AB800223400346B34003423340034CA3406340E
:100AC800003400341434003440014608031D6D2DF1
:100AD8006E2D702D41011D1440012A082B040319A5
:100AE800762D772D782D1A1541019D144001460861
:100AF800031D7F2D802D852D41019D18842D852D69
:100B0800802D41011C084001A30041011B08400140
:100B1800A2004608031D912D922DD12D2208F10027
:100B28002308F200F301F4012008CE002108CF00C9
:100B3800D001D1010A30CE35CF0DD00DD10D890BA2
:100B48009F2D5108F8005008F7004F08F6004E088E
:100B5800F50086314C26853174084001D5007308AC
:100B6800D4007208D3007108D2000030F4000030BD
:100B7800F3000030F2000A30F1005508F80054087C
:100B8800F7005308F6005208F50086314C268531E7
:100B980072084001A5007108A40001302502A030A8
:100BA80003192402031CD92DDA2DDF2D98101811F2
:100BB8001A109A103A2E013025028F300319240298
:100BC800031CE72DE82DFA2D981018111A102A0881
:100BD8002B040319F02DF12D3A2E42080319F52D97
:100BE800F62DF82D9A103A2E9A143A2E0130250235
:100BF800813003192402031C022E032E142E981090
:100C080018112A082B0403190A2E0B2EF82D420856
:100C180003190F2E102E122E1A10F82D1A14F82D53
:100C280001302502783003192402031C1C2E1D2EC6
:100C38002F2E98102A082B040319232E242E2C2E2D
:100C480042080319282E292E2B2E18112C2E181580
:100C58001A149A143A2E42080319332E342E362EBB
:100C68009810372E981418151A149A142A082B0459
:100C780003193F2E402E4B2E0130CE004E08C206DF
:100C8800F430F1000130F2008F312327853108005C
:100C98004001C901F41F512E522E5F2EF109F209AD
:100CA800F309F409F10A0319F20A0319F30A0319FB
:100CB800F40AC901C90AF81F622E632E722EF509BB
:100CC800F609F709F809F50A0319F60A0319F70AE4
:100CD8000319F80A0130C7004708C9060030CD00DB
:100CE8000030CC000030CB000030CA007408730418
:100CF800720471040319812E822EC32EC801C80AFA
:100D0800902E0130F135F20DF30DF40D890B862E7E
:100D18000130C7004708C807F41F932E942E852E6C
:100D28000130CA35CB0DCC0DCD0D890B952E74082D
:100D38007802031DA92E73087702031DA92E7208D5
:100D48007602031DA92E71087502031CAC2EAD2E68
:100D5800B62E7108F5027208F63B7308F73B740863
:100D6800F83B4A140130F436F30CF20CF10C890B01
:100D7800B72E0130C802031DC22EC32E942E490877
:100D88000319C72EC82ED32ECA09CB09CC09CD0901
:100D9800CA0A0319CB0A0319CC0A0319CD0A4D084C
:100DA800F4004C08F3004B08F2004A08F100080070
:100DB8004601961703307E01A200033091000330EC
:100DC80092000330A0000330A100532FC030F90077
:100DD800FF30FA000130B8000030B9003808390493
:100DE8000319F72EF82EFE2E2E082F04031DFD2EB4
:100DF800FE2EF22E7A0846019500790894007908AB
:100E0800C03EF900FF307A3DFA0000307A024130E6
:100E180003197902031C112F122F192F40012E08D4
:100E28002F04031D182F192FEE2E40012E082F0412
:100E380003191F2F202F272FF430F1000130F20063
:100E48008F312327863101304001B8000030B900C6
:100E5800380839040319312F322F382F2E082F0460
:100E6800031D372F382F2C2F7A0846019500790853
:100E780094007908403EF90000307A3DFA00FF30CE
:100E88007A02C0300319790203184B2F4C2F532FC5
:100E980040012E082F04031D522F532F272F4001E6
:100EA8005D085B02031D5A2F5C085A0203185D2F68
:100EB8005E2F642F2E082F04031D632F642FEA2E44
:100EC8007E01A20191019201A001A10108001E3436
:100ED80000343E3406341A3400347A340134003491
:100EE8000034143400341C3400347A3401340034AF
:100EF8000034143400341E3400347A34013400349D
:100F08000034143400341C3400347A34013400348E
:100F18000034143400341C340034F6340234003401
:100F28000034283400341F340034F63402340034DA
:100F380000342834003422340034B9340534003401
:100F4800003428340034233400340A3403340034A1
:100F5800003414340034233400346F340034003443
:100F6800003414340034233400346F340034003433
:100F7800003414340034233400346F340034003423
:100F8800003414340034233400340A340334003475
:100F9800003414340034233400346F340034003403
:100FA800003414340034233400346F3400340034F3
:100FB800003414340034233400346F3400340034E3
:100FC800003414340034233400346F3400340034D3
:100FD800003414340034233400341E340334003411
:100FE800003414340034ED34E034D334C734BD3421
:100FF800B234A8349E3496348D3485347D347634B6
:1010080070346A3463345E34593454344F344B3456
:10101800463442343F343B343834343432342F3459
:0E1028002C342A3427342534233421341F3449
:101E2E00640080010131890B182F0034E83403342B
:101E3E00E83403340134003472084001B9007108EB
:101E4E00B8004608031D2C2F2D2F332F38083904C8
:101E5E00031D322F332F2D2F08004001C001C10169
:101E6E009A111A116430F1000030F2008F312327DD
:101E7E008F3140011A156430F1000030F2008F31BD
:101E8E0023278F3140011A116430F1000030F20027
:101E9E008F3123278F3140011A15981418151A14F3
:101EAE009A141A154608031D5D2F5E2F602F4101EF
:101EBE001D1063000800710872040319672F682F44
:101ECE00772F4001DE01DF01720885007108840062
:101EDE00F73084078730853D00084B019D007C2F2D
:101EEE0001304001DE000030DF0074084001B9000F
:101EFE007308B8004608031D852F862F982F3808C3
:101F0E00390403198B2F8C2F982F2E082F040319A9
:101F1E00912F922F982F2C082D04031D972F982F59
:101F2E00862F080040014303031D9E2F9F2FD02FA5
:101F3E004601961703307E01A20003309100033054
:101F4E0092000330A0000330A100C030F900FF3032
:101F5E00FA0001304001B8000030B90038083904E9
:101F6E00031DBA2FBB2FB52F7A08460195007908AD
:101F7E0094007908C03EF900FF307A3DFA00003037
:101F8E007A024130031979020318CE2FCF2FB02FCA
:101F9E00F72F02304306031DD52FD62FD72FF72F3D
:101FAE0003304306031DDC2FDD2FF72F46018E175E
:101FBE000E160E08F0390C388E00921712161208F3
:101FCE00F0390C38920096179A1701307E01A20054
:101FDE0001309100023092000330A0000430A100C5
:101FEE007E01A20191019201A001A1014001C30154
:021FFE000800D9
:020000040001F9
:04000E00CF3F263F7B
:04001400FF1FFF3F8C
:00000001FF
