:040000008031D12852
:100008007E1480314E010C1E0A280B2872284B01E1
:100018009E1745018E177E01BF1E13281428262817
:10002800BF1240018C1E19281A28222800308C3152
:100038005D2480318E3135268031262801308C317F
:100048005D2480317E013F1C2A282B2849283F1037
:1000580040010C18302831283C288C1A34283528BF
:100068003C281A118E313526803140019A156300DB
:1000780040010C1C4028412849288C1A442845284E
:10008800492801308C315D2480317E01BF1D4D2807
:100098004E287228BF1140018C19532854285F2814
:1000A8000C18572858285F288C1A5B285C285F286A
:1000B8008D31C225803140018C1D63286428722847
:1000C8008C1A6728682872287E01BF114001D10167
:1000D800D201981418151A149A1463004E010D1FB2
:1000E80076287728912840014D084E04031D7D2865
:1000F8007E288D280130CB060030CC064B084C04F6
:100108000319872888288F280130CF060030D006A9
:100118008F28CF01D0014E010D138C1E94289528ED
:10012800CF280F304001560203189B289C28A1288D
:100138000130B1003108D607AC285B085C0403190C
:10014800A628A728AB280130DB020030DC3BD6010B
:100158004F085004031DB128B228B828510852048A
:100168000319B728B828CB280130DD065D18BD284B
:10017800C02840011A16C22840011A125D1CC52861
:10018800C82840019A16CA2840019A12CD281A1286
:100198009A124E018C127E1009008031D32840013A
:1001A800DD01453084000030850012308C313F2459
:1001B80080317E10400187313B2FFA30F200003049
:1001C800F3000A308C3173248031EE30F2000230B3
:1001D800F30000308C3173248031FA30F2000030A3
:1001E800F3000A308C3173248031EE30F200023093
:1001F800F30000308C3173248031FA30F200003083
:10020800F3000A308C3173248031EE30F200023072
:10021800F30000308C3173248031FA30F200003062
:10022800F3000A308C31732480314B30F2000030F7
:10023800F30000308C31732480317D30F2000030BF
:10024800F3000D308C31732480316430F2000030BB
:10025800F30000308C31732480317D30F20000309F
:10026800F3000D308C31732480316430F20000309B
:10027800F30000308C31732480317D30F20000307F
:10028800F3000D308C31732480316430F20000307B
:10029800F30000308C3173248031FA30F2000030E2
:1002A800F3000A308C3173248031EE30F2000230D2
:1002B800F30000308C3173248031FA30F2000030C2
:1002C800F3000A308C3173248031EE30F2000230B2
:1002D800F30000308C3173248031FA30F2000030A2
:1002E800F3000A308C3173248031EE30F200023092
:1002F800F30000308C3173248031FA30F200003082
:10030800F3000A308C31732480314B30F200003016
:10031800F30000308C31732480317D30F2000030DE
:10032800F3000D308C31732480316430F2000030DA
:10033800F30000308C31732480317D30F2000030BE
:10034800F3000D308C31732480316430F2000030BA
:10035800F30000308C31732480317D30F20000309E
:10036800F3000D308C31732480316430F20000309A
:10037800F30000308C3173248031FA30F200003001
:10038800F3000A308C3173248031EE30F2000230F1
:10039800F30000308C3173248031FA30F2000030E1
:1003A800F3000A308C3173248031EE30F2000230D1
:1003B800F30000308C3173248031FA30F2000030C1
:1003C800F3000A308C3173248031EE30F2000230B1
:1003D800F30000308C3173248031FA30F2000030A1
:1003E800F3000A308C31732480314B30F200003036
:1003F800F30000308C31732480317D30F2000030FE
:10040800F3000D308C31732480316430F2000030F9
:10041800F30000308C31732480317D30F2000030DD
:10042800F3000D308C31732480316430F2000030D9
:10043800F30000308C31732480317D30F2000030BD
:10044800F3000D308C31732480316430F2000030B9
:10045800F30000308C3173248031FA30F200003020
:10046800F3000A308C3173248031EE30F200023010
:10047800F30000308C3173248031FA30F200003000
:10048800F3000A308C3173248031EE30F2000230F0
:10049800F30000308C3173248031FA30F2000030E0
:1004A800F3000A308C3173248031EE30F2000230D0
:1004B800F30000308C3173248031FA30F2000030C0
:1004C800F3000A308C31732480314B30F200003055
:1004D800F30000308C31732480317D30F20000301D
:1004E800F30009308C31732480316430F20000301D
:1004F800F30000308C31732480317D30F2000030FD
:10050800F30009308C31732480316430F2000030FC
:10051800F30000308C31732480317D30F2000030DC
:10052800F30009308C31732480316430F2000030DC
:10053800F30000308C3173248031F430F200013044
:10054800F30016308C3173248031F430F20001301E
:10055800F30000308C3173248031F430F200013024
:10056800F30016308C3173248031F430F2000130FE
:10057800F30000308C3173248031F430F200013004
:10058800F30016308C3173248031F430F2000130DE
:10059800F30000308C3173248031F430F2000130E4
:1005A800F30012308C3173248031FA30F2000030BD
:1005B800F30000308C3173248031FA30F2000030BF
:1005C800F30019308C3173248031F430F20001309B
:1005D800F30016308C3173248031F430F20001308E
:1005E800F30000308C3173248031F430F200013094
:1005F800F30012308C3173248031FA30F20000306D
:10060800F30000308C3173248031FA30F20000306E
:10061800F30019308C3173248031EE30F20002304F
:10062800F30016308C3173248031E230F20004304C
:10063800F30000308C3173248031F430F200013043
:10064800F3001D308C3173248031F430F200013016
:10065800F30000308C3173248031F430F200013023
:10066800F3001D308C3173248031F430F2000130F6
:10067800F30000308C3173248031F430F200013003
:10068800F3001D308C3173248031F430F2000130D6
:10069800F30000308C3173248031F430F2000130E3
:1006A800F3001E308C3173248031FA30F2000030B0
:1006B800F30000308C3173248031FA30F2000030BE
:1006C800F30019308C3173248031F430F20001309A
:1006D800F30015308C3173248031F430F20001308E
:1006E800F30000308C3173248031F430F200013093
:1006F800F30012308C3173248031FA30F20000306C
:10070800F30000308C3173248031FA30F20000306D
:10071800F30019308C3173248031EE30F20002304E
:10072800F30016308C3173248031E830F200033046
:10073800F30000308C3173248031F430F200013042
:10074800F30022308C3173248031F430F200013010
:10075800F30000308C3173248031F430F200013022
:10076800F30016308C3173248031FA30F2000030F7
:10077800F30000308C3173248031FA30F2000030FD
:10078800F30016308C3173248031F430F2000130DC
:10079800F30022308C3173248031F430F2000130C0
:1007A800F30000308C3173248031F430F2000130D2
:1007B800F30021308C3173248031FA30F20000309C
:1007C800F30000308C3173248031FA30F2000030AD
:1007D800F30020308C3173248031FA30F20000307D
:1007E800F3001F308C3173248031FA30F20000306E
:1007F800F3001E308C3173248031F430F200013064
:10080800F3001F308C3173248031F430F200013052
:10081800F30000308C3173248031F430F200013061
:10082800F3001A308C3173248031EE30F20002303C
:10083800F3001E308C3173248031FA30F20000301E
:10084800F30000308C3173248031F430F200013031
:10085800F3001D308C3173248031FA30F2000030FF
:10086800F30000308C3173248031FA30F20000300C
:10087800F3001C308C3173248031FA30F2000030E0
:10088800F3001B308C3173248031FA30F2000030D1
:10089800F3001A308C3173248031F430F2000130C7
:1008A800F3001B308C3173248031F430F2000130B6
:1008B800F30000308C3173248031F430F2000130C1
:1008C800F30016308C3173248031F430F20001309B
:1008D800F30019308C3173248031F430F200013088
:1008E800F30000308C3173248031F430F200013091
:1008F800F30012308C3173248031FA30F20000306A
:10090800F30000308C3173248031FA30F20000306B
:10091800F30019308C3173248031F430F200013047
:10092800F30016308C3173248031F430F20001303A
:10093800F30000308C3173248031F430F200013040
:10094800F30012308C3173248031FA30F200003019
:10095800F30000308C3173248031FA30F20000301B
:10096800F30019308C3173248031EE30F2000230FC
:10097800F30016308C3173248031E230F2000430F9
:10098800F30000308C31732480310800D830F20035
:100998000030F3000B308C3173248431D830F200EE
:1009A8000030F3000D308C3173248431B130F20003
:1009B8000130F3000E308C3173248431BC30F200E6
:1009C8000130F30012308C31732484318B30F20003
:1009D8000230F30013308C31732484316B30F20011
:1009E8000030F30012308C31732484316B30F20004
:1009F8000030F30010308C31732484316430F200FD
:100A08000330F30012308C3173248431B130F2009A
:100A18000130F30000308C3173248431D830F20077
:100A28000030F3000B308C3173248431D830F2005D
:100A38000030F3000D308C3173248431B130F20072
:100A48000130F3000E308C3173248431B130F20060
:100A58000130F30012308C3173248431B130F2004C
:100A68000130F30017308C3173248431B130F20037
:100A78000130F30015308C31732484316430F20076
:100A88000330F30012308C3173248431B130F2001A
:100A98000130F30000308C3173248431D830F200F7
:100AA8000030F3000B308C3173248431D830F200DD
:100AB8000030F3000D308C3173248431B130F200F2
:100AC8000130F3000E308C3173248431B130F200E0
:100AD8000130F30012308C31732484318B30F200F2
:100AE8000230F30013308C31732484316B30F20000
:100AF8000030F30012308C31732484316B30F200F3
:100B08000030F30010308C31732484316430F200EB
:100B18000330F30012308C31732484314530F200F5
:100B28000130F30013308C31732484314530F200E6
:100B38000130F30012308C3173248431D830F20044
:100B48000030F30013308C31732484318B30F20081
:100B58000230F30015308C31732484316230F20096
:100B68000030F30012308C31732484316B30F20082
:100B78000030F30010308C3173248431CA30F20015
:100B88000630F30010308C3173248431B130F20018
:100B98000130F30000308C3173248431D830F200F6
:100BA8000030F30014308C3173248431D830F200D3
:100BB8000030F30016308C3173248431B130F200E8
:100BC8000130F30017308C3173248431B130F200D6
:100BD8000130F3001B308C31732484318B30F200E8
:100BE8000230F3001C308C31732484316B30F200F6
:100BF8000030F3001B308C31732484316B30F200E9
:100C08000030F30019308C31732484316430F200E1
:100C18000330F3001B308C31732484314530F200EB
:100C28000130F3001C308C31732484314530F200DC
:100C38000130F3001B308C3173248431D830F2003A
:100C48000030F3001C308C31732484318B30F20077
:100C58000230F3001E308C31732484316B30F20083
:100C68000030F30020308C31732484316B30F20073
:100C78000030F30022308C3173248431CA30F20002
:100C88000630F30023308C3173248431080041018D
:100C98001D14003040018C1A0130D30041019D140D
:100CA8009D18572E582E542E1C084001C60041018D
:100CB8001B084001C50045084101A0004001460845
:100CC8004101A100A201A30140015A08B500590839
:100CD800B4005808B3005708B2000030B90000301B
:100CE800B8000430B700B430B6008C31C724863160
:100CF800400135084101A700400134084101A60020
:100D0800400133084101A500400132084101A40017
:100D18008D315625863141012308AB002208AA00EF
:100D28002108A9002008A8000030A3000030A20074
:100D38000030A1000A30A0002B08A7002A08A6004E
:100D48002908A5002808A4008D31562586314101BF
:100D580021084001C800410120084001C7000130B6
:100D68004802A03003194702031CBB2EBC2EC72E15
:100D7800981018111A109A1053080319C42EC52E6A
:100D88001F2F63001F2F013048028F3003194702BD
:100D9800031CCF2ED02EE12E981018111A105308CC
:100DA8000319D72ED82E1F2F54080319DC2EDD2E39
:100DB800DF2E9A101F2F9A141F2F013048028130FE
:100DC80003194702031CE92EEA2EFA2E981018116F
:100DD80053080319F02EF12EDF2E54080319F52EAF
:100DE800F62EF82E1A10DF2E1A14DF2E01304802C4
:100DF800783003194702031C022F032F142F981071
:100E080053080319082F092F112F540803190D2F00
:100E18000E2F102F1811112F18151A149A141F2F8E
:100E280054080319182F192F1B2F98101C2F9814CA
:100E380018151A149A1401304001C4004408D40645
:100E480053080319282F292F352FE830B200033013
:100E5800B3008C3151248631003040018C1A0130A6
:100E6800D3005308031D392F3A2F522E0800400192
:100E780012147E01391440019210121192151216A3
:100E880092161410941014119411141294129814A8
:100E980018151A149A141A159A151A129A127E010C
:100EA8003810B81038113816B812CE015101101781
:100EB8001308F839053893004B011E12F0309E05CF
:100EC8001F081F3940389F009E171E3045018D00AE
:100ED8000130900070308E048E174E019616171749
:100EE80052010C08FC3901388C008C1750011E1770
:100EF80081309B0018309A001E141A084001D70050
:100F080050011B084001D800D901DA0150011E1315
:100F180041011E088F3910389E00FC309E051D08BF
:100F2800033978389D009E179F011D147E013E14D9
:100F38003D14BE15BD15BE16BD164E0116100B1775
:100F480016168B1740011A11F430B2000130B300A5
:100F58008C315124873140011A15F430B200013028
:100F6800B3008C315124873140011A11F430B2009A
:100F78000130B3008C315124873140011A15F43007
:100F8800B2000130B3008C315124873140011A116D
:100F9800F430B2000130B3008C3151248731400164
:100FA8001A158C1ED82FD92FDD2F86314B26873165
:100FB800DE2F6300DE2F8031D128ED34E034D334C6
:100FC800C734BD34B234A8349E3496348D34853455
:100FD8007D34763470346A3463345E34593454342E
:100FE8004F344B34463442343F343B343834343451
:100FF80032342F342C342A34273425342334213402
:021008001F3493
:10187E00640080010131890B402C00347108400155
:10188E00DC007008DB005B085C04031D4F2C502C41
:10189E004A2C080040013308DC003208DB005B08EC
:1018AE005C04031D5B2C5C2C562C0800F0004001E0
:1018BE00D101D2017E01BF01D50141011D104001B0
:1018CE00981418151A149A141A1570080319702CF6
:1018DE00712C722C63000800F40074080319782C24
:1018EE00792C872C4001CD01CE017408E13E840095
:1018FE0087300318013E8500000845018D008C2CB1
:10190E0001304001CD000030CE007308F1007208A6
:10191E00F0008C3145248C3108000030FB00003083
:10192E00FA000030F9000030F800701C9F2CA02C3B
:10193E00A82C7408F8077508F93D7608FA3D770863
:10194E00FB3D0130F435F50DF60DF70D890BA92C85
:10195E000130F336F20CF10CF00C890BB02C73083D
:10196E00720471047004031DBD2CBE2C9C2C7B08CC
:10197E00F3007A08F2007908F1007808F000080008
:10198E0000304001BD000030BC000030BB00003014
:10199E00BA00321CD32CD42CDC2C3608BA073708EC
:1019AE00BB3D3808BC3D3908BD3D0130B635B70DDD
:1019BE00B80DB90D890BDD2C0130B536B40CB30C56
:1019CE00B20C890BE42C3508340433043204031DA5
:1019DE00F12CF22CD02C3D08B5003C08B4003B088D
:1019EE00B3003A08B200080000304001AB000030EE
:1019FE00AA000030A9000030A80023082204210408
:101A0E00200403190B2D0C2D4D2DAC01AC0A1A2DF3
:101A1E000130A035A10DA20DA30D890B102D0130A3
:101A2E00FC007C08AC07A31F1D2D1E2D0F2D0130B1
:101A3E00A835A90DAA0DAB0D890B1F2D2308270262
:101A4E00031D332D22082602031D332D21082502E6
:101A5E00031D332D20082402031C362D372D402D57
:101A6E002008A4022108A53B2208A63B2308A73B79
:101A7E0028140130A336A20CA10CA00C890B412D09
:101A8E000130AC02031D4C2D4D2D1E2D2B08A30035
:101A9E002A08A2002908A1002808A000080000308A
:101AAE004001C2000030C1000030C0000030BF0055
:101ABE00410123082204210420040319672D682DF7
:101ACE00B12D4001C301C30A782D0130A035A10DFF
:101ADE00A20DA30D890B6D2D01304001BE003E08F5
:101AEE00C3074101A31F7C2D7D2D6C2D01304001BC
:101AFE00BF35C00DC10DC20D890B7E2D41012308CE
:101B0E002702031D942D22082602031D942D210861
:101B1E002502031D942D20082402031C972D982DB9
:101B2E00A22D2008A4022108A53B2208A63B2308CB
:101B3E00A73B40013F1401304101A336A20CA10C7A
:101B4E00A00C890BA32D01304001C302031DB02D43
:101B5E00B12D7D2D400142084101A30040014108F5
:101B6E004101A200400140084101A10040013F088F
:101B7E004101A000080001304001D1000030D20028
:101B8E000130F5007508D507112E981018151A1486
:101B9E009A140130F0000030F1008C3145248D3163
:101BAE00272E981418111A149A14D030F0000730FA
:101BBE00F1008C3145248D314001D101D2018031AB
:101BCE00E1208D314001D101D201272E9814181534
:101BDE001A109A14D030F0000730F1008C314524E1
:101BEE008D314001D101D2018F3117278D31E92D71
:101BFE00981418151A149A10D030F0000730F1000E
:101C0E008C3145248D314001D101D2018431CA2459
:101C1E008D31E92D5508F500F6017608003A0319C5
:101C2E00192E272E7508013A0319CC2D033A0319E4
:101C3E00D82D013A0319ED2D073A0319FF2D272E42
:101C4E00053040015502031C2D2E2E2E2F2ED501B0
:101C5E00981418151A149A146300080041011D14E3
:101C6E00003040018C1A0130D30041019D149D18A3
:101C7E00412E422E3E2E1C084001C60041011B087B
:101C8E004001C5004508A0004608A100A201A3011D
:101C9E005A08F3005908F2005808F1005708F000EE
:101CAE000030F7000030F6000430F500B430F400D8
:101CBE008C3194248E3173084001A7007208A6005F
:101CCE007108A5007008A4008C31FB248E314001F0
:101CDE002308B0002208AF002108AE002008AD0096
:101CEE000030A3000030A2000030A1000A30A00096
:101CFE003008A7002F08A6002E08A5002D08A40066
:101D0E008C31FB248E3140012108C8002008C70009
:101D1E0001304802A03003194702031C972E982E5B
:101D2E00A32E981018111A109A1053080319A02EEA
:101D3E00A12EFB2E6300FB2E013048028F300319BB
:101D4E004702031CAB2EAC2EBD2E981018111A1084
:101D5E0053080319B32EB42EFB2E54080319B82EB4
:101D6E00B92EBB2E9A10FB2E9A14FB2E0130480270
:101D7E00813003194702031CC52EC62ED62E98108D
:101D8E00181153080319CC2ECD2EBB2E540803194F
:101D9E00D12ED22ED42E1A10BB2E1A14BB2E0130D9
:101DAE004802783003194702031CDE2EDF2EF02E78
:101DBE00981053080319E42EE52EED2E540803193E
:101DCE00E92EEA2EEC2E1811ED2E18151A149A146F
:101DDE00FB2E54080319F42EF52EF72E9810F82E1C
:101DEE00981418151A149A140130FD007D0840013C
:101DFE00D40653080319042F052F112FE830F000D5
:101E0E000330F1008C3145248E31003040018C1AA4
:101E1E000130D3005308031D152F162F3C2E08003A
:101E2E003E30F2000630F30012308C3173248F31C5
:101E3E008E30F2000130F30010308C3173248F316C
:101E4E008E30F2000130F3000E308C3173248F315E
:101E5E008E30F2000130F3000D308C3173248F314F
:101E6E008E30F2000130F3000B308C3173248F3141
:101E7E00C430F2000730F30013308C3173248F31ED
:101E8E00C630F2000030F30012308C3173248F31E3
:101E9E00C630F2000030F30010308C3173248F31D5
:101EAE00B930F2000530F3000D308C3173248F31D0
:101EBE008530F2000030F30000308C3173248F3106
:101ECE003E30F2000630F30012308C3173248F3125
:101EDE008E30F2000130F3000E308C3173248F31CE
:101EEE008E30F2000130F30010308C3173248F31BC
:101EFE008E30F2000130F30012308C3173248F31AA
:101F0E008E30F2000130F30010308C3173248F319B
:101F1E001E30F2000330F30010308C3173248F31F9
:101F2E001E30F2000330F30013308C3173248F31E6
:101F3E00B930F2000530F30016308C3173248F3136
:101F4E008530F2000030F30000308C3173248F3175
:101F5E003E30F2000630F3000B308C3173248F319B
:101F6E008E30F2000130F3000B308C3173248F3140
:101F7E008E30F2000130F3000D308C3173248F312E
:101F8E008E30F2000130F3000E308C3173248F311D
:101F9E008E30F2000130F3000B308C3173248F3110
:101FAE001E30F2000330F30010308C3173248F3169
:101FBE001E30F2000330F30013308C3173248F3156
:101FCE001E30F2000330F30012308C3173248F3147
:101FDE001E30F2000330F30016308C3173248F3133
:101FEE003E30F2000630F30017308C3173248F31FF
:021FFE000800D9
:020000040001F9
:04000E00CF3FE63FBB
:04001400FF1FFF3F8C
:00000001FF
