:040000008031FA2829
:100008007E1480314E010C1E0A280B2867287E01B9
:100018003F1C0F28102836283F1040010C181528BF
:10002800162824288C1A19281A282428B001B10166
:100038000130B4000030B5000130B2000030B30028
:100048000C1C2728282836288C1A2B282C283628D8
:10005800B201B301B401B5010130B0000030B10004
:10006800C001C1017E01BF1D3A283B286728BF1186
:1000780040018C194028412855280C184428452847
:1000880055288C1A482849285528B001B101013053
:10009800B4000030B500B201B3010130AC0000304B
:1000A800AD008C1D5828592867280C185C285D2835
:1000B80067288C1A6028612867280130B200003050
:1000C800B300AC01AD014E010D1F6B286C289228BE
:1000D800400166086704031D722873288E283408B7
:1000E80035040319782879288E282C082D0403193B
:1000F8007E287F288E280130BA060030BB063A08D1
:100108003B0403198828892890280130BE0600304E
:10011800BF069028BE01BF014E010D138C1E952805
:100128009628F8280F304001450203189C289D287E
:10013800AC2846080319A128A228A7280F30F000E8
:100148007008C500C9280130F0007008C507C92823
:1001580046080319B028B128B428B601B701BE284B
:10016800360837040319B928BA28BE280130B60260
:100178000030B73BC501053044020318C428C52820
:10018800C9280130F0007008C4073E083F04031D69
:10019800CE28CF28D528400841040319D428D528CB
:1001A800F428340835040319DA28DB28F4282C0845
:1001B8002D040319E028E128F4280130FC067C18F6
:1001C800E628E92840011A16EB2840011A127C1C7F
:1001D800EE28F12840019A16F32840019A12F628D1
:1001E8001A129A124E018C127E1009008031FC28D6
:1001F80087319D278031E60087319E278031E700CF
:10020800FC01FA01FB012030840000308500333006
:100218008731972780317E1040018331C32B1E34EC
:1002280000343E3406341C3400346634013400345F
:100238000034283400341A3400346634013400346D
:10024800003428340034193400346634013400345E
:100258000034283400341734003466340134003450
:100268000034283400341F340034AE3404341E34CF
:100278000034C63400341C340034C6340034193415
:1002880000346934053400340034503400341E34EA
:1002980000343E3406341A3400347A3401340034DD
:1002A8000034143400341C3400347A3401340034FB
:1002B8000034143400341E3400347A3401340034E9
:1002C8000034143400341C3400347A3401340034DB
:1002D8000034143400341C340034F634023400344E
:1002E8000034283400341F340034F6340234003427
:1002F800003428340034223400346934053400349E
:100308000034503400341A3400340A3403340034CE
:10031800003414340034193400347A34013400348D
:100328000034143400341734003466340134003493
:10033800003428340034193400341E3403341C3497
:100348000034F634023400340034283400341C34C9
:100358000034F634023400340034283400341A34BB
:10036800003466340134003400342834003419343D
:1003780000346634013400340034283400341A342C
:1003880000341E3403341E340034F634023400348E
:100398000034283400341E340034F6340234003477
:1003A8000034283400341D340034663401340034F9
:1003B8000034283400341B340034663401340034EB
:1003C8000034283400341D3400341E3403342034FF
:1003D8000034F63402340034003428340034203435
:1003E8000034F634023400340034283400341E3427
:1003F80000346634013400340034283400341D34A9
:100408000034663401340034003428340034223493
:100418000034EE34053400340034503400341E34D3
:1004280000343E3406341C3400346634013400345D
:100438000034283400341A3400346634013400346B
:10044800003428340034193400346634013400345C
:10045800003428340034173400346634013400344E
:100468000034283400341F340034AE3404341E34CD
:100478000034C63400341C340034C6340034193413
:1004880000346934053400340034503400341E34E8
:1004980000343E3406341A3400347A3401340034DB
:1004A8000034143400341C3400347A3401340034F9
:1004B8000034143400341E3400347A3401340034E7
:1004C8000034143400341C3400347A3401340034D9
:1004D8000034143400341C340034F634023400344C
:1004E8000034283400341F340034F6340234003425
:1004F80000342834003422340034B934053400344C
:10050800003428340034233400340A3403340034EB
:10051800003414340034233400346F34003400348D
:10052800003414340034233400346F34003400347D
:10053800003414340034233400346F34003400346D
:10054800003414340034233400340A3403340034BF
:10055800003414340034233400346F34003400344D
:10056800003414340034233400346F34003400343D
:10057800003414340034233400346F34003400342D
:10058800003414340034233400346F34003400341D
:10059800003414340034233400341E3403340B3450
:1005A8000034D83400340D340034D83400340E34D8
:1005B80000349C34013400340034153400341234CF
:1005C8000034A734013400340034153400341334B3
:1005D80000348B340234123400346B340034103459
:1005E80000346B340034123400346434033400347F
:1005F8000034B13401340B340034D83400340D34B1
:100608000034D83400340E340034B1340134123498
:100618000034B1340134173400349C3401340034CC
:10062800003415340034153400349C34013400345B
:100638000034153400341234003464340334003484
:100648000034B13401340B340034D83400340D3460
:100658000034D83400340E340034B1340134123448
:100668000034B1340134133400348B34023412347E
:1006780000346B340034103400346B3400341234DA
:10068800003464340334133400342F340134003418
:10069800003415340034123400342F34013400345B
:1006A80000341534003413340034C23400340034B8
:1006B800003415340034153400348B3402341234C9
:1006C800003462340034103400346B340034123493
:1006D8000034CA34063400340034B13401341434DC
:1006E8000034D834003416340034D8340034173485
:1006F8000034B13401341B340034B13401341C34B7
:1007080000348B3402341B3400346B340034193415
:1007180000346B3400341B3400344E34033400345A
:100728000034153400341C3400342F3401340034C0
:100738000034153400341B3400342F3401340034B1
:100748000034153400341C340034C234003400340E
:100758000034153400341E34003475340234003447
:10076800003415340034203400346B34003422341F
:1007780000346B34003423340034CA3406347E0128
:100788003810B81038113816B812CE0140011214BA
:100798007E01391440019210121192157E01B9158B
:1007A8004001121692161410941014119411141278
:1007B8009412981418151A149A141A159A111A12D0
:1007C8009A120930E5006508F1004730873104279F
:1007D800833151011308F8390538930011174B017B
:1007E8001E12F0309E051F081F3940389F001F1247
:1007F8001F08F03901389F009E17FF3045018D0012
:10080800013090000E088F3960388E008F178E17D0
:100818004E019616171752010C08FC3901388C0046
:100828008C1740014608031D1A2C1B2C1D2C500147
:100838001E17813050019B0018309A001E141E1894
:10084800262C272C232C1D084001A50050011C082C
:100858004001A4004608031D322C332C352C5001CE
:100868001E1341011E088F3960389E00FC309E051A
:100878001D08033978389D009E1740014608031D5E
:10088800462C472C492C41011D147E013E143D1471
:10089800BE15BD154E0116100B1716168B17400105
:1008A8001A116430F1000030F20087318B27833150
:1008B80040011A156430F1000030F20087318B27AF
:1008C800833140011A116430F1000030F2008731A1
:1008D8008B27833140011A156430F1000030F20093
:1008E80087318B27833140011A116430F1000030C1
:1008F800F20087318B27833140011A154001C0016E
:10090800C1013208330403198A2C8B2C8E2C8431B4
:10091800B02483314001340835040319942C952CF4
:10092800A12C1A119A152C082D0403199C2C9D2C06
:10093800A32C853196258331A32C1A159A114001D1
:10094800300831040319A92CAA2C822C8731752769
:100958008331822C8031FA2840014608031DB52CCA
:10096800B62CB82C41011D1441019D1440014608C4
:10097800031DBF2CC02CC52C41019D18C42CC52CAF
:10098800C02C41011C084001A70041011B0840017F
:10099800A6004608031DD12CD22C112D2608F100E3
:1009A8002708F200F301F4012408D9002508DA0029
:1009B800DB01DC010A30D935DA0DDB0DDC0D890BE2
:1009C800DF2C5C08F8005B08F7005A08F6005908A5
:1009D800F50086317426843174084001E0007308FC
:1009E800DF007208DE007108DD000030F40000301E
:1009F800F3000030F2000A30F1006008F8005F08E8
:100A0800F7005E08F6005D08F5008631742684312B
:100A180072084001A9007108A80001302902A0301D
:100A280003192802031C192D1A2D292D98101811A5
:100A38001A109A102A082B040319232D242D842D0B
:100A48000130B0000030B100842D013029028F3010
:100A580003192802031C312D322D442D981018112A
:100A68001A102A082B0403193A2D3B2D842D42080D
:100A780003193F2D402D422D9A10842D9A14842D50
:100A880001302902813003192802031C4C2D4D2DF9
:100A98005E2D981018112A082B040319542D552D72
:100AA800422D42080319592D5A2D5C2D1A10422D3A
:100AB8001A14422D01302902783003192802031C28
:100AC800662D672D792D98102A082B0403196D2D92
:100AD8006E2D762D42080319722D732D752D181160
:100AE800762D18151A149A14842D420803197D2D91
:100AF8007E2D802D9810812D981418151A149A148B
:100B08002A082B040319892D8A2D952D0130D90027
:100B18005908C206F430F1000130F20087318B2702
:100B28008431080001304001C0000030C1000130AC
:100B3800F7007708C30704304302031CA42DA52D32
:100B4800572EC301C30A572E981018151A149A1451
:100B58002C082D040319B12DB22D6A2E3408350442
:100B6800031DB72DB82DAC2D6A2E981418111A1420
:100B78009A14E830F1000330F20087318B27853171
:100B88004001C001C101FA01FB01F12D7B0885007C
:100B98007A0884008435850D8435850DD330840723
:100BA8008230853D003FF300013FF4007B0885005B
:100BB8007A0884008435850D8435850DD530840701
:100BC8008230853D003FF500013FF600873153270D
:100BD80085310130FA070030FB3D00307B02F030F0
:100BE80003197A020318F92DFA2D6A2E40012C08F0
:100BF8002D040319002E012E6A2E34083504031D16
:100C0800062E072ECA2D6A2E981418151A109A1433
:100C1800E830F1000330F20087318B27853140013D
:100C2800C001C101FA01FB01402E7B0885007A084A
:100C380084008435850D8435850D13308407813013
:100C4800853D003FF300013FF4007B0885007A08EA
:100C580084008435850D8435850D153084078130F1
:100C6800853D003FF500013FF60087315327853168
:100C78000130FA070030FB3D01307B02C030031918
:100C88007A020318482E492E6A2E40012C082D049A
:100C980003194F2E502E6A2E34083504031D552E85
:100CA800562E192E6A2E4308F700F8017808003AE4
:100CB80003195F2E6A2E7708013A0319A82D033A03
:100CC8000319B92D013A0319082E6A2E4001C001F3
:100CD800C101AC01AD01981418151A149A14080032
:100CE8004001D401F41F792E7A2E872EF109F209DA
:100CF800F309F409F10A0319F20A0319F30A0319AB
:100D0800F40AD401D40AF81F8A2E8B2E9A2EF509DC
:100D1800F609F709F809F50A0319F60A0319F70A93
:100D28000319F80A0130F9007908D4060030D80010
:100D38000030D7000030D6000030D50074087304A6
:100D4800720471040319A92EAA2EEB2ED301D30A1B
:100D5800B82E0130F135F20DF30DF40D890BAE2EDE
:100D68000130F9007908D307F41FBB2EBC2EAD2E35
:100D78000130D535D60DD70DD80D890BBD2E740889
:100D88007802031DD12E73087702031DD12E720835
:100D98007602031DD12E71087502031CD42ED52EA0
:100DA800DE2E7108F5027208F63B7308F73B7408EB
:100DB800F83B55140130F436F30CF20CF10C890BA6
:100DC800DF2E0130D302031DEA2EEB2EBC2E540871
:100DD8000319EF2EF02EFB2ED509D609D709D8090D
:100DE800D50A0319D60A0319D70A0319D80A5808C5
:100DF800F4005708F3005608F2005508F1000800FF
:100E0800F4007408083E8600870181017408093ED1
:100E180086008701810174080A3E860087018101E6
:100E28007108F20074080B3E860087017208810081
:100E3800F30173087407F2007208860087018101C4
:100E48000130F2007208F30708307302031C2D2FDB
:100E58002E2F1D2F0800ED34E034D334C734BD34B1
:100E6800B234A8349E3496348D3485347D34763447
:100E780070346A3463345E34593454344F344B34E8
:100E8800463442343F343B343834343432342F34EB
:100E98002C342A3427342534233421341F3473085E
:100EA80074040319582F592F682F4001E601E701F0
:100EB80074088500730884002F3084078730853DC7
:100EC800000845018D006D2F01304001E60000301B
:100ED800E7007608F2007508F10087318B27873123
:100EE80008004001C001C1010030F300F400643083
:100EF800F5000030F60087315327873140019A11F9
:100F0800981418151A149A141A1563000800720810
:100F18004001B7007108B60036083704031D952F45
:100F2800962F902F0800640080010131890B982FBB
:060F380000340134003416
:020000040001F9
:04000E00CF3F263F7B
:04001400FF1FFF3F8C
:00000001FF
