:040000008031E22841
:100008007E1480314E010C1E0A280B2861287E01BF
:100018003F1C0F28102834283F1040010C181528C1
:10002800162824288C1A19281A282428AE01AF016A
:100038000130B2000030B3000130B0000030B10030
:100048000C1C2728282834288C1A2B282C283428DC
:10005800B001B101B201B3010130AE000030AF0010
:100068007E01BF1D382839286128BF1140018C192D
:100078003E283F2853280C184228432853288C1A16
:10008800462847285328AE01AF010130B20000309E
:10009800B300B001B1010130AA000030AB008C1DE3
:1000A8005628572861280C185A285B2861288C1A6A
:1000B8005E285F286128AA01AB014E010D1F652843
:1000C80066288C2840016C086D04031D6C286D2877
:1000D80088283208330403197228732888282A08C4
:1000E8002B0403197828792888280130B8060030AD
:1000F800B906380839040319822883288A28013068
:10010800BC060030BD068A28BC01BD014E010D1396
:100118008C1E8F289028E0280F30400145020318D4
:1001280096289728A628460803199B289C28A128C2
:100138000F30F0007008C500BD280130F0007008CD
:10014800C507BD2846080319AA28AB28AE28B4015C
:10015800B501B828340835040319B328B428B828D9
:100168000130B4020030B53BC5010130F000700821
:10017800C4073C083D04031DC228C328C9283E08FB
:100188003F040319C828C928DC280130FC067C185C
:10019800CE28D12840011A16D32840011A127C1CF7
:1001A800D628D92840019A16DB2840019A12DE2861
:1001B8001A129A124E018C127E1009008031E4281E
:1001C800873186278031EC00873187278031ED0021
:1001D800FC012030840000308500333087318027CF
:1001E80080317E1040018431962C1E3400343E3418
:1001F80006341C34003466340134003400342834A6
:1002080000341A340034663401340034003428349D
:10021800003419340034663401340034003428348E
:100228000034173400346634013400340034283480
:1002380000341F340034AE3404341E340034C63461
:1002480000341C340034C6340034193400346934A2
:10025800053400340034503400341E3400343E3445
:1002680006341A3400347A34013400340034143437
:1002780000341C3400347A3401340034003414342B
:1002880000341E3400347A34013400340034143419
:1002980000341C3400347A3401340034003414340B
:1002A80000341C340034F63402340034003428346A
:1002B80000341F340034F634023400340034283457
:1002C80000342234003469340534003400345034A6
:1002D80000341A3400340A3403340034003414343B
:1002E8000034193400347A340134003400341434BE
:1002F80000341734003466340134003400342834B0
:100308000034193400341E3403341C340034F634F9
:10031800023400340034283400341C340034F634F9
:10032800023400340034283400341A34003466347B
:10033800013400340034283400341934003466346D
:10034800013400340034283400341A3400341E34A4
:1003580003341E340034F6340234003400342834B4
:1003680000341E340034F6340234003400342834A7
:1003780000341D3400346634013400340034283429
:1003880000341B340034663401340034003428341B
:1003980000341D3400341E34033420340034F63461
:1003A8000234003400342834003420340034F63465
:1003B800023400340034283400341E3400346634E7
:1003C800013400340034283400341D3400346634D9
:1003D8000134003400342834003422340034EE343C
:1003E800053400340034503400341E3400343E34B4
:1003F80006341C34003466340134003400342834A4
:1004080000341A340034663401340034003428349B
:10041800003419340034663401340034003428348C
:10042800003417340034663401340034003428347E
:1004380000341F340034AE3404341E340034C6345F
:1004480000341C340034C6340034193400346934A0
:10045800053400340034503400341E3400343E3443
:1004680006341A3400347A34013400340034143435
:1004780000341C3400347A34013400340034143429
:1004880000341E3400347A34013400340034143417
:1004980000341C3400347A34013400340034143409
:1004A80000341C340034F634023400340034283468
:1004B80000341F340034F634023400340034283455
:1004C800003422340034B93405340034003428347C
:1004D8000034233400340A34033400340034143430
:1004E8000034233400346F340034003400341434BE
:1004F8000034233400346F340034003400341434AE
:100508000034233400346F3400340034003414349D
:100518000034233400340A340334003400341434EF
:100528000034233400346F3400340034003414347D
:100538000034233400346F3400340034003414346D
:100548000034233400346F3400340034003414345D
:100558000034233400346F3400340034003414344D
:100568000034233400341E3403340B340034D834BC
:1005780000340D340034D83400340E3400349C3444
:100588000134003400341534003412340034A734F4
:1005980001340034003415340034133400348B34FF
:1005A8000234123400346B340034103400346B34A9
:1005B8000034123400346434033400340034B13469
:1005C80001340B340034D83400340D340034D834BA
:1005D80000340E340034B134013412340034B134F0
:1005E8000134173400349C34013400340034153499
:1005F8000034153400349C3401340034003415348C
:100608000034123400346434033400340034B13418
:1006180001340B340034D83400340D340034D83469
:1006280000340E340034B134013412340034B1349F
:100638000134133400348B340234123400346B34F4
:100648000034103400346B34003412340034643411
:100658000334133400342F34013400340034153497
:100668000034123400342F3401340034003415348B
:10067800003413340034C2340034003400341534E8
:100688000034153400348B340234123400346234AC
:100698000034103400346B34003412340034CA345B
:1006A800063400340034B134013414340034D834FE
:1006B800003416340034D834003417340034B134DC
:1006C80001341B340034B13401341C3400348B340D
:1006D80002341B3400346B340034193400346B3466
:1006E80000341B3400344E340334003400341534E1
:1006F80000341C3400342F340134003400341534F1
:1007080000341B3400342F340134003400341534E1
:1007180000341C340034C23400340034003415343E
:1007280000341E3400347534023400340034153477
:100738000034203400346B340034223400346B34F9
:10074800003423340034CA34063440014608031DFB
:10075800AE2BAF2BB12B41011D1441019D1440015B
:100768004608031DB82BB92BBE2B41019D18BD2B84
:10077800BE2BB92B41011C084001A50041011B08F3
:100788004001A4004608031DCA2BCB2B112C2408BA
:10079800D7002508D800D901DA012308F400220877
:1007A800F3002108F2002008F1000030F8000030C2
:1007B800F7000430F600B430F5008631B7268331EF
:1007C80074084001DE007308DD007208DC0071085F
:1007D800DB0086315C26833140015A08E70059085E
:1007E800E6005808E5005708E4000030DA00003059
:1007F800D9000030D8000A30D7006708DE00660844
:10080800DD006508DC006408DB0086315C26833186
:1008180040015808A7005708A60001302702A03059
:1008280003192602031C192C1A2C292C98101811AC
:100838001A109A10280829040319232C242C842C14
:100848000130AE000030AF00842C013027028F3019
:1008580003192602031C312C322C442C9810181131
:100868001A102808290403193A2C3B2C842C420816
:1008780003193F2C402C422C9A10842C9A14842C57
:1008880001302702813003192602031C4C2C4D2C01
:100898005E2C98101811280829040319542C552C7B
:1008A800422C42080319592C5A2C5C2C1A10422C41
:1008B8001A14422C01302702783003192602031C2F
:1008C800662C672C792C98102808290403196D2C9C
:1008D8006E2C762C42080319722C732C752C181167
:1008E800762C18151A149A14842C420803197D2C96
:1008F8007E2C802C9810812C981418151A149A1490
:10090800280829040319892C8A2C952C0130FA000F
:100918007A08C206F430F1000130F20087317427FA
:10092800833108007E013810B81038113816B81213
:10093800CE01400112147E013914400192101211A7
:1009480092157E01B91540011216921614109410D2
:100958001411941114129412981418151A149A1444
:100968001A159A111A129A120930FB007B08F10025
:1009780047308631ED26843151011308F83905389E
:10098800930011174B011E12F0309E051F081F39E6
:1009980040389F001F121F08F03901389F009E172A
:1009A800243045018D00013090000E088F396038E1
:1009B8008E008F178E174E01961652010C08FC39BF
:1009C80001388C008C1740014608031DEC2CED2CD7
:1009D800EF2C50011E17813050019B0018309A00EF
:1009E8001E141A084001A00050011B084001A10074
:1009F800A201A3014608031D022D032D052D500158
:100A08001E1341011E088F3960389E00FC309E0578
:100A18001D08033978389D009E179F01400146083C
:100A2800031D172D182D1A2D41011D147E013E148A
:100A38003D14BE15BD154E0116100B1716168B1753
:100A480040011A116430F1000030F2008731742738
:100A5800843140011A156430F1000030F20087310A
:100A68007427843140011A116430F1000030F2001B
:100A780087317427843140011A156430F100003041
:100A8800F20087317427843140011A116430F10073
:100A98000030F20087317427843140011A15400173
:100AA800BE01BF013008310403195B2D5C2D5F2D99
:100AB8008331A92384314001320833040319652D99
:100AC800662D722D1A119A152A082B0403196D2DFB
:100AD8006E2D742D853181258431742D1A159A1146
:100AE80040012E082F0403197A2D7B2D532D8731B1
:100AF8005E278431532D8031E22801304001BE0049
:100B08000030BF000130F7007708C3070530430203
:100B1800031C8F2D902D422EC301C30A422E98101C
:100B280018151A149A142A082B0403199C2D9D2DA4
:100B3800552E32083304031DA22DA32D972D552EB3
:100B4800981418111A149A14E830F1000330F200BE
:100B58008731742785314001BE01BF01C001C10141
:100B6800DD2D41088500400884008435850D8435D5
:100B7800850DB93084078230853D003FF300013F81
:100B8800F40041088500400884008435850D8435CB
:100B9800850DBB3084078230853D003FF500013F5D
:100BA800F60087313C27853101304001C00700300D
:100BB800C13D00304102F030031940020318E52D11
:100BC800E62D552E2A082B040319EB2DEC2D552E56
:100BD80032083304031DF12DF22DB52D552E98142E
:100BE80018151A109A14E830F1000330F200873112
:100BF800742785314001BE01BF01C001C1012C2EFF
:100C080041088500400884008435850D8435850DAC
:100C1800F93084078030853D003FF300013FF40040
:100C280041088500400884008435850D8435850D8C
:100C3800FB3084078030853D003FF500013FF6001A
:100C480087313C27853101304001C0070030C13D64
:100C580001304102C030031940020318342E352EEA
:100C6800552E2A082B0403193A2E3B2E552E3208EE
:100C78003304031D402E412E042E552E4308F70041
:100C8800F8017808003A03194A2E552E7708013AD8
:100C98000319932D033A0319A42D013A0319F32DCF
:100CA800552EBE01BF01981418151A149A1408007D
:100CB80000304001E2000030E1000030E000003088
:100CC800DF005A0859045804570403196C2E6D2E76
:100CD800AE2EE301E30A7B2E0130D735D80DD90DAE
:100CE800DA0D890B712E0130F9007908E307DA1F54
:100CF8007E2E7F2E702E0130DF35E00DE10DE20DE6
:100D0800890B802E5A085E02031D942E59085D0235
:100D1800031D942E58085C02031D942E57085B028D
:100D2800031C972E982EA12E5708DB025808DC3B8F
:100D38005908DD3B5A08DE3B5F140130DA36D90C1E
:100D4800D80CD70C890BA22E0130E302031DAD2E5F
:100D5800AE2E7F2E6208DA006108D9006008D8003C
:100D68005F08D700080000304001D6000030D500E9
:100D78000030D4000030D300711CC32EC42ECD2EF9
:100D880075084001D3077608D43D7708D53D780823
:100D9800D63D0130F535F60DF70DF80D890BCE2E41
:100DA8000130F436F30CF20CF10C890BD52E7408D3
:100DB800730472047104031DE22EE32EC02E400159
:100DC8005608F4005508F3005408F2005308F100DF
:100DD8000800F4007408083E860087018101740841
:100DE800093E86008701810174080A3E8600870152
:100DF80081017108F20074080B3E860087017208B1
:100E08008100F30173087407F200720886008701F5
:100E180081010130F2007208F30708307302031CE5
:100E2800162F172F062F0800ED34E034D334C734BB
:100E3800BD34B234A8349E3496348D3485347D3430
:100E4800763470346A3463345E34593454344F34ED
:100E58004B34463442343F343B34383434343234FF
:100E68002F342C342A3427342534233421341F34A6
:100E7800730874040319412F422F512F4001EC01CC
:100E8800ED017408850073088400183084078730E2
:100E9800853D000845018D00562F01304001EC00CA
:100EA8000030ED007608F2007508F10087317427EC
:100EB800873108004001BE01BF010030F300F40093
:100EC8006430F5000030F60087313C278731400157
:100ED8009A11981418151A149A141A156300080010
:100EE80072084001B5007108B40034083504031DC8
:100EF8007E2F7F2F792F0800640080010131890B34
:080F0800812F00340134003494
:020000040001F9
:04000E00CF3F263F7B
:04001400FF1FFF3F8C
:00000001FF
