:040000008031C32860
:100008007E1480314E010C1E0A280B2834287E01EC
:100018003F1C0F28102834283F1040010C181528C1
:10002800162824288C1A19281A282428D201D30122
:100038000130D6000030D7000130D4000030D500A0
:100048000C1C2728282834288C1A2B282C283428DC
:10005800D401D501D601D7010130D2000030D30038
:100068004E010D1F382839285328400167086804B5
:10007800031D3F2840284F280130DA060030DB06F0
:100088005A085B04031949284A2851280130DE061A
:100098000030DF065128DE01DF014E010D138C1EF2
:1000A80056285728C1280F307C0203185C285D2881
:1000B80062280130F6007608FC079D284001660892
:1000C8000319672868286B28F901FA017528790847
:1000D8007A0403197028712875280130F902003054
:1000E800FA3BFC015608570403197B287C289D28F5
:1000F8007B08031D8028812886280130F6007608B1
:10010800FB079D280C08F6007608F000A030863121
:10011800302680310830F6007608F000A0308731AC
:10012800A7278031F700F80177084001CE0078084A
:10013800CF0040015E085F04031DA328A428AA2855
:10014800600861040319A928AA28BD280130FD0602
:100158007D18AF28B22840011A16B42840011A1297
:100168007D1CB728BA2840019A16BC2840019A126B
:10017800BF281A129A124E018C127E100900803183
:10018800C5288731B5278031E7008731B627803108
:10019800E800FD01F901FA01FB01FC01443084008B
:1001A8000030850023308731AF278031A0308400AC
:1001B800003085000C308731AF2780317E10400138
:1001C8008431832C1E3400343E3406341C3400340D
:1001D8006634013400340034283400341A340034CE
:1001E80066340134003400342834003419340034BF
:1001F80066340134003400342834003417340034B1
:100208006634013400340034283400341F34003498
:10021800AE3404341E340034C63400341C34003484
:10022800C6340034193400346934053400340034D9
:10023800503400341E3400343E3406341A3400344A
:100248007A34013400340034143400341C3400345B
:100258007A34013400340034143400341E34003449
:100268007A34013400340034143400341C3400343B
:100278007A34013400340034143400341C3400342B
:10028800F634023400340034283400341F34003487
:10029800F634023400340034283400342234003474
:1002A8006934053400340034503400341A340034CE
:1002B8000A3403340034003414340034193400345C
:1002C8007A340134003400341434003417340034E0
:1002D80066340134003400342834003419340034CE
:1002E8001E3403341C340034F63402340034003431
:1002F800283400341C340034F6340234003400341A
:10030800283400341A34003466340134003400349C
:10031800283400341934003466340134003400348D
:10032800283400341A3400341E3403341E340034A4
:10033800F634023400340034283400341E340034D7
:10034800F634023400340034283400341D340034C8
:100358006634013400340034283400341B3400344B
:100368006634013400340034283400341D34003439
:100378001E34033420340034F6340234003400349C
:100388002834003420340034F63402340034003485
:10039800283400341E340034663401340034003408
:1003A800283400341D3400346634013400340034F9
:1003B8002834003422340034EE3405340034003458
:1003C800503400341E3400343E3406341C340034B7
:1003D8006634013400340034283400341A340034CC
:1003E80066340134003400342834003419340034BD
:1003F80066340134003400342834003417340034AF
:100408006634013400340034283400341F34003496
:10041800AE3404341E340034C63400341C34003482
:10042800C6340034193400346934053400340034D7
:10043800503400341E3400343E3406341A34003448
:100448007A34013400340034143400341C34003459
:100458007A34013400340034143400341E34003447
:100468007A34013400340034143400341C34003439
:100478007A34013400340034143400341C34003429
:10048800F634023400340034283400341F34003485
:10049800F634023400340034283400342234003472
:1004A800B93405340034003428340034233400349B
:1004B8000A34033400340034143400342334003450
:1004C8006F340034003400341434003423340034DE
:1004D8006F340034003400341434003423340034CE
:1004E8006F340034003400341434003423340034BE
:1004F8000A34033400340034143400342334003410
:100508006F3400340034003414340034233400349D
:100518006F3400340034003414340034233400348D
:100528006F3400340034003414340034233400347D
:100538006F3400340034003414340034233400346D
:100548001E3403340B340034D83400340D340034F2
:10055800D83400340E3400349C3401340034003470
:100568001534003412340034A73401340034003414
:1005780015340034133400348B340234123400340C
:100588006B340034103400346B34003412340034CB
:100598006434033400340034B13401340B3400348F
:1005A800D83400340D340034D83400340E340034D8
:1005B800B134013412340034B13401341734003406
:1005C8009C340134003400341534003415340034BC
:1005D8009C340134003400341534003412340034AF
:1005E8006434033400340034B13401340B3400343F
:1005F800D83400340D340034D83400340E34003488
:10060800B134013412340034B134013413340034B9
:100618008B340234123400346B3400341034003418
:100628006B3400341234003464340334133400342B
:100638002F340134003400341534003412340034BB
:100648002F340134003400341534003413340034AA
:10065800C234003400340034153400341534003406
:100668008B340234123400346234003410340034D1
:100678006B34003412340034CA3406340034003485
:10068800B134013414340034D8340034163400340E
:10069800D834003417340034B13401341B340034F6
:1006A800B13401341C3400348B3402341B3400342C
:1006B8006B340034193400346B3400341B34003488
:1006C8004E34033400340034153400341C34003400
:1006D8002F34013400340034153400341B34003412
:1006E8002F34013400340034153400341C34003401
:1006F800C234003400340034153400341E3400345D
:100708007534023400340034153400342034003495
:100718006B340034223400346B3400342334003416
:10072800CA34063440016608031D9B2B9C2B9E2B64
:1007380041011D1441019D1440016608031DA52BAC
:10074800A62BAB2B41019D18AA2BAB2BA62B410145
:100758001C084001C90041011B084001C800660887
:10076800031DB72BB82BFE2B4808AC004908AD0079
:10077800AE01AF014708A3004608A2004508A10042
:100788004408A0000030A7000030A6000430A500EF
:10079800B430A4008631EA26833140012308B3002F
:1007A8002208B2002108B1002008B00086318F2647
:1007B800833140012F08BE002E08BD002D08BC0063
:1007C8002C08BB000030AF000030AE000030AD0098
:1007D8000A30AC003E08B3003D08B2003C08B10046
:1007E8003B08B00086318F26833140012D08CB00AD
:1007F8002C08CA0001304B02A03003194A02031C1E
:10080800062C072C162C981018111A109A104C0840
:100818004D040319102C112C712C0130D20000301A
:10082800D300712C01304B028F3003194A02031C8C
:100838001E2C1F2C312C981018111A104C084D041E
:100848000319272C282C712C640803192C2C2D2C07
:100858002F2C9A10712C9A14712C01304B02813074
:1008680003194A02031C392C3A2C4B2C98101811E6
:100878004C084D040319412C422C2F2C64080319F1
:10088800462C472C492C1A102F2C1A142F2C0130C7
:100898004B02783003194A02031C532C542C662C43
:1008A80098104C084D0403195A2C5B2C632C6408CF
:1008B80003195F2C602C622C1811632C18151A145C
:1008C8009A14712C640803196A2C6B2C6D2C9810DF
:1008D8006E2C981418151A149A144C084D04031900
:1008E800762C772C822C0130BA003A08E406F430D2
:1008F800A0000130A10087319027833108007E01D4
:100908003810B81038113816B812CE014001121438
:100918007E01391440019210121192157E01B91509
:1009280040011216921614109410141194111412F6
:100938009412981418151A149A141A159A111A124E
:100948009A120930C3004308A000A03087311E273F
:10095800843151011308F8390538930011174B01F8
:100968001E12F0309E051F081F3940389F001F12C5
:100978001F08F03901389F009E17FF3045018D0090
:10098800013090000E088F3960388E008F178E174F
:100998004E019616171752010C08FC3901388C00C5
:1009A8008C1740016608031DDA2CDB2CDD2C500166
:1009B8001E17813050019B0018309A001E141A0827
:1009C8004001C40050011B084001C500C601C70111
:1009D8006608031DF02CF12CF32C50011E13410165
:1009E8001E088F3960389E00FC309E051D080339AB
:1009F80078389D009E179F0140016608031D052D4C
:100A0800062D082D41011D147E013E143D144E0192
:100A180016100B1716168B1740011A116430A00018
:100A28000030A10087319027843140011A156430C5
:100A3800A0000030A10087319027843140011A11AD
:100A48006430A0000030A100873190278431400134
:100A58001A156430A0000030A10087319027843136
:100A680040011A116430A0000030A100873190279E
:100A7800843140011A1540014E084F040319452DD1
:100A8800462D492D85316B25843140015408550484
:100A980003194F2D502D532D833196238431400156
:100AA800560857040319592D5A2D5D2D1A119A15F8
:100AB8005F2D1A159A11520853040319642D652DD8
:100AC8003F2D87319C2784313F2D8031C328013049
:100AD8004001E0000030E1000130A6002608E507EB
:100AE80005306502031C792D7A2D1A2EE501E50AD9
:100AF8001A2E981018151A149A144E084F04031D2C
:100B0800862D872D812D2D2E981018151A109A10C4
:100B1800E830A0000330A1008731902785314001DB
:100B2800E001E101E201E301C12D630885006208EB
:100B380084008435850D8435850DA6308407823080
:100B4800853D003FA200013FA300630885006208BD
:100B580084008435850D8435850DA830840782305E
:100B6800853D003FA400013FA50087316E278531F0
:100B780001304001E2070030E33D00306302F0300D
:100B8800031962020318C92DCA2D2D2E4E084F04D1
:100B9800031DCF2DD02D992D2D2E981418151A1010
:100BA8009A14E830A0000330A100873190278531DE
:100BB8004001E001E101E201E3010A2E630885003A
:100BC800620884008435850D8435850DE6308407F8
:100BD8008030853D003FA200013FA30063088500E7
:100BE800620884008435850D8435850DE8308407D6
:100BF8008030853D003FA400013FA50087316E2766
:100C0800853101304001E2070030E33D01306302E5
:100C1800C030031962020318122E132E2D2E4E080F
:100C28004F04031D182E192EE22D2D2E6508A6003F
:100C3800A7012708003A0319222E2D2E2608013A6B
:100C480003197D2D033A0319882D013A0319D12D73
:100C58002D2EE001E1010800F500750886008701E6
:100C6800493FF30075080B3E8600870101087006AE
:100C7800F1007508083E8600870101087507F20033
:100C880072088600870171088100F401FF30F100C5
:100C98007508093E86008701710881007408750788
:100CA800F1007108860087010108F2007508093E05
:100CB80086008701720881050130F1007108F40788
:100CC80008307402031C692E6A2E522E0130F1007E
:100CD8007508083E86008701710881077508083E77
:100CE8008600870108300102031C7B2E7C2E812E92
:100CF8007508083E8600870181017508093E86004F
:100D0800870101087306F10075080A3E860087010D
:100D180071088100080000304001B8000030B700B9
:100D28000030B6000030B5002F082E042D042C0426
:100D380003199F2EA02EE12EB901B90AAE2E01305B
:100D4800AC35AD0DAE0DAF0D890BA42E0130B4003E
:100D58003408B907AF1FB12EB22EA32E0130B53516
:100D6800B60DB70DB80D890BB32E2F083302031D2E
:100D7800C72E2E083202031DC72E2D083102031D6F
:100D8800C72E2C083002031CCA2ECB2ED42E2C08BA
:100D9800B0022D08B13B2E08B23B2F08B33B3514E7
:100DA8000130AF36AE0CAD0CAC0C890BD52E013032
:100DB800B902031DE02EE12EB22E3808AF00370825
:100DC800AE003608AD003508AC0008000030400120
:100DD800AB000030AA000030A9000030A800201C99
:100DE800F62EF72EFF2E2408A8072508A93D260869
:100DF800AA3D2708AB3D0130A435A50DA60DA70DCA
:100E0800890B002F0130A336A20CA10CA00C890B72
:100E1800072F2308220421042004031D142F152F53
:100E2800F32E2B08A3002A08A2002908A1002808ED
:100E3800A00008004001A3002308083E860087019F
:100E480081012308093E86008701810123080A3EA3
:100E58008600870181012008A10023080B3E860037
:100E6800870121088100A20122082307A100210887
:100E78008600870181010130A1002108A2070830FE
:100E88002202031C482F492F382F0800ED34E03484
:100E9800D334C734BD34B234A8349E3496348D3438
:100EA80085347D34763470346A3463345E3459342E
:100EB80054344F344B34463442343F343B34383462
:100EC800343432342F342C342A3427342534233420
:100ED80021341F344001220823040319742F752F6D
:100EE800832FE701E80123088500220884004A309F
:100EF80084078730853D000845018D00872F013024
:100F0800E7000030E80040012508A1002408A000FF
:100F1800873190278731080040012108FA0020080E
:100F2800F90079087A04031D9A2F9B2F952F080042
:100F38004001E001E1019A11981418151A149A1445
:100F48001A1563000800F1007108093E8600870140
:100F5800010870050800640080010131890BB02F79
:060F6800003401340034E6
:020000040001F9
:04000E00CF3F263F7B
:04001400FF1FFF3F8C
:00000001FF
