:0400000081311C2905
:100008007E1480314E010C1E0A280B2889287E0197
:100018003F1E0F2810282D283F1240010C1A1528C2
:1000280016282528B001B1010130A6000030A7002C
:100038000130AE000030AF00A801A901AC01AD014C
:100048002D28A601A701B001B101AE01AF01A80199
:10005800A9017E013F1C3128322858283F10400151
:100068000C183728382846280C1E3B283C284628D8
:10007800AC01AD010130B0000030B1000130AE007C
:100088000030AF000C1C49284A2858280C1E4D285F
:100098004E285828AE01AF01B001B1010130AC00C3
:1000A8000030AD00BC01BD017E01BF1D5C285D288C
:1000B8008928BF1140018C196228632877280C18F9
:1000C8006628672877280C1E6A286B287728AC01D1
:1000D800AD010130B0000030B100AE01AF01013018
:1000E800A8000030A9008C1D7A287B2889280C18C4
:1000F8007E287F2889280C1E822883288928013099
:10010800AE000030AF00A801A9014E010D1F8D28D7
:100118008E28B428400162086304031D942895289A
:10012800B0283008310403199A289B28B0282808D9
:1001380029040319A028A128B0280130B6060030E8
:10014800B706360837040319AA28AB28B2280130A5
:10015800BA060030BB06B228BA01BB014E010D1326
:100168008C1EB728B8281A290F30400141020318FD
:10017800BE28BF28CE2842080319C328C428C92886
:100188000F30F0007008C100EB280130F000700853
:10019800C107EB2842080319D228D328D628B20170
:1001A800B301E028320833040319DB28DC28E028EF
:1001B8000130B2020030B33BC101053040020318E0
:1001C800E628E728EB280130F0007008C0073A0855
:1001D8003B04031DF028F128F7283C083D040319C7
:1001E800F628F7281629300831040319FC28FD28B9
:1001F8001629280829040319022903291629013078
:10020800FC067C1808290B2940011A160D29400103
:100218001A127C1C1029132940019A16152940012D
:100228009A1218291A129A124E018C127E1009007D
:1002380081311E298731EA278131E2008731EB2796
:100248008131E300FC01FA01FB0120308400003019
:1002580085002F308731E42781317E1040018331BA
:10026800EF2B1E3400343E3406341C34003466341C
:10027800013400340034283400341A34003466342D
:10028800013400340034283400341934003466341E
:100298000134003400342834003417340034663410
:1002A800013400340034283400341F340034AE34B0
:1002B80004341E340034C63400341C340034C634CC
:1002C80000341934003469340534003400345034AF
:1002D80000341E3400343E3406341A3400347A3480
:1002E800013400340034143400341C3400347A34BB
:1002F800013400340034143400341E3400347A34A9
:10030800013400340034143400341C3400347A349A
:10031800013400340034143400341C340034F6340E
:10032800023400340034283400341F340034F634E6
:100338000234003400342834003422340034693460
:10034800053400340034503400341A3400340A348C
:1003580003340034003414340034193400347A344B
:100368000134003400341434003417340034663453
:1003780001340034003428340034193400341E3475
:1003880003341C340034F634023400340034283486
:1003980000341C340034F634023400340034283479
:1003A80000341A34003466340134003400342834FC
:1003B80000341934003466340134003400342834ED
:1003C80000341A3400341E3403341E340034F63436
:1003D800023400340034283400341E340034F63437
:1003E800023400340034283400341D3400346634B8
:1003F800013400340034283400341B3400346634AB
:10040800013400340034283400341D3400341E34E0
:10041800033420340034F6340234003400342834F1
:10042800003420340034F6340234003400342834E4
:1004380000341E3400346634013400340034283467
:1004480000341D3400346634013400340034283458
:10045800003422340034EE3405340034003450348F
:1004680000341E3400343E3406341C340034663400
:10047800013400340034283400341A34003466342B
:10048800013400340034283400341934003466341C
:10049800013400340034283400341734003466340E
:1004A800013400340034283400341F340034AE34AE
:1004B80004341E340034C63400341C340034C634CA
:1004C80000341934003469340534003400345034AD
:1004D80000341E3400343E3406341A3400347A347E
:1004E800013400340034143400341C3400347A34B9
:1004F800013400340034143400341E3400347A34A7
:10050800013400340034143400341C3400347A3498
:10051800013400340034143400341C340034F6340C
:10052800023400340034283400341F340034F634E4
:100538000234003400342834003422340034B9340E
:1005480005340034003428340034233400340A34A9
:1005580003340034003414340034233400346F344A
:1005680000340034003414340034233400346F343D
:1005780000340034003414340034233400346F342D
:1005880000340034003414340034233400340A3482
:1005980003340034003414340034233400346F340A
:1005A80000340034003414340034233400346F34FD
:1005B80000340034003414340034233400346F34ED
:1005C80000340034003414340034233400346F34DD
:1005D80000340034003414340034233400341E341E
:1005E800033401304001BC000030BD000130F5008B
:1005F8007508BF0704303F02031C032B042BD22BC2
:10060800BF01BF0AD22B981018151A149A1428087B
:1006180029040319102B112BE52B30083104031D75
:10062800162B172B0B2BE52B981418111A149A1448
:10063800E830B2000330B300320833040319252B25
:10064800262B322B3008310403192B2B2C2B322B61
:1006580028082904031D312B322B202BBC01BD0196
:10066800FA01FB015E2B7B0885007A08840084353B
:10067800850D8435850DE03084078430853D003F45
:10068800F100013FF2007B0885007A088400843578
:10069800850D8435850DE23084078430853D003F23
:1006A800F300013FF4008731412782310130FA0716
:1006B8000030FB3D00307B02F03003197A0203184A
:1006C800662B672BE52B40012808290403196D2B9D
:1006D8006E2BE52B30083104031D732B742B372B3D
:1006E800E52B981418151A109A14E830B200033044
:1006F800B300320833040319822B832B8F2B300865
:1007080031040319882B892B8F2B28082904031DF2
:100718008E2B8F2B7D2BBC01BD01FA01FB01BB2B5E
:100728007B0885007A0884008435850D8435850D1D
:10073800353084078130853D003FF100013FF200EC
:100748007B0885007A0884008435850D8435850DFD
:10075800373084078130853D003FF300013FF400C6
:100768008731412782310130FA070030FB3D0130E3
:100778007B02C03003197A020318C32BC42BE52B64
:100788004001280829040319CA2BCB2BE52B300874
:100798003104031DD02BD12B942BE52B3F08F500FA
:1007A800F6017608003A0319DA2BE52B7508013AA9
:1007B8000319072B033A0319182B013A0319752B50
:1007C800E52B4001BC01BD01A801A9019814181529
:1007D8001A149A1408007E013810B810381138120B
:1007E800CE01400112147E013914400192101211F9
:1007F80092157E01B915400112167E013916400185
:10080800921614109410141194111412941298142E
:1008180018151A149A141A159A111A129A120930DC
:10082800E1006108F10043308731732783315101BA
:100838001308F8390538930011174B011E12F030D0
:100848009E051F081F3940389F001F121F08F039E6
:1008580001389F009E17FF3045018D000130900040
:100868000E088F3960388E008F178E174E01961636
:10087800171752010C08FC3901388C008C174001FD
:100888004208031D482C492C4B2C50011E1781305F
:1008980050019B0018309A001E141E18542C552C19
:1008A800512C1D084001A10050011C084001A00066
:1008B8004208031D602C612C632C50011E1341015A
:1008C8001E088F3960389E00FC309E051D080339CC
:1008D80078389D009E1740014208031D742C752C22
:1008E800772C41011D147E013E143D14BE15BD1523
:1008F8003E163D164E0116100B1716168B174001A3
:100908001A116430F1000030F2008731D8278331A2
:1009180040011A156430F1000030F2008731D82701
:10092800833140011A116430F1000030F200873140
:10093800D827833140011A156430F1000030F200E5
:100948008731D827833140011A116430F100003013
:10095800F2008731D827833140011A154001BC01C4
:10096800BD012E082F040319BA2CBB2CBE2C8531CF
:10097800D02583314001300831040319C42CC52C1B
:10098800D12C1A119A15280829040319CC2CCD2C1E
:10099800D32C8231F5228331D32C1A159A114001B8
:1009A8002C082D040319D92CDA2CB22C8731C22734
:1009B8008331B22C81311C290B340034D8340034F3
:1009C8000D340034D83400340E3400349C340134EF
:1009D800003400341534003412340034A7340134A0
:1009E8000034003415340034133400348B340234AA
:1009F800123400346B340034103400346B34003457
:100A0800123400346434033400340034B134013413
:100A18000B340034D83400340D340034D834003466
:100A28000E340034B134013412340034B13401349A
:100A3800173400349C340134003400341534003445
:100A4800153400349C340134003400341534003437
:100A5800123400346434033400340034B1340134C3
:100A68000B340034D83400340D340034D834003416
:100A78000E340034B134013412340034B13401344A
:100A8800133400348B340234123400346B340034A1
:100A9800103400346B3400341234003464340334BA
:100AA800133400342F340134003400341534003446
:100AB800123400342F340134003400341534003437
:100AC80013340034C2340034003400341534003494
:100AD800153400348B340234123400346234003458
:100AE800103400346B34003412340034CA34063401
:100AF80000340034B134013414340034D8340034B0
:100B080016340034D834003417340034B134013486
:100B18001B340034B13401341C3400348B340234B7
:100B28001B3400346B340034193400346B34003413
:100B38001B3400344E34033400340034153400348C
:100B48001C3400342F34013400340034153400349C
:100B58001B3400342F34013400340034153400348D
:100B68001C340034C23400340034003415340034EA
:100B78001E34003475340234003400341534003423
:100B8800203400346B340034223400346B340034A5
:100B980023340034CA34063440014208031DD52DDD
:100BA800D62DD82D41011D1441019D144001420844
:100BB800031DDF2DE02DE52D41019D18E42DE52DC8
:100BC800E02D41011C084001A30041011B08400120
:100BD800A2004208031DF12DF22D312E2208F1004A
:100BE8002308F200F301F4012008D5002108D600FB
:100BF800D701D8010A30D535D60DD70DD80D890BB8
:100C0800FF2D5808F8005708F7005608F600550851
:100C1800F5008631B126853174084001DC0073087F
:100C2800DB007208DA007108D9000030F4000030E7
:100C3800F3000030F2000A30F1005C08F8005B08AD
:100C4800F7005A08F6005908F5008631B1268531B3
:100C580072084001A5007108A40001302502A030E7
:100C680003192402031C392E3A2E3F2E981018110E
:100C78001A109A109A2E013025028F300319240277
:100C8800031C472E482E5A2E981018111A102608A1
:100C980027040319502E512E9A2E3E080319552E5B
:100CA800562E582E9A109A2E9A149A2E01302502F2
:100CB800813003192402031C622E632E742E9810AF
:100CC80018112608270403196A2E6B2E582E3E0881
:100CD80003196F2E702E722E1A10582E1A14582EB1
:100CE80001302502783003192402031C7C2E7D2E46
:100CF8008F2E9810260827040319832E842E8C2EF5
:100D08003E080319882E892E8B2E18118C2E181543
:100D18001A149A149A2E3E080319932E942E962E7E
:100D28009810972E981418151A149A142608270440
:100D380003199F2EA02EAC2E0130D5005508BE06F3
:100D4800F430F1000130F2008731D8278531B02E18
:100D5800981418151A149A1408004001D001F41FA9
:100D6800B62EB72EC42EF109F209F309F409F10AD7
:100D78000319F20A0319F30A0319F40AD001D00A75
:100D8800F81FC72EC82ED72EF509F609F709F80956
:100D9800F50A0319F60A0319F70A0319F80A0130C4
:100DA800F9007908D0060030D4000030D3000030B4
:100DB800D2000030D100740873047204710403195E
:100DC800E62EE72E282FCF01CF0AF52E0130F13578
:100DD800F20DF30DF40D890BEB2E0130F9007908B3
:100DE800CF07F41FF82EF92EEA2E0130D135D20D97
:100DF800D30DD40D890BFA2E74087802031D0E2F1B
:100E080073087702031D0E2F72087602031D0E2F3A
:100E180071087502031C112F122F1B2F7108F50280
:100E28007208F63B7308F73B7408F83B511401301D
:100E3800F436F30CF20CF10C890B1C2F0130CF02A5
:100E4800031D272F282FF92E500803192C2F2D2F7B
:100E5800382FD109D209D309D409D10A0319D20AE2
:100E68000319D30A0319D40A5408F4005308F300E9
:100E78005208F2005108F1000800710872040319C1
:100E8800462F472F562F4001E201E30172088500E3
:100E9800710884009E3084078730853D000845012D
:100EA8008D005B2F01304001E2000030E300740840
:100EB8004001B3007308B200320833040319652FE8
:100EC800662F722F3008310403196B2F6C2F722F85
:100ED80028082904031D712F722F602F0800F400C1
:100EE8007408083E8600870181017408093E86005F
:100EF8008701810174080A3E860087018101710813
:100F0800F20074080B3E8600870172088100F30125
:100F180073087407F20072088600870181010130A6
:100F2800F2007208F30708307302031C9C2F9D2FF0
:100F38008C2F0800ED34E034D334C734BD34B234D8
:100F4800A8349E3496348D3485347D3476347034A8
:100F58006A3463345E34593454344F344B34463431
:100F680042343F343B343834343432342F342C3424
:100F78002A3427342534233421341F344001BC015A
:100F8800BD010030F100F2006430F3000030F400DD
:100F980087314127873140019A11981418151A147E
:100FA8009A141A156300080072084001B30071080A
:100FB800B20032083304031DE22FE32FDD2F0800AF
:100FC800640080010131890BE52F003401340034BD
:020000040001F9
:04000E00CF3F263F7B
:04001400FF1FFF3F8C
:00000001FF
