:100000008031CE28013400347E1480314E010C1E24
:100010000A280B2865287E01BF1E0F2810282028DB
:10002000BF1240018C1E152816281C28B801B701E4
:10003000B70AB601B5012028B801B501B50AB70164
:100040007E013F1C2428252840283F1040010C1821
:100050002A282B2834288C1A2E282F283428B5013A
:10006000B801B80AB701B70A0C1C3728382840284D
:100070008C1A3B283C284028B701B801B501B50AC5
:100080007E01BF1D442845286528BF1140018C19F9
:100090004A284B2857280C184E284F2857288C1AC6
:1000A000522853285728B501B701B601B60A8C1D4E
:1000B0005A285B2865288C1A5E285F286528B501B8
:1000C000B601B801B80AB701B70A4E010D1F692879
:1000D0006A288428400154085504031D702871289B
:1000E00080280130AC060030AD062C082D04031921
:1000F0007A287B2882280130AE060030AF0682289D
:10010000AE01AF014E010D138C1E87288828CC2824
:100110000F3040013A0203188E288F2894280130AE
:10012000F0007008BA07A92828082904031999289B
:100130009A289E280130A8020030A93B39080319EB
:10014000A228A328A8280F30F0007008BA00A92818
:10015000BA012E082F04031DAE28AF28B528300899
:1001600031040319B428B528C8280130FB067B18D0
:10017000BA28BD2840011A16BF2840011A127B1C5C
:10018000C228C52840019A16C72840019A12CA28D9
:100190001A129A124E018C127E1009008031D0285A
:1001A000803102208031D400803103208031D5009D
:1001B000FB0120308400003085001B308D318D25FF
:1001C00080317E1040018E31362EFA30F30000303F
:1001D000F4000A308D31B3258031EE30F300023067
:1001E000F40000308D31B3258031FA30F300003057
:1001F000F4000A308D31B3258031EE30F300023047
:10020000F40000308D31B3258031FA30F300003036
:10021000F4000A308D31B3258031EE30F300023026
:10022000F40000308D31B3258031FA30F300003016
:10023000F4000A308D31B32580314B30F3000030AB
:10024000F40000308D31B32580317D30F300003073
:10025000F4000D308D31B32580316430F30000306F
:10026000F40000308D31B32580317D30F300003053
:10027000F4000D308D31B32580316430F30000304F
:10028000F40000308D31B32580317D30F300003033
:10029000F4000D308D31B32580316430F30000302F
:1002A000F40000308D31B3258031FA30F300003096
:1002B000F4000A308D31B3258031EE30F300023086
:1002C000F40000308D31B3258031FA30F300003076
:1002D000F4000A308D31B3258031EE30F300023066
:1002E000F40000308D31B3258031FA30F300003056
:1002F000F4000A308D31B3258031EE30F300023046
:10030000F40000308D31B3258031FA30F300003035
:10031000F4000A308D31B32580314B30F3000030CA
:10032000F40000308D31B32580317D30F300003092
:10033000F4000D308D31B32580316430F30000308E
:10034000F40000308D31B32580317D30F300003072
:10035000F4000D308D31B32580316430F30000306E
:10036000F40000308D31B32580317D30F300003052
:10037000F4000D308D31B32580316430F30000304E
:10038000F40000308D31B3258031FA30F3000030B5
:10039000F4000A308D31B3258031EE30F3000230A5
:1003A000F40000308D31B3258031FA30F300003095
:1003B000F4000A308D31B3258031EE30F300023085
:1003C000F40000308D31B3258031FA30F300003075
:1003D000F4000A308D31B3258031EE30F300023065
:1003E000F40000308D31B3258031FA30F300003055
:1003F000F4000A308D31B32580314B30F3000030EA
:10040000F40000308D31B32580317D30F3000030B1
:10041000F4000D308D31B32580316430F3000030AD
:10042000F40000308D31B32580317D30F300003091
:10043000F4000D308D31B32580316430F30000308D
:10044000F40000308D31B32580317D30F300003071
:10045000F4000D308D31B32580316430F30000306D
:10046000F40000308D31B3258031FA30F3000030D4
:10047000F4000A308D31B3258031EE30F3000230C4
:10048000F40000308D31B3258031FA30F3000030B4
:10049000F4000A308D31B3258031EE30F3000230A4
:1004A000F40000308D31B3258031FA30F300003094
:1004B000F4000A308D31B3258031EE30F300023084
:1004C000F40000308D31B3258031FA30F300003074
:1004D000F4000A308D31B32580314B30F300003009
:1004E000F40000308D31B32580317D30F3000030D1
:1004F000F40009308D31B32580316430F3000030D1
:10050000F40000308D31B32580317D30F3000030B0
:10051000F40009308D31B32580316430F3000030B0
:10052000F40000308D31B32580317D30F300003090
:10053000F40009308D31B32580316430F300003090
:10054000F40000308D31B3258031F430F3000130F8
:10055000F40016308D31B3258031F430F3000130D2
:10056000F40000308D31B3258031F430F3000130D8
:10057000F40016308D31B3258031F430F3000130B2
:10058000F40000308D31B3258031F430F3000130B8
:10059000F40016308D31B3258031F430F300013092
:1005A000F40000308D31B3258031F430F300013098
:1005B000F40012308D31B3258031FA30F300003071
:1005C000F40000308D31B3258031FA30F300003073
:1005D000F40019308D31B3258031F430F30001304F
:1005E000F40016308D31B3258031F430F300013042
:1005F000F40000308D31B3258031F430F300013048
:10060000F40012308D31B3258031FA30F300003020
:10061000F40000308D31B3258031FA30F300003022
:10062000F40019308D31B3258031EE30F300023003
:10063000F40016308D31B3258031E230F300043000
:10064000F40000308D31B3258031F430F3000130F7
:10065000F4001D308D31B3258031F430F3000130CA
:10066000F40000308D31B3258031F430F3000130D7
:10067000F4001D308D31B3258031F430F3000130AA
:10068000F40000308D31B3258031F430F3000130B7
:10069000F4001D308D31B3258031F430F30001308A
:1006A000F40000308D31B3258031F430F300013097
:1006B000F4001E308D31B3258031FA30F300003064
:1006C000F40000308D31B3258031FA30F300003072
:1006D000F40019308D31B3258031F430F30001304E
:1006E000F40015308D31B3258031F430F300013042
:1006F000F40000308D31B3258031F430F300013047
:10070000F40012308D31B3258031FA30F30000301F
:10071000F40000308D31B3258031FA30F300003021
:10072000F40019308D31B3258031EE30F300023002
:10073000F40016308D31B3258031E830F3000330FA
:10074000F40000308D31B3258031F430F3000130F6
:10075000F40022308D31B3258031F430F3000130C4
:10076000F40000308D31B3258031F430F3000130D6
:10077000F40016308D31B3258031FA30F3000030AB
:10078000F40000308D31B3258031FA30F3000030B1
:10079000F40016308D31B3258031F430F300013090
:1007A000F40022308D31B3258031F430F300013074
:1007B000F40000308D31B3258031F430F300013086
:1007C000F40021308D31B3258031FA30F300003050
:1007D000F40000308D31B3258031FA30F300003061
:1007E000F40020308D31B3258031FA30F300003031
:1007F000F4001F308D31B3258031FA30F300003022
:10080000F4001E308D31B3258031F430F300013017
:10081000F4001F308D31B3258031F430F300013006
:10082000F40000308D31B3258031F430F300013015
:10083000F4001A308D31B3258031EE30F3000230F0
:10084000F4001E308D31B3258031FA30F3000030D2
:10085000F40000308D31B3258031F430F3000130E5
:10086000F4001D308D31B3258031FA30F3000030B3
:10087000F40000308D31B3258031FA30F3000030C0
:10088000F4001C308D31B3258031FA30F300003094
:10089000F4001B308D31B3258031FA30F300003085
:1008A000F4001A308D31B3258031F430F30001307B
:1008B000F4001B308D31B3258031F430F30001306A
:1008C000F40000308D31B3258031F430F300013075
:1008D000F40016308D31B3258031F430F30001304F
:1008E000F40019308D31B3258031F430F30001303C
:1008F000F40000308D31B3258031F430F300013045
:10090000F40012308D31B3258031FA30F30000301D
:10091000F40000308D31B3258031FA30F30000301F
:10092000F40019308D31B3258031F430F3000130FB
:10093000F40016308D31B3258031F430F3000130EE
:10094000F40000308D31B3258031F430F3000130F4
:10095000F40012308D31B3258031FA30F3000030CD
:10096000F40000308D31B3258031FA30F3000030CF
:10097000F40019308D31B3258031EE30F3000230B0
:10098000F40016308D31B3258031E230F3000430AD
:10099000F40000308D31B32580310800D830F300E9
:1009A0000030F4000B308D31B3258431D830F300A2
:1009B0000030F4000D308D31B3258431B130F300B7
:1009C0000130F4000E308D31B3258431BC30F3009A
:1009D0000130F40012308D31B32584318B30F300B7
:1009E0000230F40013308D31B32584316B30F300C5
:1009F0000030F40012308D31B32584316B30F300B8
:100A00000030F40010308D31B32584316430F300B0
:100A10000330F40012308D31B3258431B130F3004E
:100A20000130F40000308D31B3258431D830F3002B
:100A30000030F4000B308D31B3258431D830F30011
:100A40000030F4000D308D31B3258431B130F30026
:100A50000130F4000E308D31B3258431B130F30014
:100A60000130F40012308D31B3258431B130F30000
:100A70000130F40017308D31B3258431B130F300EB
:100A80000130F40015308D31B32584316430F3002A
:100A90000330F40012308D31B3258431B130F300CE
:100AA0000130F40000308D31B3258431D830F300AB
:100AB0000030F4000B308D31B3258431D830F30091
:100AC0000030F4000D308D31B3258431B130F300A6
:100AD0000130F4000E308D31B3258431B130F30094
:100AE0000130F40012308D31B32584318B30F300A6
:100AF0000230F40013308D31B32584316B30F300B4
:100B00000030F40012308D31B32584316B30F300A6
:100B10000030F40010308D31B32584316430F3009F
:100B20000330F40012308D31B32584314530F300A9
:100B30000130F40013308D31B32584314530F3009A
:100B40000130F40012308D31B3258431D830F300F8
:100B50000030F40013308D31B32584318B30F30035
:100B60000230F40015308D31B32584316230F3004A
:100B70000030F40012308D31B32584316B30F30036
:100B80000030F40010308D31B3258431CA30F300C9
:100B90000630F40010308D31B3258431B130F300CC
:100BA0000130F40000308D31B3258431D830F300AA
:100BB0000030F40014308D31B3258431D830F30087
:100BC0000030F40016308D31B3258431B130F3009C
:100BD0000130F40017308D31B3258431B130F3008A
:100BE0000130F4001B308D31B32584318B30F3009C
:100BF0000230F4001C308D31B32584316B30F300AA
:100C00000030F4001B308D31B32584316B30F3009C
:100C10000030F40019308D31B32584316430F30095
:100C20000330F4001B308D31B32584314530F3009F
:100C30000130F4001C308D31B32584314530F30090
:100C40000130F4001B308D31B3258431D830F300EE
:100C50000030F4001C308D31B32584318B30F3002B
:100C60000230F4001E308D31B32584316B30F30037
:100C70000030F40020308D31B32584316B30F30027
:100C80000030F40022308D31B3258431CA30F300B6
:100C90000630F40023308D31B32584310800400143
:100CA0003908031D542E552E572E41011D140030B6
:100CB00040018C1A0130B20041019D1440013908F5
:100CC000031D632E642E692E41019D18682E692E26
:100CD000642E41011C084001A50041011B08400190
:100CE000A4003908031D752E762EBC2E2408BF00E3
:100CF0002508C000C101C2012308F4002208F30046
:100D00002108F2002008F1000030F8000030F70060
:100D10000430F600B430F5008731B027863174080E
:100D20004001C6007308C5007208C4007108C30002
:100D30008D31DB25863140014208CF004108CE00CD
:100D40004008CD003F08CC000030C2000030C10098
:100D50000030C0000A30BF004F08C6004E08C50072
:100D60004D08C4004C08C3008D31DB25863140019D
:100D70004008A7003F08A60001302702A030031951
:100D80002602031CC42EC52ED12E981018111A103D
:100D90009A1032080319CD2ECE2E292FB501B50A8F
:100DA000292F013027028F3003192602031CD92E68
:100DB000DA2EEB2E981018111A1032080319E12EB2
:100DC000E22E292F33080319E62EE72EE92E9A107A
:100DD000292F9A14292F0130270281300319260266
:100DE000031CF32EF42E042F981018113208031947
:100DF000FA2EFB2EE92E33080319FF2E002F022FA7
:100E00001A10E92E1A14E92E01302702783003193E
:100E10002602031C0C2F0D2F1E2F981032080319C9
:100E2000122F132F1B2F33080319172F182F1A2FC8
:100E300018111B2F18151A149A14292F3308031987
:100E4000222F232F252F9810262F981418151A14A7
:100E50009A14320803192D2F2E2F3E2F0130FA003D
:100E60007A08B306F430F1000130F2008D319D258F
:100E70008631003040018C1A0130B2003208031D67
:100E8000422F432F5C2E080001304001B00000309B
:100E9000B1000130F6007608B40705303402031CB7
:100EA000522F532F992FB401B40A992F9810181567
:100EB0001A149A143608031D5E2F5F2F5A2FAF2F76
:100EC000981418111A149A14E830F1000330F20043
:100ED0008D319D2587314001B001B1018031E52080
:100EE00087314001B001B101AF2F981418151A10C5
:100EF0009A14E830F1000330F2008D319D258731DE
:100F00004001B001B1018F3117278731712F98143B
:100F100018151A149A10E830F1000330F2008D31E0
:100F20009D2587314001B001B1018431CE24873144
:100F3000712F3408F600F7017708003A0319A12F42
:100F4000AF2F7608013A0319562F033A0319602F81
:100F5000013A0319752F073A0319872FAF2F08009D
:100F600000304001BE000030BD000030BC00003049
:100F7000BB00711CBC2FBD2FC62F75084001BB07DD
:100F80007608BC3D7708BD3D7808BE3D0130F5359B
:100F9000F60DF70DF80D890BC72F0130F436F30C61
:100FA000F20CF10C890BCE2F7408730472047104D7
:100FB000031DDB2FDC2FB92F40013E08F4003D0854
:100FC000F3003C08F2003B08F1000800ED34E03487
:100FD000D334C734BD34B234A8349E3496348D34FF
:100FE00085347D34763470346A3463345E345934F5
:100FF00054344F344B34463442343F343B34383429
:10100000343432342F342C342A34273425342334E6
:0410100021341F3434
:101B1A00640080010131890B8E2D00344001B0012F
:101B2A00B1019A11981418151A149A141A15080062
:101B3A00400139080319A22DA32DA82D0130A800B0
:101B4A000030A900AC2D7208A9007108A800280865
:101B5A002904031DB12DB22DAC2D0800F50040015A
:101B6A0036080319B92DBA2DD82D75080319BE2DBB
:101B7A00BF2DCC2DD401D5017508E63E84008730EF
:101B8A000318013E8500000845018D00D02D013063
:101B9A00D4000030D5007408F2007308F1008D31CA
:101BAA009D258D31DA2DB001B101080000304001C8
:101BBA00CA000030C9000030C8000030C70042081F
:101BCA00410440043F040319EB2DEC2D2D2ECB01CB
:101BDA00CB0AFA2D0130BF35C00DC10DC20D890BDC
:101BEA00F02D0130F9007908CB07C21FFD2DFE2D1B
:101BFA00EF2D0130C735C80DC90DCA0D890BFF2D50
:101C0A0042084602031D132E41084502031D132EE6
:101C1A0040084402031D132E3F084302031C162EDC
:101C2A00172E202E3F08C3024008C43B4108C53B7B
:101C3A004208C63B47140130C236C10CC00CBF0C67
:101C4A00890B212E0130CB02031D2C2E2D2EFE2DA9
:101C5A004A08C2004908C1004808C0004708BF0036
:101C6A0008007E013810B81038113816B812CE01A3
:101C7A00400112147E01391440019210121192157A
:101C8A007E01B915400112169216141094101411FF
:101C9A00941114129412981418151A149A141A15E5
:101CAA009A111A129A12510111171308F8390538A4
:101CBA0093004B011E12F0309E051F081F39403851
:101CCA009F001F129E171E3045018D0001309000A3
:101CDA0070308E048F178E174E0196161717520101
:101CEA000C08FC3901388C008C1740013908031D97
:101CFA007F2E802E822E50011E17813050019B00AC
:101D0A0018309A001E141A084001A00050011B083E
:101D1A004001A100A201A3013908031D952E962EA8
:101D2A00982E50011E1341011E088F3960389E00FB
:101D3A00FC309E051D08033978389D009E179F01C7
:101D4A0040013908031DAA2EAB2EAD2E41011D14E8
:101D5A007E013E143D14BE15BD15BE16BD164E01BC
:101D6A0016100B1716168B1740011A116430F10062
:101D7A000030F2008D319D258E3140011A156430F4
:101D8A00F1000030F2008D319D258E3140011A118B
:101D9A006430F1000030F2008D319D258E31400112
:101DAA001A156430F1000030F2008D319D258E3114
:101DBA0040011A116430F1000030F2008D319D2586
:101DCA008E3140011A158C1EEB2EEC2EEE2EB70129
:101DDA00B70A400136080319F32EF42EF72E87317D
:101DEA0044278E31400137080319FC2EFD2E002F9F
:101DFA0086314F268E31400138080319052F062FE8
:101E0A00092F1A119A150B2F1A159A113508031949
:101E1A000F2F102F132F8D3193258E316300EE2E45
:101E2A008031CE283E30F3000630F40012308D3176
:101E3A00B3258F318E30F3000130F40010308D312C
:101E4A00B3258F318E30F3000130F4000E308D311E
:101E5A00B3258F318E30F3000130F4000D308D310F
:101E6A00B3258F318E30F3000130F4000B308D3101
:101E7A00B3258F31C430F3000730F40013308D31AD
:101E8A00B3258F31C630F3000030F40012308D31A3
:101E9A00B3258F31C630F3000030F40010308D3195
:101EAA00B3258F31B930F3000530F4000D308D3190
:101EBA00B3258F318530F3000030F40000308D31C6
:101ECA00B3258F313E30F3000630F40012308D31E5
:101EDA00B3258F318E30F3000130F4000E308D318E
:101EEA00B3258F318E30F3000130F40010308D317C
:101EFA00B3258F318E30F3000130F40012308D316A
:101F0A00B3258F318E30F3000130F40010308D315B
:101F1A00B3258F311E30F3000330F40010308D31B9
:101F2A00B3258F311E30F3000330F40013308D31A6
:101F3A00B3258F31B930F3000530F40016308D31F6
:101F4A00B3258F318530F3000030F40000308D3135
:101F5A00B3258F313E30F3000630F4000B308D315B
:101F6A00B3258F318E30F3000130F4000B308D3100
:101F7A00B3258F318E30F3000130F4000D308D31EE
:101F8A00B3258F318E30F3000130F4000E308D31DD
:101F9A00B3258F318E30F3000130F4000B308D31D0
:101FAA00B3258F311E30F3000330F40010308D3129
:101FBA00B3258F311E30F3000330F40013308D3116
:101FCA00B3258F311E30F3000330F40012308D3107
:101FDA00B3258F311E30F3000330F40016308D31F3
:101FEA00B3258F313E30F3000630F40017308D31BF
:061FFA00B3258F31080041
:020000040001F9
:04000E00CF3F263F7B
:04001400FF1FFF3F8C
:00000001FF
