:040000008031DE2845
:100008007E1480314E010C1E0A280B287F287E01A1
:10001800BF1E0F2810281D2840018C1E14281528E3
:100028001D2800308C31652480318E313526803191
:100038007F287E01BF1E212822282B2840018C1AE8
:10004800262827282B2801308C31652480317E0111
:100058003F1C2F283028412840010C183428352807
:1000680041288C1A3828392841288E313526803184
:1000780040019A157E013F1063007E01BF1D45288F
:100088004628582840018C194A284B2858280C180B
:100098004E284F2858288C1A5228532858287E0151
:1000A800BF118D31BF2580317E01BF1D5C285D28C1
:1000B8006D2840018C1D612862286D288C1A6528DE
:1000C80066286D28CE01CF01981418151A149A14B1
:1000D80063007E013F1C712872287F2840010C1C98
:1000E800762877287F288C1A7A287B287F28013061
:1000F8008C31652480314E010D1F832884289E2869
:1001080040014A084B04031D8A288B289A2801308D
:10011800C8060030C90648084904031994289528D8
:100128009C280130CC060030CD069C28CC01CD019E
:100138004E010D138C1EA128A228DC280F30400187
:1001480051020318A828A928AE280130B70037089B
:10015800D107B928520853040319B328B428B8287A
:100168000130D2020030D33BD1014C084D04031DAD
:10017800BE28BF28C5284E084F040319C428C5281F
:10018800D8280130D4065418CA28CD2840011A1698
:10019800CF2840011A12541CD228D52840019A169B
:1001A800D72840019A12DA281A129A124E018C1294
:1001B8007E1009008031E0284001D401C601C70142
:1001C800C801C901CA01CB01CC01CD01CE01CF01C3
:1001D800D001D1017E10400187315D2FFA30F20045
:1001E8000030F3000A308C317F248031EE30F20089
:1001F8000230F30000308C317F248031FA30F20075
:100208000030F3000A308C317F248031EE30F20068
:100218000230F30000308C317F248031FA30F20054
:100228000030F3000A308C317F248031EE30F20048
:100238000230F30000308C317F248031FA30F20034
:100248000030F3000A308C317F2480314B30F200CB
:100258000030F30000308C317F2480317D30F20093
:100268000030F3000D308C317F2480316430F2008F
:100278000030F30000308C317F2480317D30F20073
:100288000030F3000D308C317F2480316430F2006F
:100298000030F30000308C317F2480317D30F20053
:1002A8000030F3000D308C317F2480316430F2004F
:1002B8000030F30000308C317F248031FA30F200B6
:1002C8000030F3000A308C317F248031EE30F200A8
:1002D8000230F30000308C317F248031FA30F20094
:1002E8000030F3000A308C317F248031EE30F20088
:1002F8000230F30000308C317F248031FA30F20074
:100308000030F3000A308C317F248031EE30F20067
:100318000230F30000308C317F248031FA30F20053
:100328000030F3000A308C317F2480314B30F200EA
:100338000030F30000308C317F2480317D30F200B2
:100348000030F3000D308C317F2480316430F200AE
:100358000030F30000308C317F2480317D30F20092
:100368000030F3000D308C317F2480316430F2008E
:100378000030F30000308C317F2480317D30F20072
:100388000030F3000D308C317F2480316430F2006E
:100398000030F30000308C317F248031FA30F200D5
:1003A8000030F3000A308C317F248031EE30F200C7
:1003B8000230F30000308C317F248031FA30F200B3
:1003C8000030F3000A308C317F248031EE30F200A7
:1003D8000230F30000308C317F248031FA30F20093
:1003E8000030F3000A308C317F248031EE30F20087
:1003F8000230F30000308C317F248031FA30F20073
:100408000030F3000A308C317F2480314B30F20009
:100418000030F30000308C317F2480317D30F200D1
:100428000030F3000D308C317F2480316430F200CD
:100438000030F30000308C317F2480317D30F200B1
:100448000030F3000D308C317F2480316430F200AD
:100458000030F30000308C317F2480317D30F20091
:100468000030F3000D308C317F2480316430F2008D
:100478000030F30000308C317F248031FA30F200F4
:100488000030F3000A308C317F248031EE30F200E6
:100498000230F30000308C317F248031FA30F200D2
:1004A8000030F3000A308C317F248031EE30F200C6
:1004B8000230F30000308C317F248031FA30F200B2
:1004C8000030F3000A308C317F248031EE30F200A6
:1004D8000230F30000308C317F248031FA30F20092
:1004E8000030F3000A308C317F2480314B30F20029
:1004F8000030F30000308C317F2480317D30F200F1
:100508000030F30009308C317F2480316430F200F0
:100518000030F30000308C317F2480317D30F200D0
:100528000030F30009308C317F2480316430F200D0
:100538000030F30000308C317F2480317D30F200B0
:100548000030F30009308C317F2480316430F200B0
:100558000030F30000308C317F248031F430F20019
:100568000130F30016308C317F248031F430F200F2
:100578000130F30000308C317F248031F430F200F8
:100588000130F30016308C317F248031F430F200D2
:100598000130F30000308C317F248031F430F200D8
:1005A8000130F30016308C317F248031F430F200B2
:1005B8000130F30000308C317F248031F430F200B8
:1005C8000130F30012308C317F248031FA30F20090
:1005D8000030F30000308C317F248031FA30F20093
:1005E8000030F30019308C317F248031F430F20070
:1005F8000130F30016308C317F248031F430F20062
:100608000130F30000308C317F248031F430F20067
:100618000130F30012308C317F248031FA30F2003F
:100628000030F30000308C317F248031FA30F20042
:100638000030F30019308C317F248031EE30F20025
:100648000230F30016308C317F248031E230F20022
:100658000430F30000308C317F248031F430F20014
:100668000130F3001D308C317F248031F430F200EA
:100678000130F30000308C317F248031F430F200F7
:100688000130F3001D308C317F248031F430F200CA
:100698000130F30000308C317F248031F430F200D7
:1006A8000130F3001D308C317F248031F430F200AA
:1006B8000130F30000308C317F248031F430F200B7
:1006C8000130F3001E308C317F248031FA30F20083
:1006D8000030F30000308C317F248031FA30F20092
:1006E8000030F30019308C317F248031F430F2006F
:1006F8000130F30015308C317F248031F430F20062
:100708000130F30000308C317F248031F430F20066
:100718000130F30012308C317F248031FA30F2003E
:100728000030F30000308C317F248031FA30F20041
:100738000030F30019308C317F248031EE30F20024
:100748000230F30016308C317F248031E830F2001B
:100758000330F30000308C317F248031F430F20014
:100768000130F30022308C317F248031F430F200E4
:100778000130F30000308C317F248031F430F200F6
:100788000130F30016308C317F248031FA30F200CA
:100798000030F30000308C317F248031FA30F200D1
:1007A8000030F30016308C317F248031F430F200B1
:1007B8000130F30022308C317F248031F430F20094
:1007C8000130F30000308C317F248031F430F200A6
:1007D8000130F30021308C317F248031FA30F2006F
:1007E8000030F30000308C317F248031FA30F20081
:1007F8000030F30020308C317F248031FA30F20051
:100808000030F3001F308C317F248031FA30F20041
:100818000030F3001E308C317F248031F430F20038
:100828000130F3001F308C317F248031F430F20026
:100838000130F30000308C317F248031F430F20035
:100848000130F3001A308C317F248031EE30F20011
:100858000230F3001E308C317F248031FA30F200F0
:100868000030F30000308C317F248031F430F20006
:100878000130F3001D308C317F248031FA30F200D2
:100888000030F30000308C317F248031FA30F200E0
:100898000030F3001C308C317F248031FA30F200B4
:1008A8000030F3001B308C317F248031FA30F200A5
:1008B8000030F3001A308C317F248031F430F2009C
:1008C8000130F3001B308C317F248031F430F2008A
:1008D8000130F30000308C317F248031F430F20095
:1008E8000130F30016308C317F248031F430F2006F
:1008F8000130F30019308C317F248031F430F2005C
:100908000130F30000308C317F248031F430F20064
:100918000130F30012308C317F248031FA30F2003C
:100928000030F30000308C317F248031FA30F2003F
:100938000030F30019308C317F248031F430F2001C
:100948000130F30016308C317F248031F430F2000E
:100958000130F30000308C317F248031F430F20014
:100968000130F30012308C317F248031FA30F200EC
:100978000030F30000308C317F248031FA30F200EF
:100988000030F30019308C317F248031EE30F200D2
:100998000230F30016308C317F248031E230F200CF
:1009A8000430F30000308C317F2480310800D830C7
:1009B800F2000030F3000B308C317F248431D830C2
:1009C800F2000030F3000D308C317F248431B130D7
:1009D800F2000130F3000E308C317F248431BC30BA
:1009E800F2000130F30012308C317F2484318B30D7
:1009F800F2000230F30013308C317F2484316B30E5
:100A0800F2000030F30012308C317F2484316B30D7
:100A1800F2000030F30010308C317F2484316430D0
:100A2800F2000330F30012308C317F248431B1306E
:100A3800F2000130F30000308C317F248431D8304B
:100A4800F2000030F3000B308C317F248431D83031
:100A5800F2000030F3000D308C317F248431B13046
:100A6800F2000130F3000E308C317F248431B13034
:100A7800F2000130F30012308C317F248431B13020
:100A8800F2000130F30017308C317F248431B1300B
:100A9800F2000130F30015308C317F24843164304A
:100AA800F2000330F30012308C317F248431B130EE
:100AB800F2000130F30000308C317F248431D830CB
:100AC800F2000030F3000B308C317F248431D830B1
:100AD800F2000030F3000D308C317F248431B130C6
:100AE800F2000130F3000E308C317F248431B130B4
:100AF800F2000130F30012308C317F2484318B30C6
:100B0800F2000230F30013308C317F2484316B30D3
:100B1800F2000030F30012308C317F2484316B30C6
:100B2800F2000030F30010308C317F2484316430BF
:100B3800F2000330F30012308C317F2484314530C9
:100B4800F2000130F30013308C317F2484314530BA
:100B5800F2000130F30012308C317F248431D83018
:100B6800F2000030F30013308C317F2484318B3055
:100B7800F2000230F30015308C317F24843162306A
:100B8800F2000030F30012308C317F2484316B3056
:100B9800F2000030F30010308C317F248431CA30E9
:100BA800F2000630F30010308C317F248431B130EC
:100BB800F2000130F30000308C317F248431D830CA
:100BC800F2000030F30014308C317F248431D830A7
:100BD800F2000030F30016308C317F248431B130BC
:100BE800F2000130F30017308C317F248431B130AA
:100BF800F2000130F3001B308C317F2484318B30BC
:100C0800F2000230F3001C308C317F2484316B30C9
:100C1800F2000030F3001B308C317F2484316B30BC
:100C2800F2000030F30019308C317F2484316430B5
:100C3800F2000330F3001B308C317F2484314530BF
:100C4800F2000130F3001C308C317F2484314530B0
:100C5800F2000130F3001B308C317F248431D8300E
:100C6800F2000030F3001C308C317F2484318B304B
:100C7800F2000230F3001E308C317F2484316B3057
:100C8800F2000030F30020308C317F2484316B3047
:100C9800F2000030F30022308C317F248431CA30D6
:100CA800F2000630F30023308C317F2484310800B1
:100CB8004101B501B101B201B60140018C124101F7
:100CC8009D149D18682E692E652E1C08B2001B08FD
:100CD800B1003108A0003208A100A201A3013E081A
:100CE8004001BB0041013D084001BA0041013C08F8
:100CF8004001B90041013B084001B8000030BF0085
:100D08000030BE000430BD00B430BC008C31D324A8
:100D1800863140013B084101A70040013A084101E2
:100D2800A600400139084101A500400138084101E9
:100D3800A4008D316225863141012308B0002208C4
:100D4800AF002108AE002008AD000030A30000303D
:100D5800A2000030A1000A30A0003008A7002F0828
:100D6800A6002E08A5002D08A4008D316225863125
:100D780041012108B4002008B30001303402A0303A
:100D880003193302031CC92ECA2ED72E400198100E
:100D980018111A109A10410136080319D42ED52EAD
:100DA8003E2F63003E2F013034028F300319330287
:100DB800031CDF2EE02EF52E4001981018111A1092
:100DC800410136080319E92EEA2E3E2F350803198A
:100DD800EE2EEF2EF22E40019A103E2F40019A146B
:100DE8003E2F01303402813003193302031CFD2EDB
:100DF800FE2E122F400198101811410136080319D0
:100E0800062F072FF22E350803190B2F0C2F0F2F43
:100E180040011A10F22E40011A14F22E0130340249
:100E2800783003193302031C1A2F1B2F312F40016E
:100E38009810410136080319222F232F2D2F35082A
:100E48000319272F282F2B2F400118112D2F400170
:100E5800181540011A149A143E2F35080319352F16
:100E6800362F392F400198103B2F40019814181540
:100E78001A149A1401304001C50045084101B5060D
:100E880036080319482F492F572FE8304001B8007A
:100E98000330B9008C3153248631003040018C1A5C
:100EA80001304101B6003608031D5B2F5C2F632E0D
:100EB80008007E013810B81038113816B812CE0163
:100EC800510110171308F839053893004B019E1784
:100ED8001E12F0309E05013045018D000130900052
:100EE80070308E048E1752010C08FC3901388C00C2
:100EF8008C1750011E1781309B0018309A001E1461
:100F08001A084101BB0050011B084101BC00BD018A
:100F1800BE0150011E1341011E088F3960389E0022
:100F2800FC309E051D08033978389D009E179F01E7
:100F38001D148B170B174E0116167E013E143D1417
:100F4800BE15BD15BE16BD164E0116104001121471
:100F58009210121192151216921614109410141160
:100F6800941114129412981418151A149A141A1524
:100F78009A111A129A121A11FA30B8000030B900F0
:100F88008C315324873140011A15FA30B8000030EB
:100F9800B9008C315324873140011A11FA30B80056
:100FA8000030B9008C315324873140011A15FA30CA
:100FB800B8000030B9008C315324873140011A1130
:100FC800FA30B8000030B9008C3153248731400121
:100FD8001A158C1EF02FF12FF52F86315C268731DC
:100FE800F62F6300F62F8031DE28ED34E034D33459
:100FF800C734BD34B234A8349E3496348D34853425
:101008007D34763470346A3463345E3459345434FD
:101018004F344B34463442343F343B343834343420
:1010280032342F342C342A342734253423342134D1
:021038001F3463
:1018820071084001D3007008D2000130D20200304A
:10189200D33B520A031D512C530A031D512C522CC7
:1018A200462C080040013908D3003808D200013024
:1018B200D2020030D33B520A031D632C530A031D8C
:1018C200632C642C582C0800F0004001CE01CF019B
:1018D2007E01BF01D50141011D104E019612171361
:1018E2004001981418151A149A141A159A117008AE
:1018F20003197C2C7D2C7E2C63000800F4007408F4
:101902000319842C852C932C4001CA01CB01740845
:10191200F93E840087300318013E85000008450126
:101922008D00982C01304001CA000030CB007308B2
:10193200F1007208F0008C3141248C310800003033
:10194200FB000030FA000030F9000030F800701C93
:10195200AB2CAC2CB42C7408F8077508F93D76084A
:10196200FA3D7708FB3D0130F435F50DF60DF70D24
:10197200890BB52C0130F336F20CF10CF00C890B0B
:10198200BC2C7308720471047004031DC92CCA2C88
:10199200A82C7B08F3007A08F2007908F100780895
:1019A200F000080000304001C3000030C2000030E7
:1019B200C1000030C000381CDF2CE02CE82C3C08B1
:1019C200C0073D08C13D3E08C23D3F08C33D01304E
:1019D200BC35BD0DBE0DBF0D890BE92C0130BB36E8
:1019E200BA0CB90CB80C890BF02C3B083A04390438
:1019F2003804031DFD2CFE2CDC2C4308BB004208DE
:101A0200BA004108B9004008B8000800003040019F
:101A1200AB000030AA000030A9000030A800230863
:101A22002204210420040319172D182D592DAC016D
:101A3200AC0A262D0130A035A10DA20DA30D890BF4
:101A42001C2D0130FC007C08AC07A31F292D2A2D78
:101A52001B2D0130A835A90DAA0DAB0D890B2B2D1D
:101A620023082702031D3F2D22082602031D3F2DB6
:101A720021082502031D3F2D20082402031C422DAC
:101A8200432D4C2D2008A4022108A53B2208A63B89
:101A92002308A73B28140130A336A20CA10CA00CEA
:101AA200890B4D2D0130AC02031D582D592D2A2DC5
:101AB2002B08A3002A08A2002908A1002808A000D8
:101AC200080000304101AB000030AA000030A9003C
:101AD2000030A80023082204210420040319722DD7
:101AE200732DB62DAC01AC0A832D0130A035A10DAA
:101AF200A20DA30D890B772D01304001C4004408CB
:101B02004101AC07A31F862D872D762D0130A83504
:101B1200A90DAA0DAB0D890B882D23082702031DE1
:101B22009C2D22082602031D9C2D21082502031D3F
:101B32009C2D20082402031C9F2DA02DA92D2008D6
:101B4200A4022108A53B2208A63B2308A73B281490
:101B52000130A336A20CA10CA00C890BAA2D0130D6
:101B6200AC02031DB52DB62D872D2B08A3002A0824
:101B7200A2002908A1002808A00008004E0196161C
:101B8200171701304001CE000030CF000130F500C0
:101B92007508D007112E981018151A149A14883047
:101BA200F0001330F1008C3141248D31272E98142E
:101BB20018111A149A14D030F0000730F1008C3149
:101BC20041248D314001CE01CF018031F2208D318F
:101BD2004001CE01CF01272E981418151A109A141D
:101BE200D030F0000730F1008C3141248D314001BA
:101BF200CE01CF018F3117278D31E92D9814181599
:101C02001A149A10D030F0000730F1008C314124C0
:101C12008D314001CE01CF018431DB248D31E92D9C
:101C22005008F500F6017608003A0319192E272EFE
:101C32007508013A0319CC2D033A0319D82D013A3C
:101C42000319ED2D073A0319FF2D272E0530400108
:101C52005002031C2D2E2E2E2F2ED0019814181553
:101C62001A149A14630008004001B501B101B201CF
:101C7200B6018C1241019D149D18402E412E3D2E1D
:101C82001C084001B20041011B084001B1003108AB
:101C9200A0003208A100A201A30141013E08F30005
:101CA2003D08F2003C08F1003B08F0000030F7006C
:101CB2000030F6000430F500B430F4008C31A0247A
:101CC2008E3173084001A7007208A6007108A500B2
:101CD2007008A4008D3107258E3140012308B00021
:101CE2002208AF002108AE002008AD000030A3009A
:101CF2000030A2000030A1000A30A0003008A70086
:101D02002F08A6002E08A5002D08A4008D31072556
:101D12008E3140012108B4002008B30001303402A2
:101D2200A03003193302031C972E982EA32E98106D
:101D320018111A109A1036080319A02EA12EFB2E84
:101D42006300FB2E013034028F3003193302031C6F
:101D5200AB2EAC2EBD2E981018111A10360803198E
:101D6200B32EB42EFB2E35080319B82EB92EBB2E76
:101D72009A10FB2E9A14FB2E013034028130031983
:101D82003302031CC52EC62ED62E98101811360803
:101D92000319CC2ECD2EBB2E35080319D12ED22EEF
:101DA200D42E1A10BB2E1A14BB2E013034027830F6
:101DB20003193302031CDE2EDF2EF02E9810360894
:101DC2000319E42EE52EED2E35080319E92EEA2E2D
:101DD200EC2E1811ED2E18151A149A14FB2E350834
:101DE2000319F42EF52EF72E9810F82E98141815C4
:101DF2001A149A140130FD007D084001B506360818
:101E02000319042F052F112FE830F0000330F100E1
:101E12008C3141248E31003040018C1A0130B600E1
:101E22003608031D152F162F3B2E08003E30F200F8
:101E32000630F30012308C317F248F318E30F20065
:101E42000130F30010308C317F248F318E30F2005C
:101E52000130F3000E308C317F248F318E30F2004E
:101E62000130F3000D308C317F248F318E30F2003F
:101E72000130F3000B308C317F248F31C430F200FB
:101E82000730F30013308C317F248F31C630F200DB
:101E92000030F30012308C317F248F31C630F200D3
:101EA2000030F30010308C317F248F31B930F200D2
:101EB2000530F3000D308C317F248F318530F200F4
:101EC2000030F30000308C317F248F313E30F2003D
:101ED2000630F30012308C317F248F318E30F200C5
:101EE2000130F3000E308C317F248F318E30F200BE
:101EF2000130F30010308C317F248F318E30F200AC
:101F02000130F30012308C317F248F318E30F20099
:101F12000130F30010308C317F248F311E30F200FB
:101F22000330F30010308C317F248F311E30F200E9
:101F32000330F30013308C317F248F31B930F2003B
:101F42000530F30016308C317F248F318530F2005A
:101F52000030F30000308C317F248F313E30F200AC
:101F62000630F3000B308C317F248F318E30F2003B
:101F72000130F3000B308C317F248F318E30F20030
:101F82000130F3000D308C317F248F318E30F2001E
:101F92000130F3000E308C317F248F318E30F2000D
:101FA2000130F3000B308C317F248F311E30F20070
:101FB2000330F30010308C317F248F311E30F20059
:101FC2000330F30013308C317F248F311E30F20046
:101FD2000330F30012308C317F248F311E30F20037
:101FE2000330F30016308C317F248F313E30F20003
:0E1FF2000630F30017308C317F248F31080049
:020000040001F9
:04000E00CF3FE63FBB
:04001400FF3FFF3F6C
:00000001FF
