:0400000081314129E0
:100008007E1480314E018D1E0A280B286428FE308C
:1000180044018D0012308C00400142084304031D46
:10002800162817281D284408450403191C281D28CC
:100038003C282E082F040319222823283C282C08A2
:100048002D040319282829283C280130FC067C188F
:100058002E28312840011A16332840011A127C1C18
:100068003628392840019A163B2840019A123E2822
:100078001A129A120F3049020318432844284928B3
:100088000130F0007008C9076228380839040319DC
:100098004E284F2853280130B8020030B93BC90117
:1000A80061085F02031D5A2860085E0203185D2874
:1000B8005E2862280130DE070030DF3D4E018D12D8
:1000C8008C1E672868288228400162086304031D83
:1000D8006E286F287E280130BC060030BD063C081B
:1000E8003D0403197828792880280130C206003099
:1000F800C3068028C201C3014E018C120D1F85283A
:10010800862813290D1303304001480203188D284F
:100118008E2893280130F0007008C80713292C088E
:100128002D04031D98289928D22836083704031966
:100138009E289F28D2284708031DA328A428D22830
:100148008C1DA728A828B328280829040319AD2836
:10015800AE28C0280130A8020030A93BC0280030D2
:1001680029020F30031928020318BB28BC28C0280D
:100178000130A8070030A93D003029020F300319CB
:100188002802031CC828C928D1280130AC00003037
:10019800AD000F30A8000030A900C8010C1CD528FC
:1001A800D628E128260827040319DB28DC28EE28AE
:1001B8000130A6020030A73BEE28003027020F309E
:1001C800031926020318E928EA28EE280130A607B1
:1001D8000030A73D26082704031DF328F428F72834
:1001E800AE01AF011329003027020F300319260290
:1001F800031CFF28002913290130AE000030AF008E
:1002080036083704031D09290A290E290130B000D0
:100218000030B1000F30A6000030A70013294E01AE
:100228000C1E172918293F297E013F1E1C291D294C
:100238002E293F1240010C1A222923292C29B60104
:10024800B701B201B3010130AA000030AB002E297A
:10025800AA01AB017E013F1C322933293F293F10F7
:1002680040010C18382939293F290130AE000030E7
:10027800AF00B201B3017E100900813143299930E2
:1002880084008F3085001200DE001200DF001200AB
:10029800E0001200E1001200E2001200E300FC019D
:1002A800F901FA01FB0120308400003085002B3071
:1002B8008F31932781317E104001813163297E017E
:1002C8003810B81038113812CE01400112147E01CE
:1002D800391440019210121192157E01B91540018E
:1002E80012167E013916400192161410941014113A
:1002F800941114129412981418151A149A141A15A1
:100308009A111A129A1251011308F83905389300F4
:1003180011174B011E12F0309E051F081F39403877
:100328009F001F121F08F03906389F009E17CF3014
:1003380044018E058E1001309100FE308D00123080
:100348008C000E140130450190000E088F3960387A
:100358008E008F178E174E01961697161717520193
:100368000C08FC3901388C008C1750011E1781309D
:100378009B0018309A001E141E18C329C429C029CE
:100388001D084001A10050011C084001A0005001B7
:100398001E1341011E088F3960389E00FC309E05EF
:1003A8001D08033978389D009E171D147E013E14E0
:1003B8003E163D164E0116100B1716168B17C83031
:1003C8004001E000AF30E1006108DF006008DE00B6
:1003D8003D30C0000030C1002330BE000030BF00F7
:1003E8001A116430F1000030F2008F319F278131FB
:1003F80040011A156430F1000030F2008F319F2758
:10040800813140011A116430F1000030F2008F315F
:100418009F27813140011A156430F1000030F20045
:100428008F319F27813140011A116430F10000306B
:10043800F2008F319F27813140011A154001C40114
:10044800C5012E082F04031D2A2A2B2A392AB40194
:10045800B501B601B701C401C501AC01AD019A11DE
:100468001A15981418151A149A142E082F04031D17
:100478003E2A3F2A5F2A61085F02031D452A600859
:100488005E02031C482A492A5F2A36083704031DDE
:100498004E2A4F2A5F2A30083104031D542A552A50
:1004A8005F2A2A082B04031D5A2A5B2A5F2A013077
:1004B800B2000030B3002E082F040319642A652AFD
:1004C8007D2A3008310403196A2A6B2A7D2A2A08F2
:1004D8002B04031D702A712A7D2A0130B6000030D2
:1004E800B7000130B4000030B500B001B101C70158
:1004F800C70A360837040319822A832A8B2A470831
:100508000319872A882A8B2A873174278131400169
:1005180034083504031D912A922A982A2A082B04A4
:100528000319972A982A9B2A8431F824813140019B
:10053800360837040319A12AA22AB42A61085F02DF
:10054800031DA82A60085E02031CAB2AAC2AB42A41
:100558002A082B04031DB12AB22AB42A9A151A11A3
:10056800360837040319B92ABA2ACC2A61085F0267
:10057800031DC02A60085E020318C32AC42ACC2AB5
:100588004708031DC82AC92ACC2A86315926813131
:100598004001360837040319D22AD32AEC2A2C083A
:1005A8002D040319D82AD92AEC2A61085F02031DF1
:1005B800DF2A60085E02031CE22AE32AEC2A2A08E2
:1005C8002B04031DE82AE92AEC2A8231F922813119
:1005D8004001320833040319F22AF32A222A8F3100
:1005E800AB278131222A81314129FF304B019D00FF
:1005F80001304001C4000030C5000130F500750825
:10060800FB0704307B02031C0A2B0B2BE62BFB0198
:10061800FB0AE62B981018151A149A14B830B8006B
:100628000B30B9003808390403191B2B1C2BF92B84
:100638002E082F04031D212B222B162BF92B98147F
:1006480018111A149A14E830B8000330B9003808A1
:1006580039040319302B312B372B2E082F04031D97
:10066800362B372B2B2BC401C501F901FA01632B5B
:100678007A088500790884008435850D8435850DD0
:10068800043084078430853D003FF100013FF200CB
:100698007A088500790884008435850D8435850DB0
:1006A800063084078430853D003FF300013FF400A5
:1006B8008F31D42782310130F9070030FA3D4001EB
:1006C80041087A02031D6A2B4008790203186D2B32
:1006D8006E2B742B2E082F04031D732B742B3C2BAD
:1006E800C401C50141087A06031D7C2B4008790620
:1006F800031D7F2B802BF92BDE01DF01F92B9814CA
:1007080018151A109A14E830B8000330B9003808E0
:1007180039040319902B912B972B2E082F04031DB6
:10072800962B972B8B2BC401C501F901FA01C32B1A
:100738007A088500790884008435850D8435850D0F
:10074800E83084078630853D003FF100013FF20024
:100758007A088500790884008435850D8435850DEF
:10076800EA3084078630853D003FF300013FF400FE
:100778008F31D42782310130F9070030FA3D40012A
:100788003F087A02031DCA2B3E0879020318CD2BB5
:10079800CE2BD42B2E082F04031DD32BD42B9C2B0C
:1007A800C401C5013F087A06031DDC2B3E08790603
:1007B800031DDF2BE02BF92B802BDE01DF01C401A9
:1007C800C501F92B7B08F500F6017608003A0319F4
:1007D800EE2BE12B7508013A03190E2B033A031986
:1007E800232B013A0319832BE12BAC01AD01013016
:1007F800B0000030B100981418151A149A140800A3
:100808000B340034D83400340D340034D834003478
:100818000E3400349C340134003400341534003470
:1008280012340034A7340134003400341534003451
:10083800133400348B340234123400346B340034F3
:10084800103400346B34003412340034643403340C
:1008580000340034B13401340B340034D83400345B
:100868000D340034D83400340E340034B13401343B
:1008780012340034B1340134173400349C34013458
:100888000034003415340034153400349C340134F9
:100898000034003415340034123400346434033422
:1008A80000340034B13401340B340034D83400340B
:1008B8000D340034D83400340E340034B1340134EB
:1008C80012340034B1340134133400348B3402341C
:1008D800123400346B340034103400346B34003478
:1008E8001234003464340334133400342F340134A4
:1008F8000034003415340034123400342F340134F9
:10090800003400341534003413340034C234003455
:100918000034003415340034153400348B34023478
:100928001234003462340034103400346B34003430
:1009380012340034CA34063400340034B13401347B
:1009480014340034D834003416340034D834003425
:1009580017340034B13401341B340034B134013459
:100968001C3400348B3402341B3400346B340034B0
:10097800193400346B3400341B3400344E340334DF
:1009880000340034153400341C3400342F3401345E
:1009980000340034153400341B3400342F3401344F
:1009A80000340034153400341C340034C2340034AC
:1009B80000340034153400341E34003475340234E5
:1009C8000034003415340034203400346B340034DF
:1009D800223400346B34003423340034CA340634EF
:1009E800003400341434003441011D1440012A0835
:1009F8002B040319002D012D022D1A1541019D14F8
:100A08009D18072D082D042D1C084001A300410145
:100A18001B084001A2002208F1002308F200F3019C
:100A2800F4012008D2002108D300D401D5010A30EE
:100A3800D235D30DD40DD50D890B1C2D5508F800D2
:100A48005408F7005308F6005208F5008531C92507
:100A5800843174084001D9007308D8007208D7009F
:100A68007108D6000030F4000030F3000030F200C6
:100A78000A30F1005908F8005808F7005708F6003E
:100A88005608F5008531C925843172084001A50052
:100A98007108A40001302502A03003192402031CA8
:100AA800562D572D5C2D981018111A109A10B72D25
:100AB800013025028F3003192402031C642D652D93
:100AC800772D981018111A102A082B0403196D2D68
:100AD8006E2DB72D46080319722D732D752D9A109A
:100AE800B72D9A14B72D013025028130031924023D
:100AF800031C7F2D802D912D981018112A082B0486
:100B08000319872D882D752D460803198C2D8D2DD9
:100B18008F2D1A10752D1A14752D01302502783075
:100B280003192402031C992D9A2DAC2D98102A081C
:100B38002B040319A02DA12DA92D46080319A52DB5
:100B4800A62DA82D1811A92D18151A149A14B72D09
:100B580046080319B02DB12DB32D9810B42D981453
:100B680018151A149A142A082B040319BC2DBD2D24
:100B7800C82D0130D2005208C606F430F100013009
:100B8800F2008F319F27843108004001CD01F41F06
:100B9800CE2DCF2DDC2DF109F209F309F409F10A64
:100BA8000319F20A0319F30A0319F40ACD01CD0A4D
:100BB800F81FDF2DE02DEF2DF509F609F709F809E3
:100BC800F50A0319F60A0319F70A0319F80A013096
:100BD800CB004B08CD060030D1000030D0000030EB
:100BE800CF000030CE007408730472047104031936
:100BF800FE2DFF2D402ECC01CC0A0D2E0130F135F3
:100C0800F20DF30DF40D890B032E0130CB004B08C8
:100C1800CC07F41F102E112E022E0130CE35CF0D29
:100C2800D00DD10D890B122E74087802031D262EC3
:100C380073087702031D262E72087602031D262EDE
:100C480071087502031C292E2A2E332E7108F5020D
:100C58007208F63B7308F73B7408F83B4E140130F2
:100C6800F436F30CF20CF10C890B342E0130CC0263
:100C7800031D3F2E402E112E4D080319442E452EDC
:100C8800502ECE09CF09D009D109CE0A0319CF0AAF
:100C98000319D00A0319D10A5108F4005008F300C7
:100CA8004F08F2004E08F10008004601961703307D
:100CB8007E01A20003309100033092000330A000AF
:100CC8000330A100D02E4030F9000030FA00013086
:100CD800B8000030B900380839040319742E752E8D
:100CE8007B2E2E082F04031D7A2E7B2E6F2E7A085A
:100CF80046019500790894007908403EF9000030D3
:100D08007A3DFA00FF307A02C030031979020318DD
:100D18008E2E8F2E962E40012E082F04031D952E01
:100D2800962E6B2E01304001B8000030B90038080B
:100D380039040319A02EA12EA72E2E082F04031D57
:100D4800A62EA72E9B2E7A084601950079089400B6
:100D58007908C03EF900FF307A3DFA0000307A0287
:100D6800413003197902031CBA2EBB2EC22E400152
:100D78002E082F04031DC12EC22E962E40012E08C8
:100D88002F040319C82EC92ED02EF430F1000130DB
:100D9800F2008F319F278631400161085F02031DF1
:100DA800D72E60085E020318DA2EDB2EE12E2E08FD
:100DB8002F04031DE02EE12E672E7E01A201910172
:100DC8009201A001A10108001E3400343E3406340B
:100DD8001A3400347A3401340034003414340034C2
:100DE8001C3400347A3401340034003414340034B0
:100DF8001E3400347A34013400340034143400349E
:100E08001C3400347A34013400340034143400348F
:100E18001C340034F63402340034003428340034EE
:100E28001F340034F63402340034003428340034DB
:100E380022340034B9340534003400342834003402
:100E4800233400340A3403340034003414340034B6
:100E5800233400346F340034003400341434003444
:100E6800233400346F340034003400341434003434
:100E7800233400346F340034003400341434003424
:100E8800233400340A340334003400341434003476
:100E9800233400346F340034003400341434003404
:100EA800233400346F3400340034003414340034F4
:100EB800233400346F3400340034003414340034E4
:100EC800233400346F3400340034003414340034D4
:100ED800233400341E340334003400341434003412
:100EE80040014703031D792F7A2FAB2F4601961730
:100EF80003307E01A20003309100033092000330DA
:100F0800A0000330A100C030F900FF30FA00013022
:100F18004001B8000030B90038083904031D952F86
:100F2800962F902F7A084601950079089400790841
:100F3800C03EF900FF307A3DFA0000307A024130B5
:100F4800031979020318A92FAA2F8B2FD22F023049
:100F58004706031DB02FB12FB22FD22F03304706FB
:100F6800031DB72FB82FD22F46018E170E160E0865
:100F7800F0390C388E00921712161208F0390C3816
:100F8800920096179A1701307E01A2000130910055
:100F9800023092000330A0000430A10040019810F4
:100FA80018111A109A107E01A20191019201A00154
:100FB800A1014001C7010800ED34E034D334C7343F
:100FC800BD34B234A8349E3496348D3485347D349F
:100FD800763470346A3463345E34593454344F345C
:100FE8004B34463442343F343B343834343432346E
:100FF8002F342C342A3427342534233421341F3415
:101F2600640080010131890B942F0034E8340334B6
:101F3600E83403340134003472084001B9007108F2
:101F4600B80038083904031DA92FAA2FA42F0800AA
:101F56004001C401C5019A111A116430F100003024
:101F6600F2008F319F278F3140011A156430F1003E
:101F76000030F2008F319F278F3140011A116430F3
:101F8600F1000030F2008F319F278F3140011A1582
:101F9600981418151A149A141A1541011D10630085
:101FA6000800710872040319D92FDA2FE92F4001AE
:101FB600E201E3017208850071088400E0308407BD
:101FC6008730853D00084B019D00EE2F0130400112
:101FD600E2000030E30074084001B9007308B8005D
:101FE600380839040319F82FF92FFF2F2E082F046C
:0A1FF600031DFE2FFF2FF32F08003C
:020000040001F9
:04000E00CF3F263F7B
:04001400FF1FFF3F8C
:00000001FF
