:0400000081311A2907
:100008007E1480314E010C1E0A280B2887287E0199
:10001800BF1E0F2810282B28BF1240018C1E152840
:1000280016282128B001B1010130AE000030AF0020
:10003800A801A901AC01AD012B28B001B101AE01A5
:10004800AF01A801A9010130AC000030AD007E016C
:100058003F1C2F28302856283F1040010C183528FF
:10006800362844288C1A39283A284428AC01AD018E
:100078000130B0000030B1000130AE000030AF00F8
:100088000C1C4728482856288C1A4B284C285628D8
:10009800AE01AF01B001B1010130AC000030AD00DC
:1000A800BC01BD017E01BF1D5A285B288728BF11EE
:1000B80040018C196028612875280C186428652867
:1000C80075288C1A682869287528AC01AD0101309B
:1000D800B0000030B100AE01AF010130A80000301F
:1000E800A9008C1D7828792887280C187C287D2859
:1000F80087288C1A8028812887280130AE00003094
:10010800AF00A801A9014E010D1F8B288C28B22829
:10011800400162086304031D92289328AE28300822
:100128003104031998289928AE28280829040319A6
:100138009E289F28AE280130B6060030B70636083C
:1001480037040319A828A928B0280130BA060030B6
:10015800BB06B028BA01BB014E010D138C1EB52891
:10016800B62818290F30400141020318BC28BD28C1
:10017800CC2842080319C128C228C7280F30F0002C
:100188007008C100E9280130F0007008C107E928AB
:1001980042080319D028D128D428B201B301DE2897
:1001A800320833040319D928DA28DE280130B202CC
:1001B8000030B33BC101053040020318E428E528AC
:1001C800E9280130F0007008C0073A083B04031D15
:1001D800EE28EF28F5283C083D040319F428F528F3
:1001E8001429300831040319FA28FB28142928088F
:1001F800290403190029012914290130FC067C1857
:100208000629092940011A160B2940011A127C1CDB
:100218000E29112940019A16132940019A1216290C
:100228001A129A124E018C127E10090081311C2973
:100238008731EB278131E2008731EC278131E300F8
:10024800FC01FA01FB0120308400003085002F30CA
:100258008731E52781317E1040018431DD2C1E3441
:1002680000343E3406341C3400346634013400341F
:100278000034283400341A3400346634013400342D
:10028800003428340034193400346634013400341E
:100298000034283400341734003466340134003410
:1002A8000034283400341F340034AE3404341E348F
:1002B8000034C63400341C340034C63400341934D5
:1002C80000346934053400340034503400341E34AA
:1002D80000343E3406341A3400347A34013400349D
:1002E8000034143400341C3400347A3401340034BB
:1002F8000034143400341E3400347A3401340034A9
:100308000034143400341C3400347A34013400349A
:100318000034143400341C340034F634023400340D
:100328000034283400341F340034F63402340034E6
:10033800003428340034223400346934053400345D
:100348000034503400341A3400340A34033400348E
:10035800003414340034193400347A34013400344D
:100368000034143400341734003466340134003453
:10037800003428340034193400341E3403341C3457
:100388000034F634023400340034283400341C3489
:100398000034F634023400340034283400341A347B
:1003A80000346634013400340034283400341934FD
:1003B80000346634013400340034283400341A34EC
:1003C80000341E3403341E340034F634023400344E
:1003D8000034283400341E340034F6340234003437
:1003E8000034283400341D340034663401340034B9
:1003F8000034283400341B340034663401340034AB
:100408000034283400341D3400341E3403342034BE
:100418000034F634023400340034283400342034F4
:100428000034F634023400340034283400341E34E6
:1004380000346634013400340034283400341D3468
:100448000034663401340034003428340034223453
:100458000034EE34053400340034503400341E3493
:1004680000343E3406341C3400346634013400341D
:100478000034283400341A3400346634013400342B
:10048800003428340034193400346634013400341C
:10049800003428340034173400346634013400340E
:1004A8000034283400341F340034AE3404341E348D
:1004B8000034C63400341C340034C63400341934D3
:1004C80000346934053400340034503400341E34A8
:1004D80000343E3406341A3400347A34013400349B
:1004E8000034143400341C3400347A3401340034B9
:1004F8000034143400341E3400347A3401340034A7
:100508000034143400341C3400347A340134003498
:100518000034143400341C340034F634023400340B
:100528000034283400341F340034F63402340034E4
:1005380000342834003422340034B934053400340B
:10054800003428340034233400340A3403340034AB
:10055800003414340034233400346F34003400344D
:10056800003414340034233400346F34003400343D
:10057800003414340034233400346F34003400342D
:10058800003414340034233400340A34033400347F
:10059800003414340034233400346F34003400340D
:1005A800003414340034233400346F3400340034FD
:1005B800003414340034233400346F3400340034ED
:1005C800003414340034233400346F3400340034DD
:1005D800003414340034233400341E34033401301E
:1005E8004001BC000030BD000130F5007508BF07B0
:1005F80004303F02031C012B022BD02BBF01BF0A82
:10060800D02B981018151A149A14280829040319BD
:100618000E2B0F2BE32B30083104031D142B152B45
:10062800092BE32B981418111A149A14E830B20005
:100638000330B300320833040319232B242B302B47
:10064800300831040319292B2A2B302B28082904B8
:10065800031D2F2B302B1E2BBC01BD01FA01FB0102
:100668005C2B7B0885007A0884008435850D8435E9
:10067800850DED3084078330853D003FF100013F53
:10068800F2007B0885007A0884008435850D84355E
:10069800850DEF3084078330853D003FF300013F2F
:1006A800F4008731422782310130FA070030FB3DE0
:1006B80000307B02F03003197A020318642B652B93
:1006C800E32B40012808290403196B2B6C2BE32B1F
:1006D80030083104031D712B722B352BE32B981432
:1006E80018151A109A14E830B2000330B300320813
:1006F80033040319802B812B8D2B30083104031907
:10070800862B872B8D2B28082904031D8C2B8D2BDA
:100718007B2BBC01BD01FA01FB01B92B7B088500CD
:100728007A0884008435850D8435850D3330840737
:100738008130853D003FF100013FF2007B088500D4
:100748007A0884008435850D8435850D3530840715
:100758008130853D003FF300013FF4008731422797
:1007680082310130FA070030FB3D01307B02C03096
:1007780003197A020318C12BC22BE32B4001280866
:1007880029040319C82BC92BE32B30083104031D96
:10079800CE2BCF2B922BE32B3F08F500F6017608E2
:1007A800003A0319D82BE32B7508013A0319052BD6
:1007B800033A0319162B013A0319732BE32B400153
:1007C800BC01BD01A801A901981418151A149A149E
:1007D80008000B340034D83400340D340034D834D5
:1007E80000340E3400349C340134003400341534A1
:1007F800003412340034A734013400340034153482
:100808000034133400348B340234123400346B3423
:100818000034103400346B3400341234003464343F
:10082800033400340034B13401340B340034D83488
:1008380000340D340034D83400340E340034B1346C
:10084800013412340034B1340134173400349C3488
:1008580001340034003415340034153400349C3429
:100868000134003400341534003412340034643454
:10087800033400340034B13401340B340034D83438
:1008880000340D340034D83400340E340034B1341C
:10089800013412340034B1340134133400348B344D
:1008A8000234123400346B340034103400346B34A6
:1008B80000341234003464340334133400342F34D5
:1008C80001340034003415340034123400342F3429
:1008D8000134003400341534003413340034C23485
:1008E80000340034003415340034153400348B34AB
:1008F80002341234003462340034103400346B345F
:10090800003412340034CA34063400340034B134AC
:10091800013414340034D834003416340034D83454
:10092800003417340034B13401341B340034B1348A
:1009380001341C3400348B3402341B3400346B34DF
:100948000034193400346B3400341B3400344E3412
:10095800033400340034153400341C3400342F348C
:10096800013400340034153400341B3400342F347F
:10097800013400340034153400341C340034C234DB
:10098800003400340034153400341E340034753417
:1009980002340034003415340034203400346B340D
:1009A8000034223400346B34003423340034CA3425
:1009B80006347E013810B81038113816B812CE0136
:1009C800400112147E01391440019210121192153F
:1009D8007E01B915400112169216141094101411C4
:1009E800941114129412981418151A149A141A15AA
:1009F8009A111A129A120930E1006108F100433085
:100A080087317427843151011308F8390538930068
:100A180011174B011E12F0309E051F081F39403870
:100A28009F001F121F08F03901389F009E17FF30E2
:100A380045018D00013090000E088F3960388E0016
:100A48008F178E174E019616171752010C08FC398E
:100A580001388C008C1740014208031D342D352DB8
:100A6800372D50011E17813050019B0018309A0015
:100A78001E141E18402D412D3D2D1D084001A100BA
:100A880050011C084001A0004208031D4C2D4D2DAB
:100A98004F2D50011E1341011E088F3960389E00EA
:100AA800FC309E051D08033978389D009E174001CB
:100AB8004208031D602D612D632D41011D147E0127
:100AC8003E143D14BE15BD15BE16BD164E011610BA
:100AD8000B1716168B1740011A116430F1000030FD
:100AE800F2008731D927843140011A156430F100AA
:100AF8000030F2008731D927843140011A1164305F
:100B0800F1000030F2008731D927843140011A15ED
:100B18006430F1000030F2008731D9278431400178
:100B28001A116430F1000030F2008731D92784317E
:100B380040011A154001BC01BD012E082F040319FC
:100B4800A62DA72DAA2D8531CC258431400130084A
:100B580031040319B02DB12DBD2D1A119A1528088D
:100B680029040319B82DB92DBF2D8231F322843100
:100B7800BF2D1A159A1140012C082D040319C52DF3
:100B8800C62D9E2D8731C32784319E2D81311A2988
:100B980040014208031DD12DD22DD42D41011D1431
:100BA80041019D1440014208031DDB2DDC2DE12D80
:100BB80041019D18E02DE12DDC2D41011C0840016B
:100BC800A30041011B084001A2004208031DED2DAE
:100BD800EE2D2D2E2208F1002308F200F301F40176
:100BE8002008D5002108D600D701D8010A30D5350C
:100BF800D60DD70DD80D890BFB2D5808F8005708CE
:100C0800F7005608F6005508F5008631B2268531FA
:100C180074084001DC007308DB007208DA00710810
:100C2800D9000030F4000030F3000030F2000A3040
:100C3800F1005C08F8005B08F7005A08F60059084C
:100C4800F5008631B226853172084001A500710889
:100C5800A40001302502A03003192402031C352EFC
:100C6800362E452E981018111A109A1026082704A7
:100C780003193F2E402EA02E0130AC000030AD00ED
:100C8800A02E013025028F3003192402031C4D2E9B
:100C98004E2E602E981018111A10260827040319D2
:100CA800562E572EA02E3E0803195B2E5C2E5E2E64
:100CB8009A10A02E9A14A02E013025028130031913
:100CC8002402031C682E692E7A2E98101811260803
:100CD80027040319702E712E5E2E3E080319752EF7
:100CE800762E782E1A105E2E1A145E2E01302502EA
:100CF800783003192402031C822E832E952E981017
:100D0800260827040319892E8A2E922E3E080319D5
:100D18008E2E8F2E912E1811922E18151A149A14A1
:100D2800A02E3E080319992E9A2E9C2E98109D2EBF
:100D3800981418151A149A14260827040319A52EAE
:100D4800A62EB12E0130D5005508BE06F430F100AC
:100D58000130F2008731D927853108004001D001E0
:100D6800F41FB72EB82EC52EF109F209F309F409BC
:100D7800F10A0319F20A0319F30A0319F40AD00154
:100D8800D00AF81FC82EC92ED82EF509F609F7097A
:100D9800F809F50A0319F60A0319F70A0319F80AF4
:100DA8000130F9007908D0060030D4000030D300B3
:100DB8000030D2000030D10074087304720471044A
:100DC8000319E72EE82E292FCF01CF0AF62E01307E
:100DD800F135F20DF30DF40D890BEC2E0130F9000D
:100DE8007908CF07F41FF92EFA2EEB2E0130D135F2
:100DF800D20DD30DD40D890BFB2E74087802031D78
:100E08000F2F73087702031D0F2F72087602031D38
:100E18000F2F71087502031C122F132F1C2F710836
:100E2800F5027208F63B7308F73B7408F83B511457
:100E38000130F436F30CF20CF10C890B1D2F013044
:100E4800CF02031D282F292FFA2E500803192D2F02
:100E58002E2F392FD109D209D309D409D10A031960
:100E6800D20A0319D30A0319D40A5408F400530800
:100E7800F3005208F2005108F100080071087204EA
:100E88000319472F482F572F4001E201E301720849
:100E98008500710884009F3084078730853D0008ED
:100EA80045018D005C2F01304001E2000030E30075
:100EB80074084001B3007308B20032083304031900
:100EC800662F672F732F3008310403196C2F6D2F8D
:100ED800732F28082904031D722F732F612F080010
:100EE800F4007408083E8600870181017408093EF1
:100EF80086008701810174080A3E86008701810106
:100F08007108F20074080B3E8600870172088100A0
:100F1800F30173087407F2007208860087018101E3
:100F28000130F2007208F30708307302031C9D2F8A
:100F38009E2F8D2F0800ED34E034D334C734BD34F0
:100F4800B234A8349E3496348D3485347D34763466
:100F580070346A3463345E34593454344F344B3407
:100F6800463442343F343B343834343432342F340A
:100F78002C342A3427342534233421341F344001B7
:100F8800BC01BD010030F100F2006430F300003014
:100F9800F40087314227873140019A1198141815B7
:100FA8001A149A141A156300080072084001B30055
:100FB8007108B20032083304031DE32FE42FDE2F3B
:100FC8000800640080010131890BE62F00340134E8
:020FD8000034E3
:020000040001F9
:04000E00CF3F263F7B
:04001400FF1FFF3F8C
:00000001FF
