:100000008031E628013400347E1480314E010C1E0C
:100010000A280B2856287E01BF1E0F2810282D28DD
:10002000BF1240018C1E152816282128D601D701A1
:100030000130D4000030D500CE01CF01D201D30170
:100040002D28D601D7010130D4000030D500CE01D3
:10005000CF01D201D30150010C107E013F1C312889
:10006000322856283F1040010C18372838284628D7
:100070008C1A3B283C284628D201D3010130D600F7
:100080000030D7000130D4000030D5000C1C4928C6
:100090004A2856288C1A4D284E285628D401D501B6
:1000A000D601D7010130D2000030D3004E010D1F20
:1000B0005A285B287528400165086604031D6128DD
:1000C000622871280130DA060030DB065A085B042A
:1000D00003196B286C2873280130DE060030DF0618
:1000E0007328DE01DF014E010D138C1E782879285C
:1000F000E4280F307C0203187E287F2884280130F2
:10010000F6007608FC07C028400164080319892816
:100110008A288D28F901FA01972879087A040319A9
:100120009228932897280130F9020030FA3BFC010D
:100130005608570403199D289E28C02805307B02C5
:100140000318A328A428A9280130F6007608FB0785
:10015000C0280C08F6007608F000A0308E31B426D6
:1001600080310830F6007608F000A0308D314F2540
:100170008031F700F80177084001CE007808CF0001
:1001800040015E085F04031DC628C728CD2860080B
:1001900061040319CC28CD28E0280130FD067D1824
:1001A000D228D52840011A16D72840011A127D1CE2
:1001B000DA28DD2840019A16DF2840019A12E22849
:1001C0001A129A124E018C127E1009008031E82812
:1001D000803102208031E500803103208031E6004B
:1001E000FD01F901FA01FB01FC01443084000030FB
:1001F000850021308D3149258031A03084000030C8
:1002000085000C308D31492580317E1040018731C9
:10021000172F3E304001A2000630A30012308D316E
:100220009F25813166304001A2000130A3001030CB
:100230008D319F25813128304001A2000030A3007C
:1002400000308D319F25813166304001A2000130A0
:10025000A3000E308D319F25813128304001A2004E
:100260000030A30000308D319F2581316630400180
:10027000A2000130A3000D308D319F25813128303F
:100280004001A2000030A30000308D319F25813154
:1002900066304001A2000130A3000B308D319F2554
:1002A000813128304001A2000030A30000308D31A0
:1002B0009F258131AE304001A2000430A3001330ED
:1002C0008D319F258131C6304001A2000030A3004E
:1002D00012308D319F258131C6304001A20000309F
:1002E000A30010308D319F25813169304001A2007B
:1002F0000530A3000D308D319F25813150304001F4
:10030000A2000030A30000308D319F2581313E30A6
:100310004001A2000630A30012308D319F258131AB
:100320007A304001A2000130A3000E308D319F25AC
:10033000813114304001A2000030A30000308D3123
:100340009F2581317A304001A2000130A300103096
:100350008D319F25813114304001A2000030A3006F
:1003600000308D319F2581317A304001A20001306B
:10037000A30012308D319F25813114304001A2003D
:100380000030A30000308D319F2581317A3040014B
:10039000A2000130A30010308D319F25813114302F
:1003A0004001A2000030A30000308D319F25813133
:1003B000F6304001A2000230A30010308D319F259D
:1003C000813128304001A2000030A30000308D317F
:1003D0009F258131F6304001A2000230A300133086
:1003E0008D319F25813128304001A2000030A300CB
:1003F00000308D319F25813169304001A2000530E8
:10040000A30016308D319F25813150304001A2006C
:100410000030A30000308D319F2581310A3040012A
:10042000A2000330A3000E308D319F25813114309E
:100430004001A2000030A30000308D319F258131A2
:100440007A304001A2000130A3000D308D319F258C
:10045000813114304001A2000030A30000308D3102
:100460009F25813166304001A2000130A3000B308E
:100470008D319F25813128304001A2000030A3003A
:1004800000308D319F2581311E304001A2000330A4
:10049000A3000D308D319F258131F6304001A2003F
:1004A0000230A30010308D319F258131283040016A
:1004B000A2000030A30000308D319F258131F6303D
:1004C0004001A2000230A30010308D319F25813100
:1004D00028304001A2000030A30000308D319F255C
:1004E000813166304001A2000130A3000E308D3111
:1004F0009F25813128304001A2000030A300003048
:100500008D319F25813166304001A2000130A3006A
:100510000D308D319F25813128304001A2000030FF
:10052000A30000308D319F2581311E304001A20093
:100530000330A3000E308D319F258131F63040010C
:10054000A2000230A30012308D319F258131283066
:100550004001A2000030A30000308D319F25813181
:10056000F6304001A2000230A30012308D319F25E9
:10057000813128304001A2000030A30000308D31CD
:100580009F25813166304001A2000130A300113067
:100590008D319F25813128304001A2000030A30019
:1005A00000308D319F25813166304001A20001303D
:1005B000A3000F308D319F25813128304001A200EA
:1005C0000030A30000308D319F2581311E30400165
:1005D000A2000330A30011308D319F258131F63008
:1005E0004001A2000230A30014308D319F258131DB
:1005F00028304001A2000030A30000308D319F253B
:100600008131F6304001A2000230A30014308D3158
:100610009F25813128304001A2000030A300003026
:100620008D319F25813166304001A2000130A30049
:1006300012308D319F25813128304001A2000030D9
:10064000A30000308D319F25813166304001A2002A
:100650000130A30011308D319F25813128304001B8
:10066000A2000030A30000308D319F258131EE3093
:100670004001A2000530A30016308D319F25813145
:1006800050304001A2000030A30000308D319F2582
:1006900081313E304001A2000630A30012308D317E
:1006A0009F25813166304001A2000130A300103047
:1006B0008D319F25813128304001A2000030A300F8
:1006C00000308D319F25813166304001A20001301C
:1006D000A3000E308D319F25813128304001A200CA
:1006E0000030A30000308D319F25813166304001FC
:1006F000A2000130A3000D308D319F2581312830BB
:100700004001A2000030A30000308D319F258131CF
:1007100066304001A2000130A3000B308D319F25CF
:10072000813128304001A2000030A30000308D311B
:100730009F258131AE304001A2000430A300133068
:100740008D319F258131C6304001A2000030A300C9
:1007500012308D319F258131C6304001A20000301A
:10076000A30010308D319F25813169304001A200F6
:100770000530A3000D308D319F258131503040016F
:10078000A2000030A30000308D319F2581313E3022
:100790004001A2000630A30012308D319F25813127
:1007A0007A304001A2000130A3000E308D319F2528
:1007B000813114304001A2000030A30000308D319F
:1007C0009F2581317A304001A2000130A300103012
:1007D0008D319F25813114304001A2000030A300EB
:1007E00000308D319F2581317A304001A2000130E7
:1007F000A30012308D319F25813114304001A200B9
:100800000030A30000308D319F2581317A304001C6
:10081000A2000130A30010308D319F2581311430AA
:100820004001A2000030A30000308D319F258131AE
:10083000F6304001A2000230A30010308D319F2518
:10084000813128304001A2000030A30000308D31FA
:100850009F258131F6304001A2000230A300133001
:100860008D319F25813128304001A2000030A30046
:1008700000308D319F258131B9304001A200053013
:10088000A30016308D319F25813128304001A20010
:100890000030A30000308D319F2581310A304001A6
:1008A000A2000330A30017308D319F258131143011
:1008B0004001A2000030A30000308D319F2581311E
:1008C0006F304001A2000030A30017308D319F250A
:1008D000813114304001A2000030A30000308D317E
:1008E0009F2581316F304001A2000030A3001730F6
:1008F0008D319F25813114304001A2000030A300CA
:1009000000308D319F2581316F304001A2000030D1
:10091000A30017308D319F25813114304001A20092
:100920000030A30000308D319F2581310A30400115
:10093000A2000330A30017308D319F258131143080
:100940004001A2000030A30000308D319F2581318D
:100950006F304001A2000030A30017308D319F2579
:10096000813114304001A2000030A30000308D31ED
:100970009F2581316F304001A2000030A300173065
:100980008D319F25813114304001A2000030A30039
:1009900000308D319F2581316F304001A200003041
:1009A000A30017308D319F25813114304001A20002
:1009B0000030A30000308D319F2581316F30400120
:1009C000A2000030A30017308D319F2581311430F3
:1009D0004001A2000030A30000308D319F258131FD
:1009E0001E304001A2000330A30017308D319F2537
:1009F00081310800D8304001A2000030A3000B3044
:100A00008D319F258431D8304001A2000030A300F1
:100A10000D308D319F2584319C304001A200013082
:100A2000A3000E308D319F25843115304001A20086
:100A30000030A30000308D319F258431A730400164
:100A4000A2000130A30012308D319F258431153072
:100A50004001A2000030A30000308D319F25843179
:100A60008B304001A2000230A30013308D319F254E
:100A700084316B304001A2000030A30012308D3170
:100A80009F2584316B304001A2000030A30010305C
:100A90008D319F25843164304001A2000330A300D2
:100AA00012308D319F258431B1304001A2000130D8
:100AB000A30000308D319F258431D8304001A20041
:100AC0000030A3000B308D319F258431D830400198
:100AD000A2000030A3000D308D319F258431B1304C
:100AE0004001A2000130A3000E308D319F258431DA
:100AF000B1304001A2000130A30012308D319F259A
:100B000084319C304001A2000130A30017308D31A8
:100B10009F25843115304001A2000030A300003031
:100B20008D319F2584319C304001A2000130A3000B
:100B300015308D319F25843115304001A2000030E1
:100B4000A30000308D319F25843164304001A20024
:100B50000330A30012308D319F258431B130400124
:100B6000A2000130A30000308D319F258431D830A0
:100B70004001A2000030A3000B308D319F2584314D
:100B8000D8304001A2000030A3000D308D319F25E8
:100B90008431B1304001A2000130A3000E308D310C
:100BA0009F258431B1304001A2000130A3001230F2
:100BB0008D319F2584318B304001A2000230A3008B
:100BC00013308D319F2584316B304001A2000030FD
:100BD000A30012308D319F2584316B304001A2007B
:100BE0000030A30010308D319F25843164304001E6
:100BF000A2000330A30012308D319F2584312F30A5
:100C00004001A2000130A30013308D319F258431B3
:100C100015304001A2000030A30000308D319F2527
:100C200084312F304001A2000130A30012308D31F9
:100C30009F25843115304001A2000030A300003010
:100C40008D319F258431C2304001A2000030A300C5
:100C500013308D319F25843115304001A2000030C2
:100C6000A30000308D319F2584318B304001A200DC
:100C70000230A30015308D319F2584316230400150
:100C8000A2000030A30012308D319F2584316B30DB
:100C90004001A2000030A30010308D319F25843127
:100CA000CA304001A2000630A30012308D319F25CA
:100CB0008431B1304001A2000130A30000308D31F9
:100CC0009F258431D8304001A2000030A3001430A9
:100CD0008D319F258431D8304001A2000030A3001F
:100CE00016308D319F258431B1304001A200013092
:100CF000A30017308D319F258431B1304001A2000F
:100D00000130A3001B308D319F2584318B30400191
:100D1000A2000230A3001C308D319F2584316B303E
:100D20004001A2000030A3001B308D319F2584318B
:100D30006B304001A2000030A30019308D319F2597
:100D400084314E304001A2000330A3001B308D31AE
:100D50009F25843115304001A2000030A3000030EF
:100D60008D319F2584312F304001A2000130A30036
:100D70001C308D319F25843115304001A200003098
:100D8000A30000308D319F2584312F304001A20017
:100D90000130A3001B308D319F2584311530400177
:100DA000A2000030A30000308D319F258431C23075
:100DB0004001A2000030A3001C308D319F258431FA
:100DC00015304001A2000030A30000308D319F2576
:100DD000843175304001A2000230A3001E308D31F5
:100DE0009F25843115304001A2000030A30000305F
:100DF0008D319F2584316B304001A2000030A3006B
:100E000020308D319F2584316B304001A2000030AD
:100E1000A30022308D319F258431CA304001A200C9
:100E20000630A30023308D319F25843108007E01D8
:100E30003810B81038113816B812CE01400112140B
:100E40007E01391440019210121192157E01B915DC
:100E500040011216921614109410141194111412C9
:100E60009412981418151A149A141A159A111A1221
:100E70009A120930C3004308A000A0308D317325B9
:100E8000873151011308F8390538930011174B01C8
:100E90001E12F0309E051F081F3940389F001F1298
:100EA0001F08F03901389F009E17FF3045018D0063
:100EB000013090000E088F3960388E008F178E1722
:100EC0004E019616171752010C08FC3901388C0098
:100ED0008C1740016408031D6E2F6F2F712F500176
:100EE0001E17813050019B0018309A001E141A08FA
:100EF0004001C40050011B084001C500C601C701E4
:100F00006408031D842F852F872F50011E13410174
:100F10001E088F3960389E00FC309E051D0803397D
:100F200078389D009E179F0140016408031D992F8A
:100F30009A2F9C2F41011D147E013E143D144E0139
:100F400016100B1716168B1740011A116430A000EB
:100F50000030A1008D315725873140011A156430CA
:100F6000A0000030A1008D315725873140011A11B2
:100F70006430A0000030A1008D3157258731400139
:100F80001A156430A0000030A1008D31572587313B
:100F900040011A116430A0000030A1008D315725A6
:100FA000873140011A1540014E084F040319D92F0B
:100FB000DA2FDD2F8D31FF2587314001540855048C
:100FC0000319E32FE42FE72F8F31132787314001D7
:100FD000560857040319ED2FEE2FF12F1A119A1509
:100FE000F32F1A159A11520853040319F82FF92FE9
:100FF000D32F8D3163258731D32F8031E628ED340F
:10100000E034D334C734BD34B234A8349E3496347B
:101010008D3485347D34763470346A3463345E3490
:10102000593454344F344B34463442343F343B34D7
:101030003834343432342F342C342A3427342534A1
:06104000233421341F34AB
:101A9200640080010131890B4A2D0034F100710884
:101AA200093E8600870101087005080040012108EF
:101AB200FA002008F90079087A04031D612D622DCD
:101AC2005C2D08004001E001E1019A1198141815FB
:101AD2001A149A141A1550010C08C1391A388C00BC
:101AE200630008004001A3002308083E8600870126
:101AF20081012308093E86008701810123080A3EED
:101B02008600870181012008A10023080B3E860080
:101B1200870121088100A20122082307A1002108D0
:101B22008600870181010130A1002108A207083047
:101B32002202031C9D2D9E2D8D2D08004001A40024
:101B42004E084F040319A62DA72DC62D24080319EC
:101B5200AB2DAC2DB92DE501E6012408FF3E840032
:101B620087300318013E8500000845018D00BD2D18
:101B72000130E5000030E60040012308A100220800
:101B8200A0008D3157258D31CA2D0130E50000307E
:101B9200E600080000304001AB000030AA0000302F
:101BA200A9000030A800201CD72DD82DE02D240834
:101BB200A8072508A93D2608AA3D2708AB3D013004
:101BC200A435A50DA60DA70D890BE12D0130A33675
:101BD200A20CA10CA00C890BE82D230822042104DD
:101BE2002004031DF52DF62DD42D2B08A3002A0861
:101BF200A2002908A1002808A00008000130400125
:101C0200E0000030E1000130A5002508E3070530BF
:101C12006302031C0D2E0E2E432EE301E30A432E14
:101C2200981018151A149A144E084F04031D1A2EF0
:101C32001B2E152E562E981018151A109A10E830D1
:101C4200A0000330A1008D3157258D314001E00104
:101C5200E1018431FA248D314001E001E101562E87
:101C6200981418151A109A14E830A0000330A10035
:101C72008D3157258D314001E001E101813109218A
:101C82008D312D2E6308A500A6012608003A0319FE
:101C92004B2E562E2508013A0319112E033A031929
:101CA2001C2E013A0319312E562ED601D7010800F7
:101CB20000304001B8000030B7000030B6000030FC
:101CC200B5002F082E042D042C040319692E6A2E48
:101CD200AB2EB901B90A782E0130AC35AD0DAE0D7F
:101CE200AF0D890B6E2E0130B4003408B907AF1F57
:101CF2007B2E7C2E6D2E0130B535B60DB70DB80D8D
:101D0200890B7D2E2F083302031D912E2E083202DD
:101D1200031D912E2D083102031D912E2C08300235
:101D2200031C942E952E9E2E2C08B0022D08B13B3A
:101D32002E08B23B2F08B33B35140130AF36AE0C40
:101D4200AD0CAC0C890B9F2E0130B902031DAA2EDB
:101D5200AB2E7C2E3808AF003708AE003608AD0037
:101D62003508AC000800F500750886008701493F78
:101D7200F30075080B3E8600870101087006F1002A
:101D82007508083E8600870101087507F20072088F
:101D92008600870171088100F401FF30F1007508A7
:101DA200093E860087017108810074087507F100F9
:101DB2007108860087010108F2007508093E860055
:101DC2008701720881050130F1007108F4070830BB
:101DD2007402031CED2EEE2ED62E0130F100750892
:101DE200083E86008701710881077508083E860053
:101DF200870108300102031CFF2E002F052F7508F2
:101E0200083E8600870181017508093E8600870128
:101E120001087306F10075080A3E86008701710801
:101E22008100080040016408031D182F192F1B2F81
:101E320041011D1441019D1440016408031D222F1C
:101E4200232F282F41019D18272F282F232F4101AF
:101E52001C084001C90041011B084001C800640878
:101E6200031D342F352F7B2F4808AC004908AD00E5
:101E7200AE01AF014708A3004608A2004508A10031
:101E82004408A0000030A7000030A6000430A500DE
:101E9200B430A4008D31CB258F3140012308B3002B
:101EA2002208B2002108B1002008B0008E31592664
:101EB2008F3140012F08BE002E08BD002D08BC0046
:101EC2002C08BB000030AF000030AE000030AD0087
:101ED2000A30AC003E08B3003D08B2003C08B10035
:101EE2003B08B0008E3159268F3140012D08CB00BE
:101EF2002C08CA0001304B02A03003194A02031C0D
:101F0200832F842F932F981018111A109A104C08AF
:101F12004D0403198D2F8E2FEE2F0130D200003089
:101F2200D300EE2F01304B028F3003194A02031CFB
:101F32009B2F9C2FAE2F981018111A104C084D048D
:101F42000319A42FA52FEE2F62080319A92FAA2F78
:101F5200AC2F9A10EE2F9A14EE2F01304B028130E3
:101F620003194A02031CB62FB72FC82F9810181155
:101F72004C084D040319BE2FBF2FAC2F6208031962
:101F8200C32FC42FC62F1A10AC2F1A14AC2F013036
:101F92004B02783003194A02031CD02FD12FE32FB2
:101FA20098104C084D040319D72FD82FE02F620840
:101FB2000319DC2FDD2FDF2F1811E02F18151A144B
:101FC2009A14EE2F62080319E72FE82FEA2F9810D0
:101FD200EB2F981418151A149A144C084D0403196F
:101FE200F32FF42FFF2F0130BA003A08E206F43043
:0E1FF200A0000130A1008D3157258F3108006D
:020000040001F9
:04000E00CF3F263F7B
:04001400FF1FFF3F8C
:00000001FF
