:1000000081310B29013400347E1480314E018D1E64
:100010000A280B287128FE3044018D0055308C00D1
:10002000400143080319152816281A280F30F0003C
:100030007008C2000F30420203181F28202825280C
:100040000130F0007008C20742284308031929282C
:100050002A282D28B201B3013728320833040319A6
:100060003228332837280130B2020030B33BC201B6
:100070000530410203183D283E2842280130F00097
:100080007008C1073A083B04031D472848284E283A
:100090003C083D0403194D284E286D2830083104D2
:1000A0000319532854286D282808290403195928AE
:1000B0005A286D280130FC067C185F286228400110
:1000C0001A16642840011A127C1C67286A2840010D
:1000D0009A166C2840019A126F281A129A124E0131
:1000E0008D128C1E742875288F28400163086404C3
:1000F000031D7B287C288B280130B6060030B7060C
:10010000360837040319852886288D280130BA0659
:100110000030BB068D28BA01BB014E018C120C1EAB
:100120009228932809297E013F1E97289828AB28FA
:100130003F1240010C1A9D289E28A7280130A600D6
:100140000030A7000130AE000030AF00AB28A601A0
:10015000A701AE01AF017E013F1CAF28B028D8280F
:100160003F1040010C18B528B628C6280C1EB92827
:10017000BA28C628AC01AD010130B0000030B10092
:100180000130AE000030AF00C001C00A0C1CC9280D
:10019000CA28D8280C1ECD28CE28D828AE01AF01F9
:1001A000B001B1010130AC000030AD00BC01BD01B7
:1001B0007E01BF1DDC28DD280929BF1140018C19F3
:1001C000E228E328F7280C18E628E728F7280C1E71
:1001D000EA28EB28F728AC01AD010130B00000306F
:1001E000B100AE01AF010130A8000030A9008C1DA4
:1001F000FA28FB2809290C18FE28FF2809290C1EBB
:100200000229032909290130AE000030AF00A801FE
:10021000A9017E10090081310D2980310220813130
:10022000E300803103208131E400FC01FA01FB018D
:10023000203084000030850030308F31A827813194
:100240007E1040018231E42A1E3400343E340634EC
:100250001C34003466340134003400342834003453
:100260001A34003466340134003400342834003445
:100270001934003466340134003400342834003436
:100280001734003466340134003400342834003428
:100290001F340034AE3404341E340034C634003409
:1002A0001C340034C6340034193400346934053445
:1002B00000340034503400341E3400343E340634EC
:1002C0001A3400347A3401340034003414340034E5
:1002D0001C3400347A3401340034003414340034D3
:1002E0001E3400347A3401340034003414340034C1
:1002F0001C3400347A3401340034003414340034B3
:100300001C340034F6340234003400342834003411
:100310001F340034F63402340034003428340034FE
:10032000223400346934053400340034503400344D
:100330001A3400340A3403340034003414340034E2
:10034000193400347A340134003400341434003465
:100350001734003466340134003400342834003457
:10036000193400341E3403341C340034F63402349F
:1003700000340034283400341C340034F6340234A1
:1003800000340034283400341A3400346634013424
:100390000034003428340034193400346634013415
:1003A00000340034283400341A3400341E3403344A
:1003B0001E340034F634023400340034283400345F
:1003C0001E340034F634023400340034283400344F
:1003D0001D340034663401340034003428340034D1
:1003E0001B340034663401340034003428340034C3
:1003F0001D3400341E34033420340034F634023407
:10040000003400342834003420340034F63402340C
:1004100000340034283400341E340034663401348F
:1004200000340034283400341D3400346634013480
:10043000003400342834003422340034EE340534DF
:1004400000340034503400341E3400343E3406345A
:100450001C34003466340134003400342834003451
:100460001A34003466340134003400342834003443
:100470001934003466340134003400342834003434
:100480001734003466340134003400342834003426
:100490001F340034AE3404341E340034C634003407
:1004A0001C340034C6340034193400346934053443
:1004B00000340034503400341E3400343E340634EA
:1004C0001A3400347A3401340034003414340034E3
:1004D0001C3400347A3401340034003414340034D1
:1004E0001E3400347A3401340034003414340034BF
:1004F0001C3400347A3401340034003414340034B1
:100500001C340034F634023400340034283400340F
:100510001F340034F63402340034003428340034FC
:1005200022340034B9340534003400342834003423
:10053000233400340A3403340034003414340034D7
:10054000233400346F340034003400341434003465
:10055000233400346F340034003400341434003455
:10056000233400346F340034003400341434003445
:10057000233400340A340334003400341434003497
:10058000233400346F340034003400341434003425
:10059000233400346F340034003400341434003415
:1005A000233400346F340034003400341434003405
:1005B000233400346F3400340034003414340034F5
:1005C000233400341E3403347E013810B81038113F
:1005D0003812CE01400112147E01391440019210EC
:1005E000121192157E01B915400112167E013916BD
:1005F00040019216141094101411941114129412B4
:10060000981418151A149A141A159A111A129A1283
:100610000930E2006208F10044308F31D527823181
:1006200051011308F8390538930011174B011E12B8
:10063000F0309E051F081F3940389F001F121F0809
:10064000F03906389F009E17CF3044018E058E107A
:1006500001309100FE308D0055308C000E140130B9
:10066000450190000E088F3960388E008F178E1765
:100670004E019616971652010C08FC3901388C0071
:100680008C1740014308031D462B472B492B500173
:100690001E17813050019B0018309A001E14400133
:1006A0004308031D542B552B5A2B50011E18592B50
:1006B0005A2B552B50011D084001A10050011C0868
:1006C0004001A0004308031D662B672B692B5001D6
:1006D0001E1341011E088F3960389E00FC309E05B4
:1006E0001D08033978389D009E1740014308031DFB
:1006F0007A2B7B2B7D2B41011D147E013E143D1472
:10070000BE15BD153E163D164E0116100B171616DA
:100710008B1740011A116430F1000030F2008F3164
:10072000AE27823140011A156430F1000030F2002A
:100730008F31AE27823140011A116430F100003050
:10074000F2008F31AE27823140011A156430F1007A
:100750000030F2008F31AE27823140011A1164302F
:10076000F1000030F2008F31AE27823140011A15BE
:100770004001BC01BD0140080319BF2BC02BC42B95
:10078000873145278231B82B2E082F040319C92B36
:10079000CA2BCD2B8531D925823140013008310457
:1007A0000319D32BD42BE02B1A119A1528082904EE
:1007B0000319DB2BDC2BE22B8331EF238231E22B7D
:1007C0001A159A1140012C082D040319E82BE92B66
:1007D000B82B8F31BF278231B82B81310B290130E3
:1007E0004001BC000030BD000130F5007508BF07B6
:1007F00004303F02031CFD2BFE2BCC2CBF01BF0A93
:10080000CC2C981018151A149A14280829040319C6
:100810000A2C0B2CDF2C30083104031D102C112C5A
:10082000052CDF2C981418111A149A14E830B20011
:100830000330B3003208330403191F2C202C2C2C56
:10084000300831040319252C262C2C2C28082904C7
:10085000031D2B2C2C2C1A2CBC01BD01FA01FB0111
:10086000582C7B0885007A0884008435850D8435F2
:10087000850DE93084078430853D003FF100013F5C
:10088000F2007B0885007A0884008435850D843564
:10089000850DEB3084078430853D003FF300013F38
:1008A000F4008731B22783310130FA070030FB3D75
:1008B00000307B02F03003197A020318602C612C9F
:1008C000DF2C4001280829040319672C682CDF2C31
:1008D00030083104031D6D2C6E2C312CDF2C981444
:1008E00018151A109A14E830B2000330B300320819
:1008F000330403197C2C7D2C892C30083104031916
:10090000822C832C892C28082904031D882C892CEF
:10091000772CBC01BD01FA01FB01B52C7B088500D9
:100920007A0884008435850D8435850D243084074C
:100930008130853D003FF100013FF2007B088500DA
:100940007A0884008435850D8435850D263084072A
:100950008130853D003FF300013FF4008731B2272D
:1009600083310130FA070030FB3D01307B02C0309B
:1009700003197A020318BD2CBE2CDF2C4001280875
:1009800029040319C42CC52CDF2C30083104031DA5
:10099000CA2CCB2C8E2CDF2C3F08F500F6017608F4
:1009A000003A0319D42CDF2C7508013A0319012CE5
:1009B000033A0319122C013A03196F2CDF2C400162
:1009C000BC01BD01A801A901981418151A149A14A4
:1009D00008000B340034D83400340D340034D834DB
:1009E00000340E3400349C340134003400341534A7
:1009F000003412340034A734013400340034153488
:100A00000034133400348B340234123400346B3429
:100A10000034103400346B34003412340034643445
:100A2000033400340034B13401340B340034D8348E
:100A300000340D340034D83400340E340034B13472
:100A4000013412340034B1340134173400349C348E
:100A500001340034003415340034153400349C342F
:100A6000013400340034153400341234003464345A
:100A7000033400340034B13401340B340034D8343E
:100A800000340D340034D83400340E340034B13422
:100A9000013412340034B1340134133400348B3453
:100AA0000234123400346B340034103400346B34AC
:100AB00000341234003464340334133400342F34DB
:100AC00001340034003415340034123400342F342F
:100AD0000134003400341534003413340034C2348B
:100AE00000340034003415340034153400348B34B1
:100AF00002341234003462340034103400346B3465
:100B0000003412340034CA34063400340034B134B2
:100B1000013414340034D834003416340034D8345A
:100B2000003417340034B13401341B340034B13490
:100B300001341C3400348B3402341B3400346B34E5
:100B40000034193400346B3400341B3400344E3418
:100B5000033400340034153400341C3400342F3492
:100B6000013400340034153400341B3400342F3485
:100B7000013400340034153400341C340034C234E1
:100B8000003400340034153400341E34003475341D
:100B900002340034003415340034203400346B3413
:100BA0000034223400346B34003423340034CA342B
:100BB000063440014308031DDE2DDF2DE12D4101E8
:100BC0001D1441019D1440014308031DE82DE92D2A
:100BD000EE2D41019D18ED2DEE2DE92D41011C0852
:100BE0004001A30041011B084001A2004308031D6E
:100BF000FA2DFB2D3A2E2208F1002308F200F30112
:100C0000F4012008D6002108D700D801D9010A3004
:100C1000D635D70DD80DD90D890B082E5908F800F7
:100C20005808F7005708F6005608F5008631B52633
:100C3000853174084001DD007308DC007208DB00B8
:100C40007108DA000030F4000030F3000030F200E8
:100C50000A30F1005D08F8005C08F7005B08F60058
:100C60005A08F5008631B526853172084001A50085
:100C70007108A40001302502A03003192402031CCE
:100C8000422E432E482E981018111A109A10A32E97
:100C9000013025028F3003192402031C502E512EDF
:100CA000632E981018111A10260827040319592EBC
:100CB0005A2EA32E3E0803195E2E5F2E612E9A1027
:100CC000A32E9A14A32E0130250281300319240289
:100CD000031C6B2E6C2E7D2E9810181126082704ED
:100CE0000319732E742E612E3E080319782E792E67
:100CF0007B2E1A10612E1A14612E013025027830D5
:100D000003192402031C852E862E982E981026087F
:100D1000270403198C2E8D2E952E3E080319912E33
:100D2000922E942E1811952E18151A149A14A32E7B
:100D30003E0803199C2E9D2E9F2E9810A02E9814CD
:100D400018151A149A14260827040319A82EA92E78
:100D5000B42E0130D6005608BE06F430F100013042
:100D6000F2008F31AE27853108004001D101F41F18
:100D7000BA2EBB2EC82EF109F209F309F409F10AC3
:100D80000319F20A0319F30A0319F40AD101D10A6B
:100D9000F81FCB2ECC2EDB2EF509F609F709F80942
:100DA000F50A0319F60A0319F70A0319F80A0130BC
:100DB000F9007908D1060030D5000030D4000030A9
:100DC000D3000030D2007408730472047104031954
:100DD000EA2EEB2E2C2FD001D00AF92E0130F1355E
:100DE000F20DF30DF40D890BEF2E0130F9007908A7
:100DF000D007F41FFC2EFD2EEE2E0130D235D30D80
:100E0000D40DD50D890BFE2E74087802031D122F08
:100E100073087702031D122F72087602031D122F2A
:100E200071087502031C152F162F1F2F7108F5026C
:100E30007208F63B7308F73B7408F83B5214013014
:100E4000F436F30CF20CF10C890B202F0130D00298
:100E5000031D2B2F2C2FFD2E51080319302F312F5E
:100E60003C2FD209D309D409D509D20A0319D30AD0
:100E70000319D40A0319D50A5508F4005408F300DD
:100E80005308F2005208F10008004001400803191D
:100E90004A2F4B2FAF2F4003031D4F2F502F872F6B
:100EA0004601961703307E01A20003309100033003
:100EB00092000330A0000330A100C030FA00FF30E0
:100EC000FB0001304001B2000030B30032083304AF
:100ED000031D6B2F6C2F662F7B08460195007A0847
:100EE00094007A08C03EFA00FF307B3DFB000030E2
:100EF0007B02413003197A0203187F2F802F612F64
:100F00007E01A20191019201A001A101AF2F023047
:100F10004006031D8C2F8D2F8E2FAF2F03304006E0
:100F2000031D932F942FAF2F46018E170E160E0818
:100F3000F0390C388E00921712161208F0390C385E
:100F4000920096179A1701307E01A200013091009D
:100F5000023092000330A0000430A100AF2F400106
:100F6000C0010800710872040319B72FB82FC72FEA
:100F70004001E301E4017208850071088400E43057
:100F800084078730853D00084B019D00CC2F013040
:100F90004001E3000030E40074084001B30073082E
:100FA000B200320833040319D62FD72FE32F3008AD
:100FB00031040319DC2FDD2FE32F28082904031D3A
:100FC000E22FE32FD12F0800ED34E034D334C734BF
:100FD000BD34B234A8349E3496348D3485347D3497
:100FE000763470346A3463345E34593454344F3454
:100FF0004B34463442343F343B3438343434323466
:101000002F342C342A3427342534233421341F340C
:101F5000640080010131890BA92F0034720840010F
:101F6000B3007108B2004308031DB72FB82FBE2F6E
:101F700032083304031DBD2FBE2FB82F08004001C7
:101F8000BC01BD010030F100F2006430F30000300C
:101F9000F4008731B2278F3140019A119814181537
:101FA0001A149A141A1563000800F4007408083E05
:101FB0008600870181017408093E8600870181013E
:101FC00074080A3E8600870181017108F2007408D6
:101FD0000B3E8600870172088100F30173087407C5
:101FE000F20072088600870181010130F200720858
:101FF000F30708307302031CFE2FFF2FEE2F08009B
:020000040001F9
:04000E00CF3F263F7B
:04001400FF1FFF3F8C
:00000001FF
