:040000008131112910
:100008007E1480314E018D1E0A280B28C128FE302F
:1000180044018D0012308C000F3040014A02031851
:10002800162817281C280130F0007008CA07BF28B6
:1000380079087A0403192128222826280130F90290
:100048000030FA3BCA010330490203182C282D2836
:1000580032280130F0007008C907B1282C082D0497
:10006800031D3728382871283608370403193D2816
:100078003E2871284808031D4228432871288C1DF2
:100088004628472852282808290403194C284D28AF
:100098005F280130A8020030A93B5F280030290200
:1000A8000F300319280203185A285B285F280130EB
:1000B800A8070030A93D003029020F300319280293
:1000C800031C6728682870280130AC000030AD0098
:1000D8000F30A8000030A900C9010C1C742875282D
:1000E80080282608270403197A287B288D280130C0
:1000F800A6020030A73B8D28003027020F300319D5
:1001080026020318882889288D280130A607003080
:10011800A73D26082704031D922893289628AE0198
:10012800AF01B128003027020F3003192602031C43
:100138009E289F28B1280130AE000030AF00360855
:100148003704031DA828A928AD280130B0000030C5
:10015800B1000F30A6000030A70062086002031D3E
:10016800B72861085F020318BA28BB28BF280130E6
:10017800DF070030E03D4E018D128C1EC428C528D3
:10018800E4284001440845040319CB28CC28D22888
:1001980003307E01A4000430A500E2284008410491
:1001A8000319D728D828DF287E012408031DDD2855
:1001B800DE28DF28CC287E01A401A5014E018C127F
:1001C8000C1EE728E8280F297E013F1EEC28ED28A1
:1001D800FE283F1240010C1AF228F328FC28B60129
:1001E800B701B201B3010130AA000030AB00FE280C
:1001F800AA01AB017E013F1C022903290F293F10E8
:1002080040010C18082909290F290130AE000030D7
:10021800AF00B201B3017E100900813113298E317C
:100228008A268131DF008E318B268131E0008E31C4
:100238008C268131E1008E318D268131E200F90171
:10024800FA01FB01FC01E301203084000030850045
:100258002C308E318E2681317E1040018231F82A71
:100268001E3400343E3406341C3400346634013401
:1002780000340034283400341A340034663401342D
:10028800003400342834003419340034663401341E
:100298000034003428340034173400346634013410
:1002A80000340034283400341F340034AE340434AD
:1002B8001E340034C63400341C340034C6340034D0
:1002C80019340034693405340034003450340034AF
:1002D8001E3400343E3406341A3400347A3401347F
:1002E80000340034143400341C3400347A340134BB
:1002F80000340034143400341E3400347A340134A9
:1003080000340034143400341C3400347A3401349A
:1003180000340034143400341C340034F63402340D
:1003280000340034283400341F340034F6340234E6
:10033800003400342834003422340034693405345D
:1003480000340034503400341A3400340A3403348E
:100358000034003414340034193400347A3401344D
:100368000034003414340034173400346634013453
:100378000034003428340034193400341E34033473
:100388001C340034F6340234003400342834003489
:100398001C340034F6340234003400342834003479
:1003A8001A340034663401340034003428340034FC
:1003B80019340034663401340034003428340034ED
:1003C8001A3400341E3403341E340034F634023434
:1003D80000340034283400341E340034F634023437
:1003E80000340034283400341D34003466340134B9
:1003F80000340034283400341B34003466340134AB
:1004080000340034283400341D3400341E340334DE
:1004180020340034F63402340034003428340034F4
:1004280020340034F63402340034003428340034E4
:100438001E34003466340134003400342834003467
:100448001D34003466340134003400342834003458
:1004580022340034EE34053400340034503400348F
:100468001E3400343E3406341C34003466340134FF
:1004780000340034283400341A340034663401342B
:10048800003400342834003419340034663401341C
:10049800003400342834003417340034663401340E
:1004A80000340034283400341F340034AE340434AB
:1004B8001E340034C63400341C340034C6340034CE
:1004C80019340034693405340034003450340034AD
:1004D8001E3400343E3406341A3400347A3401347D
:1004E80000340034143400341C3400347A340134B9
:1004F80000340034143400341E3400347A340134A7
:1005080000340034143400341C3400347A34013498
:1005180000340034143400341C340034F63402340B
:1005280000340034283400341F340034F6340234E4
:10053800003400342834003422340034B93405340B
:100548000034003428340034233400340A340334AB
:100558000034003414340034233400346F3400344D
:100568000034003414340034233400346F3400343D
:100578000034003414340034233400346F3400342D
:100588000034003414340034233400340A3403347F
:100598000034003414340034233400346F3400340D
:1005A8000034003414340034233400346F340034FD
:1005B8000034003414340034233400346F340034ED
:1005C8000034003414340034233400346F340034DD
:1005D8000034003414340034233400341E3403341B
:1005E80000340034143400347E013810B810381147
:1005F8003812CE01400112147E01391440019210C4
:10060800121192157E01B915400112167E01391694
:10061800400192161410941014119411141294128B
:10062800981418151A149A141A159A111A129A125B
:1006380051011308F839053893001117CF304401D8
:100648008E058E1001309100FE308D0012308C0026
:100658000E140130450190000E088F3960388E0065
:100668008F178E174E01971652010C08FC39013866
:100678008C008C1750011E1781309B0018309A008F
:100688001E141E18482B492B452B1D084001A1009C
:1006980050011C084001A00050011E1341011E0812
:1006A8008F3960389E00FC309E051D080339783864
:1006B8009D009E171D147E013E143E163D164E01E8
:1006C80016100B1716168B17C8304001E100AF3013
:1006D800E2006208E0006108DF003D30BE00003043
:1006E800BF007130BC000030BD001A116430F10049
:1006F8000030F2008E319426823140011A156430A0
:10070800F1000030F2008E319426823140011A1136
:100718006430F1000030F2008E31942682314001BD
:100728001A156430F1000030F2008E3194268231BF
:1007380040011A116430F1000030F2008E31942625
:10074800823140011A154001C401C5012E082F0449
:10075800031DAF2BB02BBE2BB401B501B601B701F9
:10076800C401C501AC01AD019A111A1598141815E8
:100778001A149A142E082F04031DC32BC42BE42B20
:1007880062086002031DCA2B61085F02031CCD2B9F
:10079800CE2BE42B36083704031DD32BD42BE42BA4
:1007A80030083104031DD92BDA2BE42B2A082B043B
:1007B800031DDF2BE02BE42B0130B2000030B30027
:1007C8002E082F040319E92BEA2B022C30083104D8
:1007D8000319EF2BF02B022C2A082B04031DF52BF1
:1007E800F62B022C0130B6000030B7000130B400FF
:1007F8000030B500B001B101C801C80A3608370495
:100808000319072C082C102C480803190C2C0D2C44
:10081800102C873183278231400134083504031DA9
:10082800162C172C1D2C2A082B0403191C2C1D2CE4
:10083800202C8631B226823140013608370403194C
:10084800262C272C392C62086002031D2D2C6108E8
:100858005F02031C302C312C392C2A082B04031D71
:10086800362C372C392C9A151A11360837040319E7
:100878003E2C3F2C512C62086002031D452C610858
:100888005F020318482C492C512C4808031D4D2C95
:100898004E2C512C8F31682782314001360837049D
:1008A8000319572C582C712C2C082D0403195D2C76
:1008B8005E2C712C62086002031D642C61085F02C3
:1008C800031C672C682C712C2A082B04031D6D2C23
:1008D8006E2C712C84317E2482314001320833041D
:1008E8000319772C782CA72B8E319F268231A72BC2
:1008F800813111294B011E12F0309E051F081F3946
:1009080040389F001F121F08F03907389F009E17B4
:10091800FF309D004E01961645018E130130900060
:100928000E088F3910388E008F178E1746019617CC
:1009380016129A171A167F309500E03094007F300F
:100948009900E030980040011A129A120130C40050
:100958000030C5000130F5007508C70704304702AC
:10096800031CB72CB82C932DC701C70A932D9810D8
:1009780018151A149A14B830F9000B30FA007908CF
:100988007A040319C82CC92CA62D2E082F04031D80
:10099800CE2CCF2CC32CA62D981418111A149A14E7
:1009A800E830F9000330FA0079087A040319DD2CDD
:1009B800DE2CE42C2E082F04031DE32CE42CD82C69
:1009C800C401C501FB01FC01102D7C0885007B08D2
:1009D80084008435850D8435850DBE3084078530C7
:1009E800853D003FF100013FF2007C0885007B084F
:1009F80084008435850D8435850DC03084078530A5
:100A0800853D003FF300013FF4008E31AC26843170
:100A18000130FB070030FC3D40013F087C02031D0C
:100A2800172D3E087B0203181A2D1B2D212D2E0889
:100A38002F04031D202D212DE92CC401C5013F08D9
:100A48007C06031D292D3E087B06031D2C2D2D2D0C
:100A5800A62DDF01E001A62D981418151A109A1476
:100A6800E830F9000330FA0079087A0403193D2DBB
:100A78003E2D442D2E082F04031D432D442D382DC3
:100A8800C401C501FB01FC01702D7C0885007B08B1
:100A980084008435850D8435850D34308407813094
:100AA800853D003FF100013FF2007C0885007B088E
:100AB80084008435850D8435850D36308407813072
:100AC800853D003FF300013FF4008E31AC268431B0
:100AD8000130FB070030FC3D40013D087C02031D4E
:100AE800772D3C087B0203187A2D7B2D812D2E084B
:100AF8002F04031D802D812D492DC401C5013D08FA
:100B08007C06031D892D3C087B06031D8C2D8D2D2D
:100B1800A62D2D2DDF01E001C401C501A62D470832
:100B2800F500F6017608003A03199B2D8E2D7508FD
:100B3800013A0319BB2C033A0319D02C013A0319C3
:100B4800302D8E2DC401C501C001C1014B019E137A
:100B580040011A129A127E01A401A5014001AC01BC
:100B6800AD010130B0000030B100981418151A1406
:100B78009A1408000B340034D83400340D3400348F
:100B8800D83400340E3400349C340134003400343A
:100B98001534003412340034A734013400340034DE
:100BA80015340034133400348B34023412340034D6
:100BB8006B340034103400346B3400341234003495
:100BC8006434033400340034B13401340B34003459
:100BD800D83400340D340034D83400340E340034A2
:100BE800B134013412340034B134013417340034D0
:100BF8009C34013400340034153400341534003486
:100C08009C34013400340034153400341234003478
:100C18006434033400340034B13401340B34003408
:100C2800D83400340D340034D83400340E34003451
:100C3800B134013412340034B13401341334003483
:100C48008B340234123400346B34003410340034E2
:100C58006B340034123400346434033413340034F5
:100C68002F34013400340034153400341234003485
:100C78002F34013400340034153400341334003474
:100C8800C2340034003400341534003415340034D0
:100C98008B3402341234003462340034103400349B
:100CA8006B34003412340034CA340634003400344F
:100CB800B134013414340034D834003416340034D8
:100CC800D834003417340034B13401341B340034C0
:100CD800B13401341C3400348B3402341B340034F6
:100CE8006B340034193400346B3400341B34003452
:100CF8004E34033400340034153400341C340034CA
:100D08002F34013400340034153400341B340034DB
:100D18002F34013400340034153400341C340034CA
:100D2800C234003400340034153400341E34003426
:100D3800753402340034003415340034203400345F
:100D48006B340034223400346B34003423340034E0
:100D5800CA340634003400341434003441011D14FC
:100D680040012A082B040319BA2EBB2EBC2E1A15D3
:100D780041019D149D18C12EC22EBE2E1C08400193
:100D8800A30041011B084001A2002208F10023082A
:100D9800F200F301F4012008D3002108D400D501A2
:100DA800D6010A30D335D40DD50DD60D890BD62EE4
:100DB8005608F8005508F7005408F6005308F500DF
:100DC8008E31D826863174084001DA007308D900BC
:100DD8007208D8007108D7000030F4000030F30022
:100DE8000030F2000A30F1005A08F8005908F700FC
:100DF8005808F6005708F5008E31D8268631720853
:100E08004001A5007108A40001302502A030031993
:100E18002402031C102F112F162F981018111A10C6
:100E28009A10712F013025028F3003192402031CF8
:100E38001E2F1F2F312F981018111A102A082B0453
:100E48000319272F282F712F460803192C2F2D2F10
:100E58002F2F9A10712F9A14712F0130250281308B
:100E680003192402031C392F3A2F4B2F98101811FD
:100E78002A082B040319412F422F2F2F4608031944
:100E8800462F472F492F1A102F2F1A142F2F0130B2
:100E98002502783003192402031C532F542F662F80
:100EA80098102A082B0403195A2F5B2F632F460822
:100EB80003195F2F602F622F1811632F18151A144A
:100EC8009A14712F460803196A2F6B2F6D2F9810EB
:100ED8006E2F981418151A149A142A082B0403193B
:100EE800762F772F822F0130D3005308C606F430AF
:100EF800F1000130F2008E3194268631080001306D
:100F0800450190000E088F3960388E008F178E17B4
:100F180046011612961740014803031D942F952F7A
:100F2800C32F03307E01A2000330910003309200EA
:100F38000330A0000330A100C030FB00FF30FC00EC
:100F48000130F9000030FA0079087A04031DAD2F4A
:100F5800AE2FA82F7C08460195007B0894007B08DB
:100F6800C03EFB00FF307C3DFC0000307C0241307D
:100F780003197B020318C12FC22FA42FEA2F0230B6
:100F88004806031DC82FC92FCA2FEA2F0330480669
:100F9800031DCF2FD02FEA2F46018E170E160E08ED
:100FA800F0390C388E00921712161208F0390C38E6
:100FB80092001A129A1701307E01A20001309100A6
:100FC800023092000330A0000430A10040019810C4
:100FD80018111A109A107E01A20191019201A00124
:100FE800A1014001C8010800ED34E034D334C7340E
:100FF800BD34B234A8349E3496348D3485347D346F
:10100800763470346A3463345E34593454344F342B
:101018004B34463442343F343B343834343432343D
:101028002F342C342A3427342534233421341F34E4
:101D1400E8340334E8340334640080010131890B6E
:101D24008F2E00347208FA007108F90079087A04D9
:101D3400031D9D2E9E2E982E08004001C401C5014E
:101D44009A11981418151A149A141A1541011D1091
:101D540063000800710872040319B12EB22EC32E59
:101D640001304001C0000030C100720885007108D4
:101D74008400F83084078730853D00084B019D00BE
:101D8400C62E4001C001C1017408FA007308F900AD
:101D940079087A040319CF2ED02ED72E40012E08AD
:101DA4002F04031DD62ED72ECA2E08004001CE01C3
:101DB400F41FDD2EDE2EEB2EF109F209F309F409EE
:101DC400F10A0319F20A0319F30A0319F40ACE01FA
:101DD400CE0AF81FEE2EEF2EFE2EF509F609F709AE
:101DE400F809F50A0319F60A0319F70A0319F80A98
:101DF4000130CC004C08CE060030D2000030D100B7
:101E04000030D0000030CF007408730472047104F1
:101E140003190D2F0E2F4F2FCD01CD0A1C2F01308A
:101E2400F135F20DF30DF40D890B122F0130CC00B6
:101E34004C08CD07F41F1F2F202F112F0130CF3551
:101E4400D00DD10DD20D890B212F74087802031DFA
:101E5400352F73087702031D352F72087602031D90
:101E6400352F71087502031C382F392F422F710842
:101E7400F5027208F63B7308F73B7408F83B4F14FD
:101E84000130F436F30CF20CF10C890B432F0130C2
:101E9400CD02031D4E2F4F2F202F4E080319532F11
:101EA400542F5F2FCF09D009D109D209CF0A0319C2
:101EB400D00A0319D10A0319D20A5208F4005108AE
:101EC400F3005008F2004F08F1000800013045010A
:101ED40090000E088F3960388E008F178E174601D8
:101EE400961703307E01A200033091000330920064
:101EF4000330A0000330A100E82F4030FB00003085
:101F0400FC000130F9000030FA0079087A04031962
:101F14008C2F8D2F932F2E082F04031D922F932F78
:101F2400872F7C08460195007B0894007B08403E7F
:101F3400FB0000307C3DFC00FF307C02C030031904
:101F44007B020318A62FA72FAE2F40012E082F04C3
:101F5400031DAD2FAE2F832F0130F9000030FA009E
:101F640079087A040319B72FB82FBF2F40012E0820
:101F74002F04031DBE2FBF2FB22F7C0846019500EE
:101F84007B0894007B08C03EFB00FF307C3DFC00D6
:101F940000307C02413003197B02031CD22FD32F63
:101FA400DA2F40012E082F04031DD92FDA2FAE2F6C
:101FB40040012E082F040319E02FE12FE82FF430FD
:101FC400F1000130F2008E3194268F314001620815
:101FD4006002031DEF2F61085F020318F22FF32F35
:101FE400F92F2E082F04031DF82FF92F7F2F7E01C0
:0C1FF400A20191019201A001A1010800CE
:020000040001F9
:04000E00CF3F263F7B
:04001400FF1FFF3F8C
:00000001FF
